{
  "transactions": [
    {
      "hash": "0x4fca24634c87659276af8f4915e8a89fe0f9d4bc92ca32e8d23304da9598dff8",
      "transactionType": "CREATE",
      "contractName": "MockERC20",
      "contractAddress": "0x73c56ddd816e356387caf740c804bb9d379be47e",
      "function": null,
      "arguments": [
        "Mock USDC",
        "mUSDC",
        "18",
        "10000000000000000000000000",
        "0xc929959b439b6FC2Eb53e7CeB602297fF3147146"
      ],
      "transaction": {
        "from": "0xc929959b439b6fc2eb53e7ceb602297ff3147146",
        "value": "0x0",
        "input": "0x6080604052346103ed57610cea80380380610019816103f1565b928339810160a0828203126103ed5781516001600160401b0381116103ed5781610044918401610416565b602083015190916001600160401b0382116103ed57610064918401610416565b91604081015160ff81168091036103ed5760608201516080909201516001600160a01b03811693908490036103ed578051906001600160401b0382116102e85760035490600182811c921680156103e3575b60208310146102ca5781601f84931161036d575b50602090601f8311600114610307575f926102fc575b50508160011b915f199060031b1c1916176003555b83516001600160401b0381116102e857600454600181811c911680156102de575b60208210146102ca57601f811161025c575b50602094601f82116001146101f9579481929394955f926101ee575b50508160011b915f199060031b1c1916176004555b60ff19600554161760055581156101db57600254908082018092116101c75760207fddf252ad1be2c89b69c2b068fc378daa952ba7f163c4a11628f55a4df523b3ef915f9360025584845283825260408420818154019055604051908152a360405161088290816104688239f35b634e487b7160e01b5f52601160045260245ffd5b63ec442f0560e01b5f525f60045260245ffd5b015190505f80610144565b601f1982169560045f52805f20915f5b8881106102445750836001959697981061022c575b505050811b01600455610159565b01515f1960f88460031b161c191690555f808061021e565b91926020600181928685015181550194019201610209565b818111156101285760045f52601f820160051c7f8a35acfbc15ff81a39ae7d344fd709f28e8600b4aa8c65c6b64bfe7fe36bd19b602084106102c2575b81601f9101920160051c03905f5b8281106102b5575050610128565b5f828201556001016102a7565b5f9150610299565b634e487b7160e01b5f52602260045260245ffd5b90607f1690610116565b634e487b7160e01b5f52604160045260245ffd5b015190505f806100e0565b60035f9081528281209350601f198516905b818110610355575090846001959493921061033d575b505050811b016003556100f5565b01515f1960f88460031b161c191690555f808061032f565b92936020600181928786015181550195019301610319565b828111156100ca5760035f52909150601f830160051c7fc2575a0e9e593c00f959f8c92f12db2869c3395a3b0502d05e2516446f71f85b602085106103db575b849392601f0160051c82900391015f5b8281106103cb5750506100ca565b5f818301558594506001016103bd565b5f91506103ad565b91607f16916100b6565b5f80fd5b6040519190601f01601f191682016001600160401b038111838210176102e857604052565b81601f820112156103ed578051906001600160401b0382116102e857610445601f8301601f19166020016103f1565b92828452602083830101116103ed57815f9260208093018386015e830101529056fe6080806040526004361015610012575f80fd5b5f3560e01c90816306fdde031461060f57508063095ea7b31461058057806318160ddd1461056357806323b872dd146103ed578063313ce567146103cd57806340c10f19146102ec57806370a08231146102a857806395d89b411461012d578063a9059cbb146100fc5763dd62ed3e1461008a575f80fd5b346100f85760406003193601126100f8576100a3610710565b73ffffffffffffffffffffffffffffffffffffffff6100c0610733565b91165f52600160205273ffffffffffffffffffffffffffffffffffffffff60405f2091165f52602052602060405f2054604051908152f35b5f80fd5b346100f85760406003193601126100f857610122610118610710565b6024359033610756565b602060405160018152f35b346100f8575f6003193601126100f8576040515f600454908160011c6001831692831561029e575b60208210841461027157818552849390811561022f57506001146101d3575b5003601f01601f191681019067ffffffffffffffff8211818310176101a6576101a2829182604052826106e6565b0390f35b7f4e487b71000000000000000000000000000000000000000000000000000000005f52604160045260245ffd5b60045f90815291507f8a35acfbc15ff81a39ae7d344fd709f28e8600b4aa8c65c6b64bfe7fe36bd19b5b8183106102135750508101602001601f19610174565b60209193508060019154838588010152019101909183926101fd565b7fffffffffffffffffffffffffffffffffffffffffffffffffffffffffffffff001660208581019190915291151560051b84019091019150601f199050610174565b7f4e487b71000000000000000000000000000000000000000000000000000000005f52602260045260245ffd5b90607f1690610155565b346100f85760206003193601126100f85773ffffffffffffffffffffffffffffffffffffffff6102d6610710565b165f525f602052602060405f2054604051908152f35b346100f85760406003193601126100f857610305610710565b73ffffffffffffffffffffffffffffffffffffffff1660243581156103a157600254908082018092116103745760207fddf252ad1be2c89b69c2b068fc378daa952ba7f163c4a11628f55a4df523b3ef915f9360025584845283825260408420818154019055604051908152a3005b7f4e487b71000000000000000000000000000000000000000000000000000000005f52601160045260245ffd5b7fec442f05000000000000000000000000000000000000000000000000000000005f525f60045260245ffd5b346100f8575f6003193601126100f857602060ff60055416604051908152f35b346100f85760606003193601126100f857610406610710565b61040e610733565b6044359073ffffffffffffffffffffffffffffffffffffffff831692835f52600160205260405f2073ffffffffffffffffffffffffffffffffffffffff33165f5260205260405f20547fffffffffffffffffffffffffffffffffffffffffffffffffffffffffffffffff811061048a575b506101229350610756565b83811061052f5784156105035733156104d757610122945f52600160205260405f2073ffffffffffffffffffffffffffffffffffffffff33165f526020528360405f20910390558461047f565b7f94280d62000000000000000000000000000000000000000000000000000000005f525f60045260245ffd5b7fe602df05000000000000000000000000000000000000000000000000000000005f525f60045260245ffd5b83907ffb8f41b2000000000000000000000000000000000000000000000000000000005f523360045260245260445260645ffd5b346100f8575f6003193601126100f8576020600254604051908152f35b346100f85760406003193601126100f857610599610710565b6024359033156105035773ffffffffffffffffffffffffffffffffffffffff169081156104d757335f52600160205260405f20825f526020528060405f20556040519081527f8c5be1e5ebec7d5bd14f71427d1e84f3dd0314c0f7b2291e5b200ac8c7c3b92560203392a3602060405160018152f35b346100f8575f6003193601126100f8575f600354908160011c600183169283156106dc575b60208210841461027157818552849390811561022f5750600114610680575003601f01601f191681019067ffffffffffffffff8211818310176101a6576101a2829182604052826106e6565b60035f90815291507fc2575a0e9e593c00f959f8c92f12db2869c3395a3b0502d05e2516446f71f85b5b8183106106c05750508101602001601f19610174565b60209193508060019154838588010152019101909183926106aa565b90607f1690610634565b601f19601f602060409481855280519182918282880152018686015e5f8582860101520116010190565b6004359073ffffffffffffffffffffffffffffffffffffffff821682036100f857565b6024359073ffffffffffffffffffffffffffffffffffffffff821682036100f857565b73ffffffffffffffffffffffffffffffffffffffff169081156108205773ffffffffffffffffffffffffffffffffffffffff169182156103a157815f525f60205260405f20548181106107ee57817fddf252ad1be2c89b69c2b068fc378daa952ba7f163c4a11628f55a4df523b3ef92602092855f525f84520360405f2055845f525f825260405f20818154019055604051908152a3565b827fe450d38c000000000000000000000000000000000000000000000000000000005f5260045260245260445260645ffd5b7f96c6fd1e000000000000000000000000000000000000000000000000000000005f525f60045260245ffdfea264697066735822122098af259fc118bd7ec838a2ecb4ea21c98ec02042d74f50d141bb433967e1c5c164736f6c6343000822003300000000000000000000000000000000000000000000000000000000000000a000000000000000000000000000000000000000000000000000000000000000e00000000000000000000000000000000000000000000000000000000000000012000000000000000000000000000000000000000000084595161401484a000000000000000000000000000000c929959b439b6fc2eb53e7ceb602297ff314714600000000000000000000000000000000000000000000000000000000000000094d6f636b2055534443000000000000000000000000000000000000000000000000000000000000000000000000000000000000000000000000000000000000056d55534443000000000000000000000000000000000000000000000000000000",
        "nonce": "0x5d",
        "chainId": "0x515"
      },
      "additionalContracts": [],
      "isFixedGasLimit": false
    },
    {
      "hash": "0x4f1cebfa799298f0409812cf08137e8f80ae45da7e68330dc665a57a7bb9eb73",
      "transactionType": "CREATE",
      "contractName": "MockERC20",
      "contractAddress": "0x0e6f9cd4c00b05e3857ceea36ec7bea68fa7e7ed",
      "function": null,
      "arguments": [
        "Mock DAI",
        "mDAI",
        "18",
        "10000000000000000000000000",
        "0xc929959b439b6FC2Eb53e7CeB602297fF3147146"
      ],
      "transaction": {
        "from": "0xc929959b439b6fc2eb53e7ceb602297ff3147146",
        "value": "0x0",
        "input": "0x6080604052346103ed57610cea80380380610019816103f1565b928339810160a0828203126103ed5781516001600160401b0381116103ed5781610044918401610416565b602083015190916001600160401b0382116103ed57610064918401610416565b91604081015160ff81168091036103ed5760608201516080909201516001600160a01b03811693908490036103ed578051906001600160401b0382116102e85760035490600182811c921680156103e3575b60208310146102ca5781601f84931161036d575b50602090601f8311600114610307575f926102fc575b50508160011b915f199060031b1c1916176003555b83516001600160401b0381116102e857600454600181811c911680156102de575b60208210146102ca57601f811161025c575b50602094601f82116001146101f9579481929394955f926101ee575b50508160011b915f199060031b1c1916176004555b60ff19600554161760055581156101db57600254908082018092116101c75760207fddf252ad1be2c89b69c2b068fc378daa952ba7f163c4a11628f55a4df523b3ef915f9360025584845283825260408420818154019055604051908152a360405161088290816104688239f35b634e487b7160e01b5f52601160045260245ffd5b63ec442f0560e01b5f525f60045260245ffd5b015190505f80610144565b601f1982169560045f52805f20915f5b8881106102445750836001959697981061022c575b505050811b01600455610159565b01515f1960f88460031b161c191690555f808061021e565b91926020600181928685015181550194019201610209565b818111156101285760045f52601f820160051c7f8a35acfbc15ff81a39ae7d344fd709f28e8600b4aa8c65c6b64bfe7fe36bd19b602084106102c2575b81601f9101920160051c03905f5b8281106102b5575050610128565b5f828201556001016102a7565b5f9150610299565b634e487b7160e01b5f52602260045260245ffd5b90607f1690610116565b634e487b7160e01b5f52604160045260245ffd5b015190505f806100e0565b60035f9081528281209350601f198516905b818110610355575090846001959493921061033d575b505050811b016003556100f5565b01515f1960f88460031b161c191690555f808061032f565b92936020600181928786015181550195019301610319565b828111156100ca5760035f52909150601f830160051c7fc2575a0e9e593c00f959f8c92f12db2869c3395a3b0502d05e2516446f71f85b602085106103db575b849392601f0160051c82900391015f5b8281106103cb5750506100ca565b5f818301558594506001016103bd565b5f91506103ad565b91607f16916100b6565b5f80fd5b6040519190601f01601f191682016001600160401b038111838210176102e857604052565b81601f820112156103ed578051906001600160401b0382116102e857610445601f8301601f19166020016103f1565b92828452602083830101116103ed57815f9260208093018386015e830101529056fe6080806040526004361015610012575f80fd5b5f3560e01c90816306fdde031461060f57508063095ea7b31461058057806318160ddd1461056357806323b872dd146103ed578063313ce567146103cd57806340c10f19146102ec57806370a08231146102a857806395d89b411461012d578063a9059cbb146100fc5763dd62ed3e1461008a575f80fd5b346100f85760406003193601126100f8576100a3610710565b73ffffffffffffffffffffffffffffffffffffffff6100c0610733565b91165f52600160205273ffffffffffffffffffffffffffffffffffffffff60405f2091165f52602052602060405f2054604051908152f35b5f80fd5b346100f85760406003193601126100f857610122610118610710565b6024359033610756565b602060405160018152f35b346100f8575f6003193601126100f8576040515f600454908160011c6001831692831561029e575b60208210841461027157818552849390811561022f57506001146101d3575b5003601f01601f191681019067ffffffffffffffff8211818310176101a6576101a2829182604052826106e6565b0390f35b7f4e487b71000000000000000000000000000000000000000000000000000000005f52604160045260245ffd5b60045f90815291507f8a35acfbc15ff81a39ae7d344fd709f28e8600b4aa8c65c6b64bfe7fe36bd19b5b8183106102135750508101602001601f19610174565b60209193508060019154838588010152019101909183926101fd565b7fffffffffffffffffffffffffffffffffffffffffffffffffffffffffffffff001660208581019190915291151560051b84019091019150601f199050610174565b7f4e487b71000000000000000000000000000000000000000000000000000000005f52602260045260245ffd5b90607f1690610155565b346100f85760206003193601126100f85773ffffffffffffffffffffffffffffffffffffffff6102d6610710565b165f525f602052602060405f2054604051908152f35b346100f85760406003193601126100f857610305610710565b73ffffffffffffffffffffffffffffffffffffffff1660243581156103a157600254908082018092116103745760207fddf252ad1be2c89b69c2b068fc378daa952ba7f163c4a11628f55a4df523b3ef915f9360025584845283825260408420818154019055604051908152a3005b7f4e487b71000000000000000000000000000000000000000000000000000000005f52601160045260245ffd5b7fec442f05000000000000000000000000000000000000000000000000000000005f525f60045260245ffd5b346100f8575f6003193601126100f857602060ff60055416604051908152f35b346100f85760606003193601126100f857610406610710565b61040e610733565b6044359073ffffffffffffffffffffffffffffffffffffffff831692835f52600160205260405f2073ffffffffffffffffffffffffffffffffffffffff33165f5260205260405f20547fffffffffffffffffffffffffffffffffffffffffffffffffffffffffffffffff811061048a575b506101229350610756565b83811061052f5784156105035733156104d757610122945f52600160205260405f2073ffffffffffffffffffffffffffffffffffffffff33165f526020528360405f20910390558461047f565b7f94280d62000000000000000000000000000000000000000000000000000000005f525f60045260245ffd5b7fe602df05000000000000000000000000000000000000000000000000000000005f525f60045260245ffd5b83907ffb8f41b2000000000000000000000000000000000000000000000000000000005f523360045260245260445260645ffd5b346100f8575f6003193601126100f8576020600254604051908152f35b346100f85760406003193601126100f857610599610710565b6024359033156105035773ffffffffffffffffffffffffffffffffffffffff169081156104d757335f52600160205260405f20825f526020528060405f20556040519081527f8c5be1e5ebec7d5bd14f71427d1e84f3dd0314c0f7b2291e5b200ac8c7c3b92560203392a3602060405160018152f35b346100f8575f6003193601126100f8575f600354908160011c600183169283156106dc575b60208210841461027157818552849390811561022f5750600114610680575003601f01601f191681019067ffffffffffffffff8211818310176101a6576101a2829182604052826106e6565b60035f90815291507fc2575a0e9e593c00f959f8c92f12db2869c3395a3b0502d05e2516446f71f85b5b8183106106c05750508101602001601f19610174565b60209193508060019154838588010152019101909183926106aa565b90607f1690610634565b601f19601f602060409481855280519182918282880152018686015e5f8582860101520116010190565b6004359073ffffffffffffffffffffffffffffffffffffffff821682036100f857565b6024359073ffffffffffffffffffffffffffffffffffffffff821682036100f857565b73ffffffffffffffffffffffffffffffffffffffff169081156108205773ffffffffffffffffffffffffffffffffffffffff169182156103a157815f525f60205260405f20548181106107ee57817fddf252ad1be2c89b69c2b068fc378daa952ba7f163c4a11628f55a4df523b3ef92602092855f525f84520360405f2055845f525f825260405f20818154019055604051908152a3565b827fe450d38c000000000000000000000000000000000000000000000000000000005f5260045260245260445260645ffd5b7f96c6fd1e000000000000000000000000000000000000000000000000000000005f525f60045260245ffdfea264697066735822122098af259fc118bd7ec838a2ecb4ea21c98ec02042d74f50d141bb433967e1c5c164736f6c6343000822003300000000000000000000000000000000000000000000000000000000000000a000000000000000000000000000000000000000000000000000000000000000e00000000000000000000000000000000000000000000000000000000000000012000000000000000000000000000000000000000000084595161401484a000000000000000000000000000000c929959b439b6fc2eb53e7ceb602297ff314714600000000000000000000000000000000000000000000000000000000000000084d6f636b2044414900000000000000000000000000000000000000000000000000000000000000000000000000000000000000000000000000000000000000046d44414900000000000000000000000000000000000000000000000000000000",
        "nonce": "0x5e",
        "chainId": "0x515"
      },
      "additionalContracts": [],
      "isFixedGasLimit": false
    },
    {
      "hash": "0x5c0e3a86c17814f44c5ff75e6a186020df4ef1bb67c3cc28a34b3a9ba0692b61",
      "transactionType": "CREATE",
      "contractName": "MockERC20",
      "contractAddress": "0x8508a009da4bd177d1aeeec00cba64f4316bbd2b",
      "function": null,
      "arguments": [
        "Mock WBTC",
        "mWBTC",
        "18",
        "1000000000000000000000",
        "0xc929959b439b6FC2Eb53e7CeB602297fF3147146"
      ],
      "transaction": {
        "from": "0xc929959b439b6fc2eb53e7ceb602297ff3147146",
        "value": "0x0",
        "input": "0x6080604052346103ed57610cea80380380610019816103f1565b928339810160a0828203126103ed5781516001600160401b0381116103ed5781610044918401610416565b602083015190916001600160401b0382116103ed57610064918401610416565b91604081015160ff81168091036103ed5760608201516080909201516001600160a01b03811693908490036103ed578051906001600160401b0382116102e85760035490600182811c921680156103e3575b60208310146102ca5781601f84931161036d575b50602090601f8311600114610307575f926102fc575b50508160011b915f199060031b1c1916176003555b83516001600160401b0381116102e857600454600181811c911680156102de575b60208210146102ca57601f811161025c575b50602094601f82116001146101f9579481929394955f926101ee575b50508160011b915f199060031b1c1916176004555b60ff19600554161760055581156101db57600254908082018092116101c75760207fddf252ad1be2c89b69c2b068fc378daa952ba7f163c4a11628f55a4df523b3ef915f9360025584845283825260408420818154019055604051908152a360405161088290816104688239f35b634e487b7160e01b5f52601160045260245ffd5b63ec442f0560e01b5f525f60045260245ffd5b015190505f80610144565b601f1982169560045f52805f20915f5b8881106102445750836001959697981061022c575b505050811b01600455610159565b01515f1960f88460031b161c191690555f808061021e565b91926020600181928685015181550194019201610209565b818111156101285760045f52601f820160051c7f8a35acfbc15ff81a39ae7d344fd709f28e8600b4aa8c65c6b64bfe7fe36bd19b602084106102c2575b81601f9101920160051c03905f5b8281106102b5575050610128565b5f828201556001016102a7565b5f9150610299565b634e487b7160e01b5f52602260045260245ffd5b90607f1690610116565b634e487b7160e01b5f52604160045260245ffd5b015190505f806100e0565b60035f9081528281209350601f198516905b818110610355575090846001959493921061033d575b505050811b016003556100f5565b01515f1960f88460031b161c191690555f808061032f565b92936020600181928786015181550195019301610319565b828111156100ca5760035f52909150601f830160051c7fc2575a0e9e593c00f959f8c92f12db2869c3395a3b0502d05e2516446f71f85b602085106103db575b849392601f0160051c82900391015f5b8281106103cb5750506100ca565b5f818301558594506001016103bd565b5f91506103ad565b91607f16916100b6565b5f80fd5b6040519190601f01601f191682016001600160401b038111838210176102e857604052565b81601f820112156103ed578051906001600160401b0382116102e857610445601f8301601f19166020016103f1565b92828452602083830101116103ed57815f9260208093018386015e830101529056fe6080806040526004361015610012575f80fd5b5f3560e01c90816306fdde031461060f57508063095ea7b31461058057806318160ddd1461056357806323b872dd146103ed578063313ce567146103cd57806340c10f19146102ec57806370a08231146102a857806395d89b411461012d578063a9059cbb146100fc5763dd62ed3e1461008a575f80fd5b346100f85760406003193601126100f8576100a3610710565b73ffffffffffffffffffffffffffffffffffffffff6100c0610733565b91165f52600160205273ffffffffffffffffffffffffffffffffffffffff60405f2091165f52602052602060405f2054604051908152f35b5f80fd5b346100f85760406003193601126100f857610122610118610710565b6024359033610756565b602060405160018152f35b346100f8575f6003193601126100f8576040515f600454908160011c6001831692831561029e575b60208210841461027157818552849390811561022f57506001146101d3575b5003601f01601f191681019067ffffffffffffffff8211818310176101a6576101a2829182604052826106e6565b0390f35b7f4e487b71000000000000000000000000000000000000000000000000000000005f52604160045260245ffd5b60045f90815291507f8a35acfbc15ff81a39ae7d344fd709f28e8600b4aa8c65c6b64bfe7fe36bd19b5b8183106102135750508101602001601f19610174565b60209193508060019154838588010152019101909183926101fd565b7fffffffffffffffffffffffffffffffffffffffffffffffffffffffffffffff001660208581019190915291151560051b84019091019150601f199050610174565b7f4e487b71000000000000000000000000000000000000000000000000000000005f52602260045260245ffd5b90607f1690610155565b346100f85760206003193601126100f85773ffffffffffffffffffffffffffffffffffffffff6102d6610710565b165f525f602052602060405f2054604051908152f35b346100f85760406003193601126100f857610305610710565b73ffffffffffffffffffffffffffffffffffffffff1660243581156103a157600254908082018092116103745760207fddf252ad1be2c89b69c2b068fc378daa952ba7f163c4a11628f55a4df523b3ef915f9360025584845283825260408420818154019055604051908152a3005b7f4e487b71000000000000000000000000000000000000000000000000000000005f52601160045260245ffd5b7fec442f05000000000000000000000000000000000000000000000000000000005f525f60045260245ffd5b346100f8575f6003193601126100f857602060ff60055416604051908152f35b346100f85760606003193601126100f857610406610710565b61040e610733565b6044359073ffffffffffffffffffffffffffffffffffffffff831692835f52600160205260405f2073ffffffffffffffffffffffffffffffffffffffff33165f5260205260405f20547fffffffffffffffffffffffffffffffffffffffffffffffffffffffffffffffff811061048a575b506101229350610756565b83811061052f5784156105035733156104d757610122945f52600160205260405f2073ffffffffffffffffffffffffffffffffffffffff33165f526020528360405f20910390558461047f565b7f94280d62000000000000000000000000000000000000000000000000000000005f525f60045260245ffd5b7fe602df05000000000000000000000000000000000000000000000000000000005f525f60045260245ffd5b83907ffb8f41b2000000000000000000000000000000000000000000000000000000005f523360045260245260445260645ffd5b346100f8575f6003193601126100f8576020600254604051908152f35b346100f85760406003193601126100f857610599610710565b6024359033156105035773ffffffffffffffffffffffffffffffffffffffff169081156104d757335f52600160205260405f20825f526020528060405f20556040519081527f8c5be1e5ebec7d5bd14f71427d1e84f3dd0314c0f7b2291e5b200ac8c7c3b92560203392a3602060405160018152f35b346100f8575f6003193601126100f8575f600354908160011c600183169283156106dc575b60208210841461027157818552849390811561022f5750600114610680575003601f01601f191681019067ffffffffffffffff8211818310176101a6576101a2829182604052826106e6565b60035f90815291507fc2575a0e9e593c00f959f8c92f12db2869c3395a3b0502d05e2516446f71f85b5b8183106106c05750508101602001601f19610174565b60209193508060019154838588010152019101909183926106aa565b90607f1690610634565b601f19601f602060409481855280519182918282880152018686015e5f8582860101520116010190565b6004359073ffffffffffffffffffffffffffffffffffffffff821682036100f857565b6024359073ffffffffffffffffffffffffffffffffffffffff821682036100f857565b73ffffffffffffffffffffffffffffffffffffffff169081156108205773ffffffffffffffffffffffffffffffffffffffff169182156103a157815f525f60205260405f20548181106107ee57817fddf252ad1be2c89b69c2b068fc378daa952ba7f163c4a11628f55a4df523b3ef92602092855f525f84520360405f2055845f525f825260405f20818154019055604051908152a3565b827fe450d38c000000000000000000000000000000000000000000000000000000005f5260045260245260445260645ffd5b7f96c6fd1e000000000000000000000000000000000000000000000000000000005f525f60045260245ffdfea264697066735822122098af259fc118bd7ec838a2ecb4ea21c98ec02042d74f50d141bb433967e1c5c164736f6c6343000822003300000000000000000000000000000000000000000000000000000000000000a000000000000000000000000000000000000000000000000000000000000000e0000000000000000000000000000000000000000000000000000000000000001200000000000000000000000000000000000000000000003635c9adc5dea00000000000000000000000000000c929959b439b6fc2eb53e7ceb602297ff314714600000000000000000000000000000000000000000000000000000000000000094d6f636b2057425443000000000000000000000000000000000000000000000000000000000000000000000000000000000000000000000000000000000000056d57425443000000000000000000000000000000000000000000000000000000",
        "nonce": "0x5f",
        "chainId": "0x515"
      },
      "additionalContracts": [],
      "isFixedGasLimit": false
    },
    {
      "hash": "0x78bff61abdbc210ab964b72f86d71d59a73167e4a674bba7e2c3df8f6ce7c6b9",
      "transactionType": "CREATE",
      "contractName": "MockERC20",
      "contractAddress": "0x7ff28651365c735c22960e27c2afa97abe4cf2ad",
      "function": null,
      "arguments": [
        "Mock WETH",
        "mWETH",
        "18",
        "1000000000000000000000000",
        "0xc929959b439b6FC2Eb53e7CeB602297fF3147146"
      ],
      "transaction": {
        "from": "0xc929959b439b6fc2eb53e7ceb602297ff3147146",
        "value": "0x0",
        "input": "0x6080604052346103ed57610cea80380380610019816103f1565b928339810160a0828203126103ed5781516001600160401b0381116103ed5781610044918401610416565b602083015190916001600160401b0382116103ed57610064918401610416565b91604081015160ff81168091036103ed5760608201516080909201516001600160a01b03811693908490036103ed578051906001600160401b0382116102e85760035490600182811c921680156103e3575b60208310146102ca5781601f84931161036d575b50602090601f8311600114610307575f926102fc575b50508160011b915f199060031b1c1916176003555b83516001600160401b0381116102e857600454600181811c911680156102de575b60208210146102ca57601f811161025c575b50602094601f82116001146101f9579481929394955f926101ee575b50508160011b915f199060031b1c1916176004555b60ff19600554161760055581156101db57600254908082018092116101c75760207fddf252ad1be2c89b69c2b068fc378daa952ba7f163c4a11628f55a4df523b3ef915f9360025584845283825260408420818154019055604051908152a360405161088290816104688239f35b634e487b7160e01b5f52601160045260245ffd5b63ec442f0560e01b5f525f60045260245ffd5b015190505f80610144565b601f1982169560045f52805f20915f5b8881106102445750836001959697981061022c575b505050811b01600455610159565b01515f1960f88460031b161c191690555f808061021e565b91926020600181928685015181550194019201610209565b818111156101285760045f52601f820160051c7f8a35acfbc15ff81a39ae7d344fd709f28e8600b4aa8c65c6b64bfe7fe36bd19b602084106102c2575b81601f9101920160051c03905f5b8281106102b5575050610128565b5f828201556001016102a7565b5f9150610299565b634e487b7160e01b5f52602260045260245ffd5b90607f1690610116565b634e487b7160e01b5f52604160045260245ffd5b015190505f806100e0565b60035f9081528281209350601f198516905b818110610355575090846001959493921061033d575b505050811b016003556100f5565b01515f1960f88460031b161c191690555f808061032f565b92936020600181928786015181550195019301610319565b828111156100ca5760035f52909150601f830160051c7fc2575a0e9e593c00f959f8c92f12db2869c3395a3b0502d05e2516446f71f85b602085106103db575b849392601f0160051c82900391015f5b8281106103cb5750506100ca565b5f818301558594506001016103bd565b5f91506103ad565b91607f16916100b6565b5f80fd5b6040519190601f01601f191682016001600160401b038111838210176102e857604052565b81601f820112156103ed578051906001600160401b0382116102e857610445601f8301601f19166020016103f1565b92828452602083830101116103ed57815f9260208093018386015e830101529056fe6080806040526004361015610012575f80fd5b5f3560e01c90816306fdde031461060f57508063095ea7b31461058057806318160ddd1461056357806323b872dd146103ed578063313ce567146103cd57806340c10f19146102ec57806370a08231146102a857806395d89b411461012d578063a9059cbb146100fc5763dd62ed3e1461008a575f80fd5b346100f85760406003193601126100f8576100a3610710565b73ffffffffffffffffffffffffffffffffffffffff6100c0610733565b91165f52600160205273ffffffffffffffffffffffffffffffffffffffff60405f2091165f52602052602060405f2054604051908152f35b5f80fd5b346100f85760406003193601126100f857610122610118610710565b6024359033610756565b602060405160018152f35b346100f8575f6003193601126100f8576040515f600454908160011c6001831692831561029e575b60208210841461027157818552849390811561022f57506001146101d3575b5003601f01601f191681019067ffffffffffffffff8211818310176101a6576101a2829182604052826106e6565b0390f35b7f4e487b71000000000000000000000000000000000000000000000000000000005f52604160045260245ffd5b60045f90815291507f8a35acfbc15ff81a39ae7d344fd709f28e8600b4aa8c65c6b64bfe7fe36bd19b5b8183106102135750508101602001601f19610174565b60209193508060019154838588010152019101909183926101fd565b7fffffffffffffffffffffffffffffffffffffffffffffffffffffffffffffff001660208581019190915291151560051b84019091019150601f199050610174565b7f4e487b71000000000000000000000000000000000000000000000000000000005f52602260045260245ffd5b90607f1690610155565b346100f85760206003193601126100f85773ffffffffffffffffffffffffffffffffffffffff6102d6610710565b165f525f602052602060405f2054604051908152f35b346100f85760406003193601126100f857610305610710565b73ffffffffffffffffffffffffffffffffffffffff1660243581156103a157600254908082018092116103745760207fddf252ad1be2c89b69c2b068fc378daa952ba7f163c4a11628f55a4df523b3ef915f9360025584845283825260408420818154019055604051908152a3005b7f4e487b71000000000000000000000000000000000000000000000000000000005f52601160045260245ffd5b7fec442f05000000000000000000000000000000000000000000000000000000005f525f60045260245ffd5b346100f8575f6003193601126100f857602060ff60055416604051908152f35b346100f85760606003193601126100f857610406610710565b61040e610733565b6044359073ffffffffffffffffffffffffffffffffffffffff831692835f52600160205260405f2073ffffffffffffffffffffffffffffffffffffffff33165f5260205260405f20547fffffffffffffffffffffffffffffffffffffffffffffffffffffffffffffffff811061048a575b506101229350610756565b83811061052f5784156105035733156104d757610122945f52600160205260405f2073ffffffffffffffffffffffffffffffffffffffff33165f526020528360405f20910390558461047f565b7f94280d62000000000000000000000000000000000000000000000000000000005f525f60045260245ffd5b7fe602df05000000000000000000000000000000000000000000000000000000005f525f60045260245ffd5b83907ffb8f41b2000000000000000000000000000000000000000000000000000000005f523360045260245260445260645ffd5b346100f8575f6003193601126100f8576020600254604051908152f35b346100f85760406003193601126100f857610599610710565b6024359033156105035773ffffffffffffffffffffffffffffffffffffffff169081156104d757335f52600160205260405f20825f526020528060405f20556040519081527f8c5be1e5ebec7d5bd14f71427d1e84f3dd0314c0f7b2291e5b200ac8c7c3b92560203392a3602060405160018152f35b346100f8575f6003193601126100f8575f600354908160011c600183169283156106dc575b60208210841461027157818552849390811561022f5750600114610680575003601f01601f191681019067ffffffffffffffff8211818310176101a6576101a2829182604052826106e6565b60035f90815291507fc2575a0e9e593c00f959f8c92f12db2869c3395a3b0502d05e2516446f71f85b5b8183106106c05750508101602001601f19610174565b60209193508060019154838588010152019101909183926106aa565b90607f1690610634565b601f19601f602060409481855280519182918282880152018686015e5f8582860101520116010190565b6004359073ffffffffffffffffffffffffffffffffffffffff821682036100f857565b6024359073ffffffffffffffffffffffffffffffffffffffff821682036100f857565b73ffffffffffffffffffffffffffffffffffffffff169081156108205773ffffffffffffffffffffffffffffffffffffffff169182156103a157815f525f60205260405f20548181106107ee57817fddf252ad1be2c89b69c2b068fc378daa952ba7f163c4a11628f55a4df523b3ef92602092855f525f84520360405f2055845f525f825260405f20818154019055604051908152a3565b827fe450d38c000000000000000000000000000000000000000000000000000000005f5260045260245260445260645ffd5b7f96c6fd1e000000000000000000000000000000000000000000000000000000005f525f60045260245ffdfea264697066735822122098af259fc118bd7ec838a2ecb4ea21c98ec02042d74f50d141bb433967e1c5c164736f6c6343000822003300000000000000000000000000000000000000000000000000000000000000a000000000000000000000000000000000000000000000000000000000000000e0000000000000000000000000000000000000000000000000000000000000001200000000000000000000000000000000000000000000d3c21bcecceda1000000000000000000000000000000c929959b439b6fc2eb53e7ceb602297ff314714600000000000000000000000000000000000000000000000000000000000000094d6f636b2057455448000000000000000000000000000000000000000000000000000000000000000000000000000000000000000000000000000000000000056d57455448000000000000000000000000000000000000000000000000000000",
        "nonce": "0x60",
        "chainId": "0x515"
      },
      "additionalContracts": [],
      "isFixedGasLimit": false
    },
    {
      "hash": "0x6b1f341554447b1fe5e3101137b159087336b5d46d6e1de33a187d038bc12666",
      "transactionType": "CALL",
      "contractName": "MockERC20",
      "contractAddress": "0x73c56ddd816e356387caf740c804bb9d379be47e",
      "function": "mint(address,uint256)",
      "arguments": [
        "0xc929959b439b6FC2Eb53e7CeB602297fF3147146",
        "10000000000000000000000000"
      ],
      "transaction": {
        "from": "0xc929959b439b6fc2eb53e7ceb602297ff3147146",
        "to": "0x73c56ddd816e356387caf740c804bb9d379be47e",
        "value": "0x0",
        "input": "0x40c10f19000000000000000000000000c929959b439b6fc2eb53e7ceb602297ff3147146000000000000000000000000000000000000000000084595161401484a000000",
        "nonce": "0x61",
        "chainId": "0x515"
      },
      "additionalContracts": [],
      "isFixedGasLimit": false
    },
    {
      "hash": "0x2dd7b79f0da06aa97e30fbd13455a589a4559d4bbc7ba11e5fa488e2913e515c",
      "transactionType": "CALL",
      "contractName": "MockERC20",
      "contractAddress": "0x0e6f9cd4c00b05e3857ceea36ec7bea68fa7e7ed",
      "function": "mint(address,uint256)",
      "arguments": [
        "0xc929959b439b6FC2Eb53e7CeB602297fF3147146",
        "10000000000000000000000000"
      ],
      "transaction": {
        "from": "0xc929959b439b6fc2eb53e7ceb602297ff3147146",
        "to": "0x0e6f9cd4c00b05e3857ceea36ec7bea68fa7e7ed",
        "value": "0x0",
        "input": "0x40c10f19000000000000000000000000c929959b439b6fc2eb53e7ceb602297ff3147146000000000000000000000000000000000000000000084595161401484a000000",
        "nonce": "0x62",
        "chainId": "0x515"
      },
      "additionalContracts": [],
      "isFixedGasLimit": false
    },
    {
      "hash": "0xe13e8229f26c36e7b6d227138b081ec11b7d483703eddb1277792fdeef6190e4",
      "transactionType": "CALL",
      "contractName": "MockERC20",
      "contractAddress": "0x8508a009da4bd177d1aeeec00cba64f4316bbd2b",
      "function": "mint(address,uint256)",
      "arguments": [
        "0xc929959b439b6FC2Eb53e7CeB602297fF3147146",
        "1000000000000000000000"
      ],
      "transaction": {
        "from": "0xc929959b439b6fc2eb53e7ceb602297ff3147146",
        "to": "0x8508a009da4bd177d1aeeec00cba64f4316bbd2b",
        "value": "0x0",
        "input": "0x40c10f19000000000000000000000000c929959b439b6fc2eb53e7ceb602297ff314714600000000000000000000000000000000000000000000003635c9adc5dea00000",
        "nonce": "0x63",
        "chainId": "0x515"
      },
      "additionalContracts": [],
      "isFixedGasLimit": false
    },
    {
      "hash": "0xbf7a64e2a51adcf82fdd33daba2f9adb36be52766455d77b1c31c3c9f00c2621",
      "transactionType": "CALL",
      "contractName": "MockERC20",
      "contractAddress": "0x7ff28651365c735c22960e27c2afa97abe4cf2ad",
      "function": "mint(address,uint256)",
      "arguments": [
        "0xc929959b439b6FC2Eb53e7CeB602297fF3147146",
        "1000000000000000000000000"
      ],
      "transaction": {
        "from": "0xc929959b439b6fc2eb53e7ceb602297ff3147146",
        "to": "0x7ff28651365c735c22960e27c2afa97abe4cf2ad",
        "value": "0x0",
        "input": "0x40c10f19000000000000000000000000c929959b439b6fc2eb53e7ceb602297ff314714600000000000000000000000000000000000000000000d3c21bcecceda1000000",
        "nonce": "0x64",
        "chainId": "0x515"
      },
      "additionalContracts": [],
      "isFixedGasLimit": false
    },
    {
      "hash": "0xce4ac451808c25c53a06f31322006a8343e7a6b366bb496cc60a33e62d7bb93a",
      "transactionType": "CREATE",
      "contractName": "SetupRouter",
      "contractAddress": "0xb3926879cec1555efbc6c7b9c9bb6b6d40595e5b",
      "function": null,
      "arguments": [
        "0x00B036B58a818B1BC34d502D3fE730Db729e62AC"
      ],
      "transaction": {
        "from": "0xc929959b439b6fc2eb53e7ceb602297ff3147146",
        "value": "0x0",
        "input": "0x60a03461008657601f610ed738819003918201601f19168301916001600160401b0383118484101761008a5780849260209460405283398101031261008657516001600160a01b038116810361008657608052604051610e38908161009f8239608051818181610297015281816105a7015281816109d101528181610bfe0152610c7d0152f35b5f80fd5b634e487b7160e01b5f52604160045260245ffdfe6080806040526004361015610012575f80fd5b5f905f3560e01c908163481c6a75146109895750806391dd7346146103d75763cf4bac771461003f575f80fd5b7ffffffffffffffffffffffffffffffffffffffffffffffffffffffffffffffffc360161012081126103d35760a0136102e3576040519061007f82610a81565b60043573ffffffffffffffffffffffffffffffffffffffff811681036103d357825260243573ffffffffffffffffffffffffffffffffffffffff811681036103d357602083015260443562ffffff811681036103d35760408301526064358060020b81036103d357606083015260843573ffffffffffffffffffffffffffffffffffffffff811681036103d357608083015260807fffffffffffffffffffffffffffffffffffffffffffffffffffffffffffffff5c3601126102e35760405161014781610a9d565b60a4358060020b810361039157815260c4358060020b810361039157926102318261027d9560208695015260e43560408201526101043560608201526040805161019081610a38565b33815260208101948552019081526102006040519333602086015251604085019073ffffffffffffffffffffffffffffffffffffffff6080809282815116855282602082015116602086015262ffffff6040820151166040860152606081015160020b6060860152015116910152565b518051600290810b60e08501526020820151900b610100840152604081015161012084015260600151610140830152565b610140815261024261016082610ab9565b604051809481927f48c894910000000000000000000000000000000000000000000000000000000083526020600484015260248301906109f5565b03818373ffffffffffffffffffffffffffffffffffffffff7f0000000000000000000000000000000000000000000000000000000000000000165af19182156103c65781926102e6575b506020828051810103126102e357602080830151604051908152f35b80fd5b9091503d8083833e6102f88183610ab9565b8101906020818303126103915780519067ffffffffffffffff82116103c2570181601f8201121561039157805167ffffffffffffffff811161039557908160207fffffffffffffffffffffffffffffffffffffffffffffffffffffffffffffffe0601f87950116019361036e6040519586610ab9565b81855260208284010111610391578060208093018386015e83010152905f6102c7565b8280fd5b6024847f4e487b710000000000000000000000000000000000000000000000000000000081526041600452fd5b8380fd5b50604051903d90823e3d90fd5b5080fd5b50346108c55760207ffffffffffffffffffffffffffffffffffffffffffffffffffffffffffffffffc3601126108c5576004359067ffffffffffffffff82116108c557366023830112156108c557816004013567ffffffffffffffff81116108c5578201903660248301116108c557610140838303126108c5576040519161045e83610a38565b61046a60248501610afa565b835260a07fffffffffffffffffffffffffffffffffffffffffffffffffffffffffffffffe085830301126108c557604051906104a582610a81565b6104b160448601610afa565b82526104bf60648601610afa565b6020830152608485013562ffffff811681036108c55760408301526104e660a48601610b1b565b606083015260c485013573ffffffffffffffffffffffffffffffffffffffff811681036108c5577fffffffffffffffffffffffffffffffffffffffffffffffffffffffffffffff1c866080936024938587015260208801958652030101126108c5576101446040519461055886610a9d565b61056460e48201610b1b565b86526105736101048201610b1b565b602087015261012481013560408701520135606085015283604084015273ffffffffffffffffffffffffffffffffffffffff7f000000000000000000000000000000000000000000000000000000000000000016815193604061068d6020966106cf83516105e18a82610ab9565b5f81527fffffffffffffffffffffffffffffffffffffffffffffffffffffffffffffffe08a01368b8301376106bb85519b8c9586957f5a6bcfda000000000000000000000000000000000000000000000000000000008752600487019073ffffffffffffffffffffffffffffffffffffffff6080809282815116855282602082015116602086015262ffffff6040820151166040860152606081015160020b6060860152015116910152565b8051600290810b60a48701526020820151900b60c4860152604081015160e486015260600151610104850152565b6101406101248401526101448301906109f5565b03815f865af19586156108ba575f96610955575b50848660801d600f0b9387600f0b945f8112610913575b5f86126108c9575b5f8113610800575b50858513610743575b8782604051918183015280825261072b604083610ab9565b61073f6040519282849384528301906109f5565b0390f35b510151905173ffffffffffffffffffffffffffffffffffffffff9081169116823b156107fc576040517f0b0d9c0900000000000000000000000000000000000000000000000000000000815273ffffffffffffffffffffffffffffffffffffffff918216600482015291166024820152604481019290925282908290606490829084905af180156107f1576107dc575b80808481610713565b6107e7828092610ab9565b6102e357806107d3565b6040513d84823e3d90fd5b8480fd5b915073ffffffffffffffffffffffffffffffffffffffff8151511673ffffffffffffffffffffffffffffffffffffffff845116853b156108c5576040517f0b0d9c0900000000000000000000000000000000000000000000000000000000815273ffffffffffffffffffffffffffffffffffffffff92831660048201529116602482015260448101929092525f8260648183885af19182156108ba5787921561070a575f9196506108b19250610ab9565b845f945f61070a565b6040513d5f823e3d90fd5b5f80fd5b61090e73ffffffffffffffffffffffffffffffffffffffff84845101511673ffffffffffffffffffffffffffffffffffffffff86511661090889610b29565b91610b91565b610702565b61095073ffffffffffffffffffffffffffffffffffffffff8351511673ffffffffffffffffffffffffffffffffffffffff86511661090884610b29565b6106fa565b9095506040813d604011610981575b8161097160409383610ab9565b810103126108c55751945f6106e3565b3d9150610964565b346108c5575f7ffffffffffffffffffffffffffffffffffffffffffffffffffffffffffffffffc3601126108c55760209073ffffffffffffffffffffffffffffffffffffffff7f0000000000000000000000000000000000000000000000000000000000000000168152f35b907fffffffffffffffffffffffffffffffffffffffffffffffffffffffffffffffe0601f602080948051918291828752018686015e5f8582860101520116010190565b6060810190811067ffffffffffffffff821117610a5457604052565b7f4e487b71000000000000000000000000000000000000000000000000000000005f52604160045260245ffd5b60a0810190811067ffffffffffffffff821117610a5457604052565b6080810190811067ffffffffffffffff821117610a5457604052565b90601f7fffffffffffffffffffffffffffffffffffffffffffffffffffffffffffffffe0910116810190811067ffffffffffffffff821117610a5457604052565b359073ffffffffffffffffffffffffffffffffffffffff821682036108c557565b35908160020b82036108c557565b7f80000000000000000000000000000000000000000000000000000000000000008114610b55575f0390565b7f4e487b71000000000000000000000000000000000000000000000000000000005f52601160045260245ffd5b908160209103126108c5575190565b73ffffffffffffffffffffffffffffffffffffffff90939293165f9181155f14610c66575050602060049293604051938480927f11da60b400000000000000000000000000000000000000000000000000000000825273ffffffffffffffffffffffffffffffffffffffff7f0000000000000000000000000000000000000000000000000000000000000000165af1908115610c5a5750610c2f5750565b610c509060203d602011610c53575b610c488183610ab9565b810190610b82565b50565b503d610c3e565b604051903d90823e3d90fd5b73ffffffffffffffffffffffffffffffffffffffff7f00000000000000000000000000000000000000000000000000000000000000001691823b156108c5576040517fa58411940000000000000000000000000000000000000000000000000000000081528160048201525f8160248183885af180156108ba57610dd0575b5060646020928573ffffffffffffffffffffffffffffffffffffffff93604051998a9586947f23b872dd00000000000000000000000000000000000000000000000000000000865216600485015287602485015260448401525af19384156107f157829394610d90575b506020906004604051809581937f11da60b40000000000000000000000000000000000000000000000000000000083525af1908115610c5a5750610c2f5750565b9091506020813d602011610dc8575b81610dac60209383610ab9565b8101031261039157518015158103610391575081906020610d4f565b3d9150610d9f565b73ffffffffffffffffffffffffffffffffffffffff919450602092610df75f606493610ab9565b5f9592509250610ce556fea2646970667358221220d8a6468407a4878389656169c7a560523ae4e9faf78619e0e48de8c26b657ad564736f6c6343000822003300000000000000000000000000b036b58a818b1bc34d502d3fe730db729e62ac",
        "nonce": "0x65",
        "chainId": "0x515"
      },
      "additionalContracts": [],
      "isFixedGasLimit": false
    },
    {
      "hash": "0xdd1e5ff3e0e6073f802525d1e0c70712553f0f9de34c8288a4b5bc257627eb54",
      "transactionType": "CREATE",
      "contractName": "PoolSwapTest",
      "contractAddress": "0x75fb5aa45a57123a4a83e4ae3196629eca0d14e6",
      "function": null,
      "arguments": [
        "0x00B036B58a818B1BC34d502D3fE730Db729e62AC"
      ],
      "transaction": {
        "from": "0xc929959b439b6fc2eb53e7ceb602297ff3147146",
        "value": "0x0",
        "input": "0x60a03461007e57601f6119fa38819003918201601f19168301916001600160401b038311848410176100825780849260209460405283398101031261007e57516001600160a01b038116810361007e576080526040516119639081610097823960805181818160ab01528181610c0701528181610f6601526113a00152f35b5f80fd5b634e487b7160e01b5f52604160045260245ffdfe60806040526004361015610011575f80fd5b5f3560e01c80632229d0b414610c2b578063481c6a7514610bbd576391dd73461461003a575f80fd5b34610b1e5760207ffffffffffffffffffffffffffffffffffffffffffffffffffffffffffffffffc360112610b1e5760043567ffffffffffffffff8111610b1e5736602382011215610b1e57806004013567ffffffffffffffff8111610b1e578101906024820191368311610b1e577f00000000000000000000000000000000000000000000000000000000000000009273ffffffffffffffffffffffffffffffffffffffff841692833303610b1e57602081840312610b1e5760248101359067ffffffffffffffff8211610b1e57019061018082840312610b1e5760405191610123836110d8565b61012f6024820161117c565b83526040601f198286030112610b1e576040519061014c8261113d565b6101586044820161119d565b82526101666064820161119d565b60208301526020840191825260a060247fffffffffffffffffffffffffffffffffffffffffffffffffffffffffffffff7c838803010112610b1e57604051946101ae866110d8565b6101ba6084830161117c565b86526101c860a4830161117c565b602087015260c482013562ffffff81168103610b1e57604087015260e48201358060020b8103610b1e57606087015261010482013573ffffffffffffffffffffffffffffffffffffffff81168103610b1e577ffffffffffffffffffffffffffffffffffffffffffffffffffffffffffffffedc8360609360249360808b015260408901998a5203010112610b1e576040519261026384611121565b610270610124830161119d565b8452610144820135602085015261016482013573ffffffffffffffffffffffffffffffffffffffff81168103610b1e576040850152606085019384526101848201359167ffffffffffffffff8311610b1e576102cf92016024016111c6565b946080840195865261031273ffffffffffffffffffffffffffffffffffffffff8651511673ffffffffffffffffffffffffffffffffffffffff865116309161137b565b91505061035473ffffffffffffffffffffffffffffffffffffffff60208851015116309073ffffffffffffffffffffffffffffffffffffffff8851169061137b565b92915050610b7957610b3557610429956020916103f55f885161043d885195516040519c8d97889687957ff3cd914c000000000000000000000000000000000000000000000000000000008752600487019073ffffffffffffffffffffffffffffffffffffffff6080809282815116855282602082015116602086015262ffffff6040820151166040860152606081015160020b6060860152015116910152565b8051151560a4860152602081015160c48601526040015173ffffffffffffffffffffffffffffffffffffffff1660e4850152565b61012061010484015261012483019061120c565b03925af1948515610b2a575f95610af2575b5061048c73ffffffffffffffffffffffffffffffffffffffff85515116309073ffffffffffffffffffffffffffffffffffffffff8651169061137b565b979150506104cf73ffffffffffffffffffffffffffffffffffffffff60208751015116309073ffffffffffffffffffffffffffffffffffffffff8751169061137b565b855180519196935091501561089d57505f602082510151125f1461077957516020015187126106e957610509878760801d600f0b14611240565b5f831261067f57610564965b5f811261063d575b5f84126105e8575b5f81136105a0575b505f8313610568575b868660405190602082015260208152610550604082611159565b60405191829160208352602083019061120c565b0390f35b73ffffffffffffffffffffffffffffffffffffffff806020610596975101511694511691515115159361179d565b5f80808080610536565b6105e29073ffffffffffffffffffffffffffffffffffffffff875151169073ffffffffffffffffffffffffffffffffffffffff8751168486515115159361179d565b5f61052d565b61063873ffffffffffffffffffffffffffffffffffffffff6020885101511673ffffffffffffffffffffffffffffffffffffffff87511661062887611322565b9085602088510151151593611465565b610525565b61067a73ffffffffffffffffffffffffffffffffffffffff8751511673ffffffffffffffffffffffffffffffffffffffff87511661062884611322565b61051d565b608460405162461bcd60e51b815260206004820152602d60248201527f64656c7461416674657231206973206e6f742067726561746572207468616e2060448201527f6f7220657175616c20746f2030000000000000000000000000000000000000006064820152fd5b60a460405162461bcd60e51b815260206004820152604760248201527f64656c7461416674657230206973206e6f742067726561746572207468616e2060448201527f6f7220657175616c20746f20646174612e706172616d732e616d6f756e74537060648201527f65636966696564000000000000000000000000000000000000000000000000006084820152fd5b5f8813610833576020906107918589600f0b146112b1565b51015183136107a35761056496610515565b60a460405162461bcd60e51b815260206004820152604460248201527f64656c7461416674657231206973206e6f74206c657373207468616e206f722060448201527f657175616c20746f20646174612e706172616d732e616d6f756e74537065636960648201527f66696564000000000000000000000000000000000000000000000000000000006084820152fd5b608460405162461bcd60e51b815260206004820152602d60248201527f64656c7461416674657230206973206e6f74206c657373207468616e206f722060448201527f657175616c20746f207a65726f000000000000000000000000000000000000006064820152fd5b602001515f13156109cb575160200151831261093b576108c18387600f0b146112b1565b5f87126108d15761056496610515565b608460405162461bcd60e51b815260206004820152602d60248201527f64656c7461416674657230206973206e6f742067726561746572207468616e2060448201527f6f7220657175616c20746f2030000000000000000000000000000000000000006064820152fd5b60a460405162461bcd60e51b815260206004820152604760248201527f64656c7461416674657231206973206e6f742067726561746572207468616e2060448201527f6f7220657175616c20746f20646174612e706172616d732e616d6f756e74537060648201527f65636966696564000000000000000000000000000000000000000000000000006084820152fd5b5f8413610a88576020906109e6898960801d600f0b14611240565b51015187136109f85761056496610515565b60a460405162461bcd60e51b815260206004820152604460248201527f64656c7461416674657230206973206e6f74206c657373207468616e206f722060448201527f657175616c20746f20646174612e706172616d732e616d6f756e74537065636960648201527f66696564000000000000000000000000000000000000000000000000000000006084820152fd5b608460405162461bcd60e51b815260206004820152602a60248201527f64656c7461416674657231206973206e6f74206c657373207468616e206f722060448201527f657175616c20746f2030000000000000000000000000000000000000000000006064820152fd5b9094506020813d602011610b22575b81610b0e60209383611159565b81010312610b1e5751935f61044f565b5f80fd5b3d9150610b01565b6040513d5f823e3d90fd5b606460405162461bcd60e51b815260206004820152601e60248201527f64656c74614265666f726531206973206e6f7420657175616c20746f203000006044820152fd5b606460405162461bcd60e51b815260206004820152601e60248201527f64656c74614265666f726530206973206e6f7420657175616c20746f203000006044820152fd5b34610b1e575f7ffffffffffffffffffffffffffffffffffffffffffffffffffffffffffffffffc360112610b1e57602060405173ffffffffffffffffffffffffffffffffffffffff7f0000000000000000000000000000000000000000000000000000000000000000168152f35b7ffffffffffffffffffffffffffffffffffffffffffffffffffffffffffffffffc36016101608112610b1e5760a013610b1e57604051610c6a816110d8565b60043573ffffffffffffffffffffffffffffffffffffffff81168103610b1e57815260243573ffffffffffffffffffffffffffffffffffffffff81168103610b1e57602082015260443562ffffff81168103610b1e5760408201526064358060020b8103610b1e57606082015260843573ffffffffffffffffffffffffffffffffffffffff81168103610b1e57608082015260607fffffffffffffffffffffffffffffffffffffffffffffffffffffffffffffff5c360112610b1e57604051610d3281611121565b60a4358015158103610b1e57815260c435602082015260e43573ffffffffffffffffffffffffffffffffffffffff81168103610b1e57604082015260407ffffffffffffffffffffffffffffffffffffffffffffffffffffffffffffffefc360112610b1e5760405191610da48361113d565b610104358015158103610b1e578352610124358015158103610b1e5760208401526101443567ffffffffffffffff8111610b1e57610f4c93610f0373ffffffffffffffffffffffffffffffffffffffff93610eee5f96610eb6610e0e610f119736906004016111c6565b93602060405197610e1e896110d8565b3389528189019081526040890192835260608901948552608089019687526040519a8b9983808c0152511660408a0152518051151560608a01520151151560808801525160a087019073ffffffffffffffffffffffffffffffffffffffff6080809282815116855282602082015116602086015262ffffff6040820151166040860152606081015160020b6060860152015116910152565b518051151561014086015260208101516101608601526040015173ffffffffffffffffffffffffffffffffffffffff16610180850152565b516101806101a08401526101c083019061120c565b03601f198101835282611159565b604051809381927f48c8949100000000000000000000000000000000000000000000000000000000835260206004840152602483019061120c565b03818373ffffffffffffffffffffffffffffffffffffffff7f0000000000000000000000000000000000000000000000000000000000000000165af1908115610b2a575f9161105e575b5060208151918180820193849201010312610b1e57514780610fbe575b602082604051908152f35b5f80808093335af115610fd15781610fb3565b601f19601f3d0116604051907f90bfb8650000000000000000000000000000000000000000000000000000000082523360048301525f6024830152608060448301528060a00160648301523d60848301523d5f60a484013e7ff4b3b1bc0000000000000000000000000000000000000000000000000000000060c4828401600460a4820152015260e40190fd5b90503d805f833e61106f8183611159565b810190602081830312610b1e5780519067ffffffffffffffff8211610b1e570181601f82011215610b1e578051906110a6826111aa565b926110b46040519485611159565b82845260208383010111610b1e57815f9260208093018386015e8301015281610f96565b60a0810190811067ffffffffffffffff8211176110f457604052565b7f4e487b71000000000000000000000000000000000000000000000000000000005f52604160045260245ffd5b6060810190811067ffffffffffffffff8211176110f457604052565b6040810190811067ffffffffffffffff8211176110f457604052565b90601f601f19910116810190811067ffffffffffffffff8211176110f457604052565b359073ffffffffffffffffffffffffffffffffffffffff82168203610b1e57565b35908115158203610b1e57565b67ffffffffffffffff81116110f457601f01601f191660200190565b81601f82011215610b1e578035906111dd826111aa565b926111eb6040519485611159565b82845260208383010111610b1e57815f926020809301838601378301015290565b90601f19601f602080948051918291828752018686015e5f8582860101520116010190565b90816020910312610b1e575190565b1561124757565b608460405162461bcd60e51b815260206004820152602b60248201527f64656c74612e616d6f756e74302829206973206e6f7420657175616c20746f2060448201527f64656c74614166746572300000000000000000000000000000000000000000006064820152fd5b156112b857565b608460405162461bcd60e51b815260206004820152602b60248201527f64656c74612e616d6f756e74312829206973206e6f7420657175616c20746f2060448201527f64656c74614166746572310000000000000000000000000000000000000000006064820152fd5b7f8000000000000000000000000000000000000000000000000000000000000000811461134e575f0390565b7f4e487b71000000000000000000000000000000000000000000000000000000005f52601160045260245ffd5b929061138790846118ae565b9273ffffffffffffffffffffffffffffffffffffffff807f00000000000000000000000000000000000000000000000000000000000000001691816113cc84836118ae565b95165f5216602052602060405f206024604051809481937ff135baaa00000000000000000000000000000000000000000000000000000000835260048301525afa908115610b2a575f9161141e575090565b90506020813d602011611445575b8161143960209383611159565b81010312610b1e575190565b3d915061142c565b90816020910312610b1e57518015158103610b1e5790565b9293156115075773ffffffffffffffffffffffffffffffffffffffff16803b15610b1e576040517ff5298aca00000000000000000000000000000000000000000000000000000000815273ffffffffffffffffffffffffffffffffffffffff92831660048201529290911660248301526044820192909252905f908290818381606481015b03925af18015610b2a576114fb5750565b5f61150591611159565b565b9173ffffffffffffffffffffffffffffffffffffffff16806115a557505073ffffffffffffffffffffffffffffffffffffffff600460209260405194859384927f11da60b4000000000000000000000000000000000000000000000000000000008452165af18015610b2a5761157a5750565b61159b9060203d60201161159e575b6115938183611159565b810190611231565b50565b503d611589565b90929173ffffffffffffffffffffffffffffffffffffffff1691823b15610b1e57604051937fa58411940000000000000000000000000000000000000000000000000000000085525f948360048201525f8160248183895af18015610b2a57611774575b5073ffffffffffffffffffffffffffffffffffffffff1684308214611700576020929160649160405195869485937f23b872dd000000000000000000000000000000000000000000000000000000008552600485015288602485015260448401525af180156116f5579160209184936116c8575b505b6004604051809581937f11da60b40000000000000000000000000000000000000000000000000000000083525af19081156116bc575061157a5750565b604051903d90823e3d90fd5b6116e790833d85116116ee575b6116df8183611159565b81019061144d565b505f61167d565b503d6116d5565b6040513d85823e3d90fd5b929050604460209260405194859384927fa9059cbb00000000000000000000000000000000000000000000000000000000845288600485015260248401525af180156116f557916020918493611757575b5061167f565b61176d90833d85116116ee576116df8183611159565b505f611751565b6117819195505f90611159565b5f9373ffffffffffffffffffffffffffffffffffffffff611609565b9293156118265773ffffffffffffffffffffffffffffffffffffffff16803b15610b1e576040517f156e29f600000000000000000000000000000000000000000000000000000000815273ffffffffffffffffffffffffffffffffffffffff92831660048201529290911660248301526044820192909252905f908290818381606481016114ea565b90929073ffffffffffffffffffffffffffffffffffffffff16803b15610b1e575f928360649273ffffffffffffffffffffffffffffffffffffffff948560405198899788967f0b0d9c0900000000000000000000000000000000000000000000000000000000885216600487015216602485015260448401525af18015610b2a576114fb5750565b73ffffffffffffffffffffffffffffffffffffffff16806118ce57503190565b9073ffffffffffffffffffffffffffffffffffffffff602460209260405194859384927f70a082310000000000000000000000000000000000000000000000000000000084521660048301525afa908115610b2a575f9161141e57509056fea2646970667358221220388b1617a2d25555ba6bd93c591f1561ac8036b5e7557d0ba54f3663a972d92764736f6c6343000822003300000000000000000000000000b036b58a818b1bc34d502d3fe730db729e62ac",
        "nonce": "0x66",
        "chainId": "0x515"
      },
      "additionalContracts": [],
      "isFixedGasLimit": false
    },
    {
      "hash": "0xbfaa45483e0d2c2bd88917d5da4bcff28e8293f5077fc6cad203376b7b7d4ca6",
      "transactionType": "CALL",
      "contractName": "MockERC20",
      "contractAddress": "0x73c56ddd816e356387caf740c804bb9d379be47e",
      "function": "approve(address,uint256)",
      "arguments": [
        "0xb3926879cEC1555eFbc6C7B9C9BB6b6d40595E5B",
        "115792089237316195423570985008687907853269984665640564039457584007913129639935"
      ],
      "transaction": {
        "from": "0xc929959b439b6fc2eb53e7ceb602297ff3147146",
        "to": "0x73c56ddd816e356387caf740c804bb9d379be47e",
        "value": "0x0",
        "input": "0x095ea7b3000000000000000000000000b3926879cec1555efbc6c7b9c9bb6b6d40595e5bffffffffffffffffffffffffffffffffffffffffffffffffffffffffffffffff",
        "nonce": "0x67",
        "chainId": "0x515"
      },
      "additionalContracts": [],
      "isFixedGasLimit": false
    },
    {
      "hash": "0x40148ccb2b16d2b7d28e174fa33f83157e393fe57e12e722a4a8355af481bdb2",
      "transactionType": "CALL",
      "contractName": "MockERC20",
      "contractAddress": "0x0e6f9cd4c00b05e3857ceea36ec7bea68fa7e7ed",
      "function": "approve(address,uint256)",
      "arguments": [
        "0xb3926879cEC1555eFbc6C7B9C9BB6b6d40595E5B",
        "115792089237316195423570985008687907853269984665640564039457584007913129639935"
      ],
      "transaction": {
        "from": "0xc929959b439b6fc2eb53e7ceb602297ff3147146",
        "to": "0x0e6f9cd4c00b05e3857ceea36ec7bea68fa7e7ed",
        "value": "0x0",
        "input": "0x095ea7b3000000000000000000000000b3926879cec1555efbc6c7b9c9bb6b6d40595e5bffffffffffffffffffffffffffffffffffffffffffffffffffffffffffffffff",
        "nonce": "0x68",
        "chainId": "0x515"
      },
      "additionalContracts": [],
      "isFixedGasLimit": false
    },
    {
      "hash": "0x88fb389c3eff67153b227dfab87fb3fdabdd9595114321f54a4c8731a3960c29",
      "transactionType": "CALL",
      "contractName": "MockERC20",
      "contractAddress": "0x8508a009da4bd177d1aeeec00cba64f4316bbd2b",
      "function": "approve(address,uint256)",
      "arguments": [
        "0xb3926879cEC1555eFbc6C7B9C9BB6b6d40595E5B",
        "115792089237316195423570985008687907853269984665640564039457584007913129639935"
      ],
      "transaction": {
        "from": "0xc929959b439b6fc2eb53e7ceb602297ff3147146",
        "to": "0x8508a009da4bd177d1aeeec00cba64f4316bbd2b",
        "value": "0x0",
        "input": "0x095ea7b3000000000000000000000000b3926879cec1555efbc6c7b9c9bb6b6d40595e5bffffffffffffffffffffffffffffffffffffffffffffffffffffffffffffffff",
        "nonce": "0x69",
        "chainId": "0x515"
      },
      "additionalContracts": [],
      "isFixedGasLimit": false
    },
    {
      "hash": "0x70b1a7220afed7826fc714a72004162faebcac60400bad8b57c4c7e59a18ef28",
      "transactionType": "CALL",
      "contractName": "MockERC20",
      "contractAddress": "0x7ff28651365c735c22960e27c2afa97abe4cf2ad",
      "function": "approve(address,uint256)",
      "arguments": [
        "0xb3926879cEC1555eFbc6C7B9C9BB6b6d40595E5B",
        "115792089237316195423570985008687907853269984665640564039457584007913129639935"
      ],
      "transaction": {
        "from": "0xc929959b439b6fc2eb53e7ceb602297ff3147146",
        "to": "0x7ff28651365c735c22960e27c2afa97abe4cf2ad",
        "value": "0x0",
        "input": "0x095ea7b3000000000000000000000000b3926879cec1555efbc6c7b9c9bb6b6d40595e5bffffffffffffffffffffffffffffffffffffffffffffffffffffffffffffffff",
        "nonce": "0x6a",
        "chainId": "0x515"
      },
      "additionalContracts": [],
      "isFixedGasLimit": false
    },
    {
      "hash": "0x3ee98430a275568439607e5afe23ff4c6588b7c0f902a6d9b707cf3f412434be",
      "transactionType": "CALL",
      "contractName": "MockERC20",
      "contractAddress": "0x73c56ddd816e356387caf740c804bb9d379be47e",
      "function": "approve(address,uint256)",
      "arguments": [
        "0x75fb5Aa45A57123A4a83E4aE3196629eCa0D14e6",
        "115792089237316195423570985008687907853269984665640564039457584007913129639935"
      ],
      "transaction": {
        "from": "0xc929959b439b6fc2eb53e7ceb602297ff3147146",
        "to": "0x73c56ddd816e356387caf740c804bb9d379be47e",
        "value": "0x0",
        "input": "0x095ea7b300000000000000000000000075fb5aa45a57123a4a83e4ae3196629eca0d14e6ffffffffffffffffffffffffffffffffffffffffffffffffffffffffffffffff",
        "nonce": "0x6b",
        "chainId": "0x515"
      },
      "additionalContracts": [],
      "isFixedGasLimit": false
    },
    {
      "hash": "0x80f1763829ce816dd7f71528a9c857e2b0847c568ebaaf074c33584c39017c1b",
      "transactionType": "CALL",
      "contractName": "MockERC20",
      "contractAddress": "0x0e6f9cd4c00b05e3857ceea36ec7bea68fa7e7ed",
      "function": "approve(address,uint256)",
      "arguments": [
        "0x75fb5Aa45A57123A4a83E4aE3196629eCa0D14e6",
        "115792089237316195423570985008687907853269984665640564039457584007913129639935"
      ],
      "transaction": {
        "from": "0xc929959b439b6fc2eb53e7ceb602297ff3147146",
        "to": "0x0e6f9cd4c00b05e3857ceea36ec7bea68fa7e7ed",
        "value": "0x0",
        "input": "0x095ea7b300000000000000000000000075fb5aa45a57123a4a83e4ae3196629eca0d14e6ffffffffffffffffffffffffffffffffffffffffffffffffffffffffffffffff",
        "nonce": "0x6c",
        "chainId": "0x515"
      },
      "additionalContracts": [],
      "isFixedGasLimit": false
    },
    {
      "hash": "0xd3c865ed1bb68bce5461cd923881d2421bbcee0fe91b0568a9a221cdae5f4779",
      "transactionType": "CALL",
      "contractName": "MockERC20",
      "contractAddress": "0x8508a009da4bd177d1aeeec00cba64f4316bbd2b",
      "function": "approve(address,uint256)",
      "arguments": [
        "0x75fb5Aa45A57123A4a83E4aE3196629eCa0D14e6",
        "115792089237316195423570985008687907853269984665640564039457584007913129639935"
      ],
      "transaction": {
        "from": "0xc929959b439b6fc2eb53e7ceb602297ff3147146",
        "to": "0x8508a009da4bd177d1aeeec00cba64f4316bbd2b",
        "value": "0x0",
        "input": "0x095ea7b300000000000000000000000075fb5aa45a57123a4a83e4ae3196629eca0d14e6ffffffffffffffffffffffffffffffffffffffffffffffffffffffffffffffff",
        "nonce": "0x6d",
        "chainId": "0x515"
      },
      "additionalContracts": [],
      "isFixedGasLimit": false
    },
    {
      "hash": "0x405ddb4a2cf47b9a5a1736d0bfa8a5307cb4115ca1d507506ca63311b8d31821",
      "transactionType": "CALL",
      "contractName": "MockERC20",
      "contractAddress": "0x7ff28651365c735c22960e27c2afa97abe4cf2ad",
      "function": "approve(address,uint256)",
      "arguments": [
        "0x75fb5Aa45A57123A4a83E4aE3196629eCa0D14e6",
        "115792089237316195423570985008687907853269984665640564039457584007913129639935"
      ],
      "transaction": {
        "from": "0xc929959b439b6fc2eb53e7ceb602297ff3147146",
        "to": "0x7ff28651365c735c22960e27c2afa97abe4cf2ad",
        "value": "0x0",
        "input": "0x095ea7b300000000000000000000000075fb5aa45a57123a4a83e4ae3196629eca0d14e6ffffffffffffffffffffffffffffffffffffffffffffffffffffffffffffffff",
        "nonce": "0x6e",
        "chainId": "0x515"
      },
      "additionalContracts": [],
      "isFixedGasLimit": false
    },
    {
      "hash": "0x7508d9e14d723fd536d88d2e0708ea40a65596f703cf38e4e15a00b9b764539f",
      "transactionType": "CALL",
      "contractName": null,
      "contractAddress": "0x00b036b58a818b1bc34d502d3fe730db729e62ac",
      "function": "initialize((address,address,uint24,int24,address),uint160)",
      "arguments": [
        "(0x73c56ddD816e356387Caf740c804bb9D379BE47E, 0x8508A009DA4BD177D1aEeeC00CBa64f4316BbD2B, 3000, 60, 0x78609BB14f0AeF92B8F22559D18BAC65De5740c0)",
        "304166050470486642314444800"
      ],
      "transaction": {
        "from": "0xc929959b439b6fc2eb53e7ceb602297ff3147146",
        "to": "0x00b036b58a818b1bc34d502d3fe730db729e62ac",
        "value": "0x0",
        "input": "0x6276cbbe00000000000000000000000073c56ddd816e356387caf740c804bb9d379be47e0000000000000000000000008508a009da4bd177d1aeeec00cba64f4316bbd2b0000000000000000000000000000000000000000000000000000000000000bb8000000000000000000000000000000000000000000000000000000000000003c00000000000000000000000078609bb14f0aef92b8f22559d18bac65de5740c0000000000000000000000000000000000000000000fb99aaa2c538b000000000",
        "nonce": "0x6f",
        "chainId": "0x515"
      },
      "additionalContracts": [],
      "isFixedGasLimit": false
    },
    {
      "hash": "0xbe82c5a6034a828dcfd5214d25d7e768b59cdf96012e076a1f6a5b030082164f",
      "transactionType": "CALL",
      "contractName": "SetupRouter",
      "contractAddress": "0xb3926879cec1555efbc6c7b9c9bb6b6d40595e5b",
      "function": "modifyLiquidity((address,address,uint24,int24,address),(int24,int24,int256,bytes32))",
      "arguments": [
        "(0x73c56ddD816e356387Caf740c804bb9D379BE47E, 0x8508A009DA4BD177D1aEeeC00CBa64f4316BbD2B, 3000, 60, 0x78609BB14f0AeF92B8F22559D18BAC65De5740c0)",
        "(-887220, 887220, 3839115294586368902, 0x0000000000000000000000000000000000000000000000000000000000000000)"
      ],
      "transaction": {
        "from": "0xc929959b439b6fc2eb53e7ceb602297ff3147146",
        "to": "0xb3926879cec1555efbc6c7b9c9bb6b6d40595e5b",
        "value": "0x0",
        "input": "0xcf4bac7700000000000000000000000073c56ddd816e356387caf740c804bb9d379be47e0000000000000000000000008508a009da4bd177d1aeeec00cba64f4316bbd2b0000000000000000000000000000000000000000000000000000000000000bb8000000000000000000000000000000000000000000000000000000000000003c00000000000000000000000078609bb14f0aef92b8f22559d18bac65de5740c0fffffffffffffffffffffffffffffffffffffffffffffffffffffffffff2764c00000000000000000000000000000000000000000000000000000000000d89b4000000000000000000000000000000000000000000000000354747051996f3860000000000000000000000000000000000000000000000000000000000000000",
        "nonce": "0x70",
        "chainId": "0x515"
      },
      "additionalContracts": [],
      "isFixedGasLimit": false
    },
    {
      "hash": "0xb9f5aae7f66a9450c63f2aca1f21e5eb9002b3f90562e2a3234527a77ac4b1ab",
      "transactionType": "CALL",
      "contractName": null,
      "contractAddress": "0x00b036b58a818b1bc34d502d3fe730db729e62ac",
      "function": "initialize((address,address,uint24,int24,address),uint160)",
      "arguments": [
        "(0x0e6f9cD4C00b05E3857cEeA36ec7bEA68fa7e7eD, 0x8508A009DA4BD177D1aEeeC00CBa64f4316BbD2B, 3000, 60, 0x78609BB14f0AeF92B8F22559D18BAC65De5740c0)",
        "304166050470486642314444800"
      ],
      "transaction": {
        "from": "0xc929959b439b6fc2eb53e7ceb602297ff3147146",
        "to": "0x00b036b58a818b1bc34d502d3fe730db729e62ac",
        "value": "0x0",
        "input": "0x6276cbbe0000000000000000000000000e6f9cd4c00b05e3857ceea36ec7bea68fa7e7ed0000000000000000000000008508a009da4bd177d1aeeec00cba64f4316bbd2b0000000000000000000000000000000000000000000000000000000000000bb8000000000000000000000000000000000000000000000000000000000000003c00000000000000000000000078609bb14f0aef92b8f22559d18bac65de5740c0000000000000000000000000000000000000000000fb99aaa2c538b000000000",
        "nonce": "0x71",
        "chainId": "0x515"
      },
      "additionalContracts": [],
      "isFixedGasLimit": false
    },
    {
      "hash": "0x5f6510adbb91c9e2367c0bcd8ebc9fc8a8766756c421cab1117abc8256750809",
      "transactionType": "CALL",
      "contractName": "SetupRouter",
      "contractAddress": "0xb3926879cec1555efbc6c7b9c9bb6b6d40595e5b",
      "function": "modifyLiquidity((address,address,uint24,int24,address),(int24,int24,int256,bytes32))",
      "arguments": [
        "(0x0e6f9cD4C00b05E3857cEeA36ec7bEA68fa7e7eD, 0x8508A009DA4BD177D1aEeeC00CBa64f4316BbD2B, 3000, 60, 0x78609BB14f0AeF92B8F22559D18BAC65De5740c0)",
        "(-887220, 887220, 3839115294586368902, 0x0000000000000000000000000000000000000000000000000000000000000000)"
      ],
      "transaction": {
        "from": "0xc929959b439b6fc2eb53e7ceb602297ff3147146",
        "to": "0xb3926879cec1555efbc6c7b9c9bb6b6d40595e5b",
        "value": "0x0",
        "input": "0xcf4bac770000000000000000000000000e6f9cd4c00b05e3857ceea36ec7bea68fa7e7ed0000000000000000000000008508a009da4bd177d1aeeec00cba64f4316bbd2b0000000000000000000000000000000000000000000000000000000000000bb8000000000000000000000000000000000000000000000000000000000000003c00000000000000000000000078609bb14f0aef92b8f22559d18bac65de5740c0fffffffffffffffffffffffffffffffffffffffffffffffffffffffffff2764c00000000000000000000000000000000000000000000000000000000000d89b4000000000000000000000000000000000000000000000000354747051996f3860000000000000000000000000000000000000000000000000000000000000000",
        "nonce": "0x72",
        "chainId": "0x515"
      },
      "additionalContracts": [],
      "isFixedGasLimit": false
    },
    {
      "hash": "0xd23d772c4cf325bb7cf97fc5d7deae989544e098647262474bd71c711eb214eb",
      "transactionType": "CALL",
      "contractName": null,
      "contractAddress": "0x00b036b58a818b1bc34d502d3fe730db729e62ac",
      "function": "initialize((address,address,uint24,int24,address),uint160)",
      "arguments": [
        "(0x0e6f9cD4C00b05E3857cEeA36ec7bEA68fa7e7eD, 0x73c56ddD816e356387Caf740c804bb9D379BE47E, 500, 10, 0x78609BB14f0AeF92B8F22559D18BAC65De5740c0)",
        "79228162514264337593543950336"
      ],
      "transaction": {
        "from": "0xc929959b439b6fc2eb53e7ceb602297ff3147146",
        "to": "0x00b036b58a818b1bc34d502d3fe730db729e62ac",
        "value": "0x0",
        "input": "0x6276cbbe0000000000000000000000000e6f9cd4c00b05e3857ceea36ec7bea68fa7e7ed00000000000000000000000073c56ddd816e356387caf740c804bb9d379be47e00000000000000000000000000000000000000000000000000000000000001f4000000000000000000000000000000000000000000000000000000000000000a00000000000000000000000078609bb14f0aef92b8f22559d18bac65de5740c00000000000000000000000000000000000000001000000000000000000000000",
        "nonce": "0x73",
        "chainId": "0x515"
      },
      "additionalContracts": [],
      "isFixedGasLimit": false
    },
    {
      "hash": "0xc15795f8ed27476daab9ccf3d1cd8e18bced2bcebf95f957653000499c1cecef",
      "transactionType": "CALL",
      "contractName": "SetupRouter",
      "contractAddress": "0xb3926879cec1555efbc6c7b9c9bb6b6d40595e5b",
      "function": "modifyLiquidity((address,address,uint24,int24,address),(int24,int24,int256,bytes32))",
      "arguments": [
        "(0x0e6f9cD4C00b05E3857cEeA36ec7bEA68fa7e7eD, 0x73c56ddD816e356387Caf740c804bb9D379BE47E, 500, 10, 0x78609BB14f0AeF92B8F22559D18BAC65De5740c0)",
        "(-887270, 887270, 1000000000000000000000, 0x0000000000000000000000000000000000000000000000000000000000000000)"
      ],
      "transaction": {
        "from": "0xc929959b439b6fc2eb53e7ceb602297ff3147146",
        "to": "0xb3926879cec1555efbc6c7b9c9bb6b6d40595e5b",
        "value": "0x0",
        "input": "0xcf4bac770000000000000000000000000e6f9cd4c00b05e3857ceea36ec7bea68fa7e7ed00000000000000000000000073c56ddd816e356387caf740c804bb9d379be47e00000000000000000000000000000000000000000000000000000000000001f4000000000000000000000000000000000000000000000000000000000000000a00000000000000000000000078609bb14f0aef92b8f22559d18bac65de5740c0fffffffffffffffffffffffffffffffffffffffffffffffffffffffffff2761a00000000000000000000000000000000000000000000000000000000000d89e600000000000000000000000000000000000000000000003635c9adc5dea000000000000000000000000000000000000000000000000000000000000000000000",
        "nonce": "0x74",
        "chainId": "0x515"
      },
      "additionalContracts": [],
      "isFixedGasLimit": false
    },
    {
      "hash": "0x96910dc3729370151b3d0978bc8b9a900699db498d7caf3f6d1e4032bd0945f4",
      "transactionType": "CALL",
      "contractName": null,
      "contractAddress": "0x00b036b58a818b1bc34d502d3fe730db729e62ac",
      "function": "initialize((address,address,uint24,int24,address),uint160)",
      "arguments": [
        "(0x73c56ddD816e356387Caf740c804bb9D379BE47E, 0x7fF28651365c735c22960E27C2aFA97AbE4Cf2Ad, 3000, 60, 0x78609BB14f0AeF92B8F22559D18BAC65De5740c0)",
        "1771595571142957102961017"
      ],
      "transaction": {
        "from": "0xc929959b439b6fc2eb53e7ceb602297ff3147146",
        "to": "0x00b036b58a818b1bc34d502d3fe730db729e62ac",
        "value": "0x0",
        "input": "0x6276cbbe00000000000000000000000073c56ddd816e356387caf740c804bb9d379be47e0000000000000000000000007ff28651365c735c22960e27c2afa97abe4cf2ad0000000000000000000000000000000000000000000000000000000000000bb8000000000000000000000000000000000000000000000000000000000000003c00000000000000000000000078609bb14f0aef92b8f22559d18bac65de5740c0000000000000000000000000000000000000000000017726636ae6e77c629179",
        "nonce": "0x75",
        "chainId": "0x515"
      },
      "additionalContracts": [],
      "isFixedGasLimit": false
    },
    {
      "hash": "0x4032bdf7512dcfe33ded649a83409d283e0abcd1f6d61ff484f446fa38c23ea8",
      "transactionType": "CALL",
      "contractName": "SetupRouter",
      "contractAddress": "0xb3926879cec1555efbc6c7b9c9bb6b6d40595e5b",
      "function": "modifyLiquidity((address,address,uint24,int24,address),(int24,int24,int256,bytes32))",
      "arguments": [
        "(0x73c56ddD816e356387Caf740c804bb9D379BE47E, 0x7fF28651365c735c22960E27C2aFA97AbE4Cf2Ad, 3000, 60, 0x78609BB14f0AeF92B8F22559D18BAC65De5740c0)",
        "(-887220, 887220, 3839115294586368902, 0x0000000000000000000000000000000000000000000000000000000000000000)"
      ],
      "transaction": {
        "from": "0xc929959b439b6fc2eb53e7ceb602297ff3147146",
        "to": "0xb3926879cec1555efbc6c7b9c9bb6b6d40595e5b",
        "value": "0x0",
        "input": "0xcf4bac7700000000000000000000000073c56ddd816e356387caf740c804bb9d379be47e0000000000000000000000007ff28651365c735c22960e27c2afa97abe4cf2ad0000000000000000000000000000000000000000000000000000000000000bb8000000000000000000000000000000000000000000000000000000000000003c00000000000000000000000078609bb14f0aef92b8f22559d18bac65de5740c0fffffffffffffffffffffffffffffffffffffffffffffffffffffffffff2764c00000000000000000000000000000000000000000000000000000000000d89b4000000000000000000000000000000000000000000000000354747051996f3860000000000000000000000000000000000000000000000000000000000000000",
        "nonce": "0x76",
        "chainId": "0x515"
      },
      "additionalContracts": [],
      "isFixedGasLimit": false
    }
  ],
  "receipts": [
    {
      "status": "0x1",
      "cumulativeGasUsed": "0x131496",
      "logs": [
        {
          "address": "0x73c56ddd816e356387caf740c804bb9d379be47e",
          "topics": [
            "0xddf252ad1be2c89b69c2b068fc378daa952ba7f163c4a11628f55a4df523b3ef",
            "0x0000000000000000000000000000000000000000000000000000000000000000",
            "0x000000000000000000000000c929959b439b6fc2eb53e7ceb602297ff3147146"
          ],
          "data": "0x000000000000000000000000000000000000000000084595161401484a000000",
          "blockHash": "0x076e77208ef2a0a0ebba60c7d2bdec7f84f4aaad1ecf1b5796651ac302229ee9",
          "blockNumber": "0x2cb984c",
          "blockTimestamp": "0x69b94598",
          "transactionHash": "0x4fca24634c87659276af8f4915e8a89fe0f9d4bc92ca32e8d23304da9598dff8",
          "transactionIndex": "0x7",
          "logIndex": "0x8",
          "removed": false
        }
      ],
      "logsBloom": "0x00000000000000000000000000000000000000000000000000000000000000000000000000000000200000000000000000000000000000000000000000000000000000000000000000000008000000000000000000000000001000000000000000000000020000000000000000000800000000000000020000000010000000008000000000000000800000000000000000000000000000000000000000000000000000000000000000000000000000000000000000000000000000000000000000000002000000000000000000000000000000000000000000000000000020000000000000000000000000000000000004000000000000000000000000000000",
      "type": "0x0",
      "transactionHash": "0x4fca24634c87659276af8f4915e8a89fe0f9d4bc92ca32e8d23304da9598dff8",
      "transactionIndex": "0x7",
      "blockHash": "0x076e77208ef2a0a0ebba60c7d2bdec7f84f4aaad1ecf1b5796651ac302229ee9",
      "blockNumber": "0x2cb984c",
      "gasUsed": "0x9fcca",
      "effectiveGasPrice": "0x16e360",
      "blobGasUsed": "0xb0db0",
      "from": "0xc929959b439b6fc2eb53e7ceb602297ff3147146",
      "to": null,
      "contractAddress": "0x73c56ddd816e356387caf740c804bb9d379be47e",
      "daFootprintGasScalar": "0x190",
      "l1BaseFeeScalar": "0x7d0",
      "l1BlobBaseFee": "0x1a038",
      "l1BlobBaseFeeScalar": "0xdbba0",
      "l1Fee": "0xa5b6066",
      "l1GasPrice": "0x20",
      "l1GasUsed": "0x713e"
    },
    {
      "status": "0x1",
      "cumulativeGasUsed": "0xf570e",
      "logs": [
        {
          "address": "0x0e6f9cd4c00b05e3857ceea36ec7bea68fa7e7ed",
          "topics": [
            "0xddf252ad1be2c89b69c2b068fc378daa952ba7f163c4a11628f55a4df523b3ef",
            "0x0000000000000000000000000000000000000000000000000000000000000000",
            "0x000000000000000000000000c929959b439b6fc2eb53e7ceb602297ff3147146"
          ],
          "data": "0x000000000000000000000000000000000000000000084595161401484a000000",
          "blockHash": "0x75c4c1f9cf2de64335b0dbdcccd5f5a7829d77ec4a3397e1445df80a464d11f2",
          "blockNumber": "0x2cb984f",
          "blockTimestamp": "0x69b9459b",
          "transactionHash": "0x4f1cebfa799298f0409812cf08137e8f80ae45da7e68330dc665a57a7bb9eb73",
          "transactionIndex": "0x5",
          "logIndex": "0x3",
          "removed": false
        }
      ],
      "logsBloom": "0x00000000000000000000000000000000000000000000000000000000000000000000000000000000000000000000000000200000000000000000000000000000000000000000000000000008000100000000000000000000000000000000000000000000020000000000000000000800000000000000020000000010000000000000000000000000800000000000000000000000000000000000000000000000100000000000000000000000000000000000000000000000000000000000000000000002000000000000000000000000000000000000000000000000000020000000000000000000000000000000000004000000000000000000000000000000",
      "type": "0x0",
      "transactionHash": "0x4f1cebfa799298f0409812cf08137e8f80ae45da7e68330dc665a57a7bb9eb73",
      "transactionIndex": "0x5",
      "blockHash": "0x75c4c1f9cf2de64335b0dbdcccd5f5a7829d77ec4a3397e1445df80a464d11f2",
      "blockNumber": "0x2cb984f",
      "gasUsed": "0x9fcb2",
      "effectiveGasPrice": "0x16e360",
      "blobGasUsed": "0xb0db0",
      "from": "0xc929959b439b6fc2eb53e7ceb602297ff3147146",
      "to": null,
      "contractAddress": "0x0e6f9cd4c00b05e3857ceea36ec7bea68fa7e7ed",
      "daFootprintGasScalar": "0x190",
      "l1BaseFeeScalar": "0x7d0",
      "l1BlobBaseFee": "0x1a038",
      "l1BlobBaseFeeScalar": "0xdbba0",
      "l1Fee": "0xa5a270b",
      "l1GasPrice": "0x20",
      "l1GasUsed": "0x7131"
    },
    {
      "status": "0x1",
      "cumulativeGasUsed": "0xc76ce",
      "logs": [
        {
          "address": "0x8508a009da4bd177d1aeeec00cba64f4316bbd2b",
          "topics": [
            "0xddf252ad1be2c89b69c2b068fc378daa952ba7f163c4a11628f55a4df523b3ef",
            "0x0000000000000000000000000000000000000000000000000000000000000000",
            "0x000000000000000000000000c929959b439b6fc2eb53e7ceb602297ff3147146"
          ],
          "data": "0x00000000000000000000000000000000000000000000003635c9adc5dea00000",
          "blockHash": "0xa7419e7536be95f0af9a930d7810d41fa359571dcceb879ff03b0fd92806782f",
          "blockNumber": "0x2cb9852",
          "blockTimestamp": "0x69b9459e",
          "transactionHash": "0x5c0e3a86c17814f44c5ff75e6a186020df4ef1bb67c3cc28a34b3a9ba0692b61",
          "transactionIndex": "0x3",
          "logIndex": "0x1",
          "removed": false
        }
      ],
      "logsBloom": "0x00000000000000000000000004000000000000000000000000000000000000000000000000000000000000000000000000000000000000000000000000000000000000000000000000000008000000000000000000000000000000000000000000000000020000000000000000000800000000000000020000000010000000000000000000000000800000000000000000000000000000000000000000000000000000000000000000000000000000000000000000000000000000000000000000000802000000000000000000000000000000040000000000000000000020000000000000000000000000000000000004000000000000000000000000000000",
      "type": "0x0",
      "transactionHash": "0x5c0e3a86c17814f44c5ff75e6a186020df4ef1bb67c3cc28a34b3a9ba0692b61",
      "transactionIndex": "0x3",
      "blockHash": "0xa7419e7536be95f0af9a930d7810d41fa359571dcceb879ff03b0fd92806782f",
      "blockNumber": "0x2cb9852",
      "gasUsed": "0x9fcbe",
      "effectiveGasPrice": "0x16e360",
      "blobGasUsed": "0xb0900",
      "from": "0xc929959b439b6fc2eb53e7ceb602297ff3147146",
      "to": null,
      "contractAddress": "0x8508a009da4bd177d1aeeec00cba64f4316bbd2b",
      "daFootprintGasScalar": "0x190",
      "l1BaseFeeScalar": "0x7d0",
      "l1BlobBaseFee": "0x180c9",
      "l1BlobBaseFeeScalar": "0xdbba0",
      "l1Fee": "0x98e9d5a",
      "l1GasPrice": "0x1f",
      "l1GasUsed": "0x7109"
    },
    {
      "status": "0x1",
      "cumulativeGasUsed": "0xc76c2",
      "logs": [
        {
          "address": "0x7ff28651365c735c22960e27c2afa97abe4cf2ad",
          "topics": [
            "0xddf252ad1be2c89b69c2b068fc378daa952ba7f163c4a11628f55a4df523b3ef",
            "0x0000000000000000000000000000000000000000000000000000000000000000",
            "0x000000000000000000000000c929959b439b6fc2eb53e7ceb602297ff3147146"
          ],
          "data": "0x00000000000000000000000000000000000000000000d3c21bcecceda1000000",
          "blockHash": "0x1480312222f214bbe9e7216d926edf1da23edd878d4fa82fca7ec785b20e2a42",
          "blockNumber": "0x2cb9855",
          "blockTimestamp": "0x69b945a1",
          "transactionHash": "0x78bff61abdbc210ab964b72f86d71d59a73167e4a674bba7e2c3df8f6ce7c6b9",
          "transactionIndex": "0x3",
          "logIndex": "0x1",
          "removed": false
        }
      ],
      "logsBloom": "0x00000000000000000000000000000000000000000000000000000000000000000000000000000000000000000000000000000000000000000000000000000000000000000000000000000008000000000000000000000000000000000000000000000000020000000000000000000800000000000000020000000010000000000000000000000000800000000000000000000000000000000000000000000000000000000000000000000000000000000000000000000000000000000000000000800002000000000000000000000000000000000000000000000000400020000000000000000000000000000000000004000000000000000000000000080000",
      "type": "0x0",
      "transactionHash": "0x78bff61abdbc210ab964b72f86d71d59a73167e4a674bba7e2c3df8f6ce7c6b9",
      "transactionIndex": "0x3",
      "blockHash": "0x1480312222f214bbe9e7216d926edf1da23edd878d4fa82fca7ec785b20e2a42",
      "blockNumber": "0x2cb9855",
      "gasUsed": "0x9fcbe",
      "effectiveGasPrice": "0x16e360",
      "blobGasUsed": "0xb0db0",
      "from": "0xc929959b439b6fc2eb53e7ceb602297ff3147146",
      "to": null,
      "contractAddress": "0x7ff28651365c735c22960e27c2afa97abe4cf2ad",
      "daFootprintGasScalar": "0x190",
      "l1BaseFeeScalar": "0x7d0",
      "l1BlobBaseFee": "0x180c9",
      "l1BlobBaseFeeScalar": "0xdbba0",
      "l1Fee": "0x992026b",
      "l1GasPrice": "0x1f",
      "l1GasUsed": "0x7131"
    },
    {
      "status": "0x1",
      "cumulativeGasUsed": "0x8bf35",
      "logs": [
        {
          "address": "0x73c56ddd816e356387caf740c804bb9d379be47e",
          "topics": [
            "0xddf252ad1be2c89b69c2b068fc378daa952ba7f163c4a11628f55a4df523b3ef",
            "0x0000000000000000000000000000000000000000000000000000000000000000",
            "0x000000000000000000000000c929959b439b6fc2eb53e7ceb602297ff3147146"
          ],
          "data": "0x000000000000000000000000000000000000000000084595161401484a000000",
          "blockHash": "0x87889334c6b805aa8bf9e354a19f5ccb750ea8d8161ad300dc69a4db57a960a5",
          "blockNumber": "0x2cb9857",
          "blockTimestamp": "0x69b945a3",
          "transactionHash": "0x6b1f341554447b1fe5e3101137b159087336b5d46d6e1de33a187d038bc12666",
          "transactionIndex": "0x7",
          "logIndex": "0x5",
          "removed": false
        }
      ],
      "logsBloom": "0x00000000000000000000000000000000000000000000000000000000000000000000000000000000200000000000000000000000000000000000000000000000000000000000000000000008000000000000000000000000001000000000000000000000020000000000000000000800000000000000020000000010000000008000000000000000800000000000000000000000000000000000000000000000000000000000000000000000000000000000000000000000000000000000000000000002000000000000000000000000000000000000000000000000000020000000000000000000000000000000000004000000000000000000000000000000",
      "type": "0x0",
      "transactionHash": "0x6b1f341554447b1fe5e3101137b159087336b5d46d6e1de33a187d038bc12666",
      "transactionIndex": "0x7",
      "blockHash": "0x87889334c6b805aa8bf9e354a19f5ccb750ea8d8161ad300dc69a4db57a960a5",
      "blockNumber": "0x2cb9857",
      "gasUsed": "0x8469",
      "effectiveGasPrice": "0x16e360",
      "blobGasUsed": "0x9c40",
      "from": "0xc929959b439b6fc2eb53e7ceb602297ff3147146",
      "to": "0x73c56ddd816e356387caf740c804bb9d379be47e",
      "contractAddress": null,
      "daFootprintGasScalar": "0x190",
      "l1BaseFeeScalar": "0x7d0",
      "l1BlobBaseFee": "0x180c9",
      "l1BlobBaseFeeScalar": "0xdbba0",
      "l1Fee": "0x87470d",
      "l1GasPrice": "0x1f",
      "l1GasUsed": "0x640"
    },
    {
      "status": "0x1",
      "cumulativeGasUsed": "0x2fe79",
      "logs": [
        {
          "address": "0x0e6f9cd4c00b05e3857ceea36ec7bea68fa7e7ed",
          "topics": [
            "0xddf252ad1be2c89b69c2b068fc378daa952ba7f163c4a11628f55a4df523b3ef",
            "0x0000000000000000000000000000000000000000000000000000000000000000",
            "0x000000000000000000000000c929959b439b6fc2eb53e7ceb602297ff3147146"
          ],
          "data": "0x000000000000000000000000000000000000000000084595161401484a000000",
          "blockHash": "0xd7494dbfff7a7e474c4ba5688db9fe717b8f4ff6b38a10f5a99843abaa6033a2",
          "blockNumber": "0x2cb9859",
          "blockTimestamp": "0x69b945a5",
          "transactionHash": "0x2dd7b79f0da06aa97e30fbd13455a589a4559d4bbc7ba11e5fa488e2913e515c",
          "transactionIndex": "0x3",
          "logIndex": "0x1",
          "removed": false
        }
      ],
      "logsBloom": "0x00000000000000000000000000000000000000000000000000000000000000000000000000000000000000000000000000200000000000000000000000000000000000000000000000000008000100000000000000000000000000000000000000000000020000000000000000000800000000000000020000000010000000000000000000000000800000000000000000000000000000000000000000000000100000000000000000000000000000000000000000000000000000000000000000000002000000000000000000000000000000000000000000000000000020000000000000000000000000000000000004000000000000000000000000000000",
      "type": "0x0",
      "transactionHash": "0x2dd7b79f0da06aa97e30fbd13455a589a4559d4bbc7ba11e5fa488e2913e515c",
      "transactionIndex": "0x3",
      "blockHash": "0xd7494dbfff7a7e474c4ba5688db9fe717b8f4ff6b38a10f5a99843abaa6033a2",
      "blockNumber": "0x2cb9859",
      "gasUsed": "0x8469",
      "effectiveGasPrice": "0x16e360",
      "blobGasUsed": "0x9c40",
      "from": "0xc929959b439b6fc2eb53e7ceb602297ff3147146",
      "to": "0x0e6f9cd4c00b05e3857ceea36ec7bea68fa7e7ed",
      "contractAddress": null,
      "daFootprintGasScalar": "0x190",
      "l1BaseFeeScalar": "0x7d0",
      "l1BlobBaseFee": "0x180c9",
      "l1BlobBaseFeeScalar": "0xdbba0",
      "l1Fee": "0x87470d",
      "l1GasPrice": "0x1f",
      "l1GasUsed": "0x640"
    },
    {
      "status": "0x1",
      "cumulativeGasUsed": "0x8bf1d",
      "logs": [
        {
          "address": "0x8508a009da4bd177d1aeeec00cba64f4316bbd2b",
          "topics": [
            "0xddf252ad1be2c89b69c2b068fc378daa952ba7f163c4a11628f55a4df523b3ef",
            "0x0000000000000000000000000000000000000000000000000000000000000000",
            "0x000000000000000000000000c929959b439b6fc2eb53e7ceb602297ff3147146"
          ],
          "data": "0x00000000000000000000000000000000000000000000003635c9adc5dea00000",
          "blockHash": "0x7364e44282ba4de4f42cfd45ece32213f85cbf17a577b507e6a262f62875e714",
          "blockNumber": "0x2cb985b",
          "blockTimestamp": "0x69b945a7",
          "transactionHash": "0xe13e8229f26c36e7b6d227138b081ec11b7d483703eddb1277792fdeef6190e4",
          "transactionIndex": "0x7",
          "logIndex": "0x5",
          "removed": false
        }
      ],
      "logsBloom": "0x00000000000000000000000004000000000000000000000000000000000000000000000000000000000000000000000000000000000000000000000000000000000000000000000000000008000000000000000000000000000000000000000000000000020000000000000000000800000000000000020000000010000000000000000000000000800000000000000000000000000000000000000000000000000000000000000000000000000000000000000000000000000000000000000000000802000000000000000000000000000000040000000000000000000020000000000000000000000000000000000004000000000000000000000000000000",
      "type": "0x0",
      "transactionHash": "0xe13e8229f26c36e7b6d227138b081ec11b7d483703eddb1277792fdeef6190e4",
      "transactionIndex": "0x7",
      "blockHash": "0x7364e44282ba4de4f42cfd45ece32213f85cbf17a577b507e6a262f62875e714",
      "blockNumber": "0x2cb985b",
      "gasUsed": "0x845d",
      "effectiveGasPrice": "0x16e360",
      "blobGasUsed": "0x9c40",
      "from": "0xc929959b439b6fc2eb53e7ceb602297ff3147146",
      "to": "0x8508a009da4bd177d1aeeec00cba64f4316bbd2b",
      "contractAddress": null,
      "daFootprintGasScalar": "0x190",
      "l1BaseFeeScalar": "0x7d0",
      "l1BlobBaseFee": "0x180c9",
      "l1BlobBaseFeeScalar": "0xdbba0",
      "l1Fee": "0x87470d",
      "l1GasPrice": "0x1f",
      "l1GasUsed": "0x640"
    },
    {
      "status": "0x1",
      "cumulativeGasUsed": "0x1192cb",
      "logs": [
        {
          "address": "0x7ff28651365c735c22960e27c2afa97abe4cf2ad",
          "topics": [
            "0xddf252ad1be2c89b69c2b068fc378daa952ba7f163c4a11628f55a4df523b3ef",
            "0x0000000000000000000000000000000000000000000000000000000000000000",
            "0x000000000000000000000000c929959b439b6fc2eb53e7ceb602297ff3147146"
          ],
          "data": "0x00000000000000000000000000000000000000000000d3c21bcecceda1000000",
          "blockHash": "0x3217f3ab6798b289ebfbe9d28938e9838910bb07eb3ad619e4def060dbe8f51d",
          "blockNumber": "0x2cb985c",
          "blockTimestamp": "0x69b945a8",
          "transactionHash": "0xbf7a64e2a51adcf82fdd33daba2f9adb36be52766455d77b1c31c3c9f00c2621",
          "transactionIndex": "0x8",
          "logIndex": "0xe",
          "removed": false
        }
      ],
      "logsBloom": "0x00000000000000000000000000000000000000000000000000000000000000000000000000000000000000000000000000000000000000000000000000000000000000000000000000000008000000000000000000000000000000000000000000000000020000000000000000000800000000000000020000000010000000000000000000000000800000000000000000000000000000000000000000000000000000000000000000000000000000000000000000000000000000000000000000800002000000000000000000000000000000000000000000000000400020000000000000000000000000000000000004000000000000000000000000080000",
      "type": "0x0",
      "transactionHash": "0xbf7a64e2a51adcf82fdd33daba2f9adb36be52766455d77b1c31c3c9f00c2621",
      "transactionIndex": "0x8",
      "blockHash": "0x3217f3ab6798b289ebfbe9d28938e9838910bb07eb3ad619e4def060dbe8f51d",
      "blockNumber": "0x2cb985c",
      "gasUsed": "0x845d",
      "effectiveGasPrice": "0x16e360",
      "blobGasUsed": "0x9c40",
      "from": "0xc929959b439b6fc2eb53e7ceb602297ff3147146",
      "to": "0x7ff28651365c735c22960e27c2afa97abe4cf2ad",
      "contractAddress": null,
      "daFootprintGasScalar": "0x190",
      "l1BaseFeeScalar": "0x7d0",
      "l1BlobBaseFee": "0x180c9",
      "l1BlobBaseFeeScalar": "0xdbba0",
      "l1Fee": "0x87470d",
      "l1GasPrice": "0x1f",
      "l1GasUsed": "0x640"
    },
    {
      "status": "0x1",
      "cumulativeGasUsed": "0xf4098",
      "logs": [],
      "logsBloom": "0x00000000000000000000000000000000000000000000000000000000000000000000000000000000000000000000000000000000000000000000000000000000000000000000000000000000000000000000000000000000000000000000000000000000000000000000000000000000000000000000000000000000000000000000000000000000000000000000000000000000000000000000000000000000000000000000000000000000000000000000000000000000000000000000000000000000000000000000000000000000000000000000000000000000000000000000000000000000000000000000000000000000000000000000000000000000",
      "type": "0x0",
      "transactionHash": "0xce4ac451808c25c53a06f31322006a8343e7a6b366bb496cc60a33e62d7bb93a",
      "transactionIndex": "0x3",
      "blockHash": "0xdae589bbb89f0e2dd6e6f095b6b93acdc15dfd8ff25284a13c39d84570b3935b",
      "blockNumber": "0x2cb985f",
      "gasUsed": "0xcc6a0",
      "effectiveGasPrice": "0x16e360",
      "blobGasUsed": "0xb3e20",
      "from": "0xc929959b439b6fc2eb53e7ceb602297ff3147146",
      "to": null,
      "contractAddress": "0xb3926879cec1555efbc6c7b9c9bb6b6d40595e5b",
      "daFootprintGasScalar": "0x190",
      "l1BaseFeeScalar": "0x7d0",
      "l1BlobBaseFee": "0x180c9",
      "l1BlobBaseFeeScalar": "0xdbba0",
      "l1Fee": "0x9bd0297",
      "l1GasPrice": "0x1f",
      "l1GasUsed": "0x732e"
    },
    {
      "status": "0x1",
      "cumulativeGasUsed": "0x18cb65",
      "logs": [],
      "logsBloom": "0x00000000000000000000000000000000000000000000000000000000000000000000000000000000000000000000000000000000000000000000000000000000000000000000000000000000000000000000000000000000000000000000000000000000000000000000000000000000000000000000000000000000000000000000000000000000000000000000000000000000000000000000000000000000000000000000000000000000000000000000000000000000000000000000000000000000000000000000000000000000000000000000000000000000000000000000000000000000000000000000000000000000000000000000000000000000",
      "type": "0x0",
      "transactionHash": "0xdd1e5ff3e0e6073f802525d1e0c70712553f0f9de34c8288a4b5bc257627eb54",
      "transactionIndex": "0x3",
      "blockHash": "0x9f9c4f4e5d6037e4c1af2978337637fa9185a4c914dd66fef618a45f1bbefd07",
      "blockNumber": "0x2cb9862",
      "gasUsed": "0x1625a1",
      "effectiveGasPrice": "0x16e360",
      "blobGasUsed": "0x10a810",
      "from": "0xc929959b439b6fc2eb53e7ceb602297ff3147146",
      "to": null,
      "contractAddress": "0x75fb5aa45a57123a4a83e4ae3196629eca0d14e6",
      "daFootprintGasScalar": "0x190",
      "l1BaseFeeScalar": "0x7d0",
      "l1BlobBaseFee": "0x1a038",
      "l1BlobBaseFeeScalar": "0xdbba0",
      "l1Fee": "0xf9a244f",
      "l1GasPrice": "0x1d",
      "l1GasUsed": "0xaa99"
    },
    {
      "status": "0x1",
      "cumulativeGasUsed": "0xfa144",
      "logs": [
        {
          "address": "0x73c56ddd816e356387caf740c804bb9d379be47e",
          "topics": [
            "0x8c5be1e5ebec7d5bd14f71427d1e84f3dd0314c0f7b2291e5b200ac8c7c3b925",
            "0x000000000000000000000000c929959b439b6fc2eb53e7ceb602297ff3147146",
            "0x000000000000000000000000b3926879cec1555efbc6c7b9c9bb6b6d40595e5b"
          ],
          "data": "0xffffffffffffffffffffffffffffffffffffffffffffffffffffffffffffffff",
          "blockHash": "0x013e6539c8fab12b4fee25802c0b252ad0fe778033fa33755bba1f2af5968092",
          "blockNumber": "0x2cb9864",
          "blockTimestamp": "0x69b945b0",
          "transactionHash": "0xbfaa45483e0d2c2bd88917d5da4bcff28e8293f5077fc6cad203376b7b7d4ca6",
          "transactionIndex": "0x7",
          "logIndex": "0xd",
          "removed": false
        }
      ],
      "logsBloom": "0x00000000000000000000000000000000000000000000000000000000000000000000000000000000200000000000000000000000000000000000000000200000000000000000000000000000000000000000000000000000001000000000000000000000000000000000000000000000000000000000020000000000000000008000000000000000800000000000000000000000000000001000000000000000020000000000000000000000000000000000000000000000000000000000000000000000000000000000000000000000000000000000000000000000400000000010200000000000000000000000000004000000000000000000000000000000",
      "type": "0x0",
      "transactionHash": "0xbfaa45483e0d2c2bd88917d5da4bcff28e8293f5077fc6cad203376b7b7d4ca6",
      "transactionIndex": "0x7",
      "blockHash": "0x013e6539c8fab12b4fee25802c0b252ad0fe778033fa33755bba1f2af5968092",
      "blockNumber": "0x2cb9864",
      "gasUsed": "0xb4a5",
      "effectiveGasPrice": "0x16e360",
      "blobGasUsed": "0x9c40",
      "from": "0xc929959b439b6fc2eb53e7ceb602297ff3147146",
      "to": "0x73c56ddd816e356387caf740c804bb9d379be47e",
      "contractAddress": null,
      "daFootprintGasScalar": "0x190",
      "l1BaseFeeScalar": "0x7d0",
      "l1BlobBaseFee": "0x1a038",
      "l1BlobBaseFeeScalar": "0xdbba0",
      "l1Fee": "0x92540c",
      "l1GasPrice": "0x1d",
      "l1GasUsed": "0x640"
    },
    {
      "status": "0x1",
      "cumulativeGasUsed": "0x77f4b",
      "logs": [
        {
          "address": "0x0e6f9cd4c00b05e3857ceea36ec7bea68fa7e7ed",
          "topics": [
            "0x8c5be1e5ebec7d5bd14f71427d1e84f3dd0314c0f7b2291e5b200ac8c7c3b925",
            "0x000000000000000000000000c929959b439b6fc2eb53e7ceb602297ff3147146",
            "0x000000000000000000000000b3926879cec1555efbc6c7b9c9bb6b6d40595e5b"
          ],
          "data": "0xffffffffffffffffffffffffffffffffffffffffffffffffffffffffffffffff",
          "blockHash": "0x3a7ea7fc7bc212e18ac735f9d52dc3f9e4d5f44e2d82c63c8a945ed96103f0a1",
          "blockNumber": "0x2cb9866",
          "blockTimestamp": "0x69b945b2",
          "transactionHash": "0x40148ccb2b16d2b7d28e174fa33f83157e393fe57e12e722a4a8355af481bdb2",
          "transactionIndex": "0x6",
          "logIndex": "0x4",
          "removed": false
        }
      ],
      "logsBloom": "0x00000000000000000000000000000000000000000000000000000000000000000000000000000000000000000000000000200000000000000000000000200000000000000000000000000000000100000000000000000000000000000000000000000000000000000000000000000000000000000000020000000000000000000000000000000000800000000000000000000000000000001000000000000000120000000000000000000000000000000000000000000000000000000000000000000000000000000000000000000000000000000000000000000000400000000010200000000000000000000000000004000000000000000000000000000000",
      "type": "0x0",
      "transactionHash": "0x40148ccb2b16d2b7d28e174fa33f83157e393fe57e12e722a4a8355af481bdb2",
      "transactionIndex": "0x6",
      "blockHash": "0x3a7ea7fc7bc212e18ac735f9d52dc3f9e4d5f44e2d82c63c8a945ed96103f0a1",
      "blockNumber": "0x2cb9866",
      "gasUsed": "0xb4a5",
      "effectiveGasPrice": "0x16e360",
      "blobGasUsed": "0x9c40",
      "from": "0xc929959b439b6fc2eb53e7ceb602297ff3147146",
      "to": "0x0e6f9cd4c00b05e3857ceea36ec7bea68fa7e7ed",
      "contractAddress": null,
      "daFootprintGasScalar": "0x190",
      "l1BaseFeeScalar": "0x7d0",
      "l1BlobBaseFee": "0x1a038",
      "l1BlobBaseFeeScalar": "0xdbba0",
      "l1Fee": "0x92540c",
      "l1GasPrice": "0x1d",
      "l1GasUsed": "0x640"
    },
    {
      "status": "0x1",
      "cumulativeGasUsed": "0x91ad1",
      "logs": [
        {
          "address": "0x8508a009da4bd177d1aeeec00cba64f4316bbd2b",
          "topics": [
            "0x8c5be1e5ebec7d5bd14f71427d1e84f3dd0314c0f7b2291e5b200ac8c7c3b925",
            "0x000000000000000000000000c929959b439b6fc2eb53e7ceb602297ff3147146",
            "0x000000000000000000000000b3926879cec1555efbc6c7b9c9bb6b6d40595e5b"
          ],
          "data": "0xffffffffffffffffffffffffffffffffffffffffffffffffffffffffffffffff",
          "blockHash": "0x43a0c6ac2c6ca18f62f9a72c1882c7746c1fc059bb00320c98d7f7aee2a8814a",
          "blockNumber": "0x2cb9868",
          "blockTimestamp": "0x69b945b4",
          "transactionHash": "0x88fb389c3eff67153b227dfab87fb3fdabdd9595114321f54a4c8731a3960c29",
          "transactionIndex": "0x7",
          "logIndex": "0x5",
          "removed": false
        }
      ],
      "logsBloom": "0x00000000000000000000000004000000000000000000000000000000000000000000000000000000000000000000000000000000000000000000000000200000000000000000000000000000000000000000000000000000000000000000000000000000000000000000000000000000000000000000020000000000000000000000000000000000800000000000000000000000000000001000000000000000020000000000000000000000000000000000000000000000000000000000000000000800000000000000000000000000000000040000000000000000400000000010200000000000000000000000000004000000000000000000000000000000",
      "type": "0x0",
      "transactionHash": "0x88fb389c3eff67153b227dfab87fb3fdabdd9595114321f54a4c8731a3960c29",
      "transactionIndex": "0x7",
      "blockHash": "0x43a0c6ac2c6ca18f62f9a72c1882c7746c1fc059bb00320c98d7f7aee2a8814a",
      "blockNumber": "0x2cb9868",
      "gasUsed": "0xb4a5",
      "effectiveGasPrice": "0x16e360",
      "blobGasUsed": "0x9c40",
      "from": "0xc929959b439b6fc2eb53e7ceb602297ff3147146",
      "to": "0x8508a009da4bd177d1aeeec00cba64f4316bbd2b",
      "contractAddress": null,
      "daFootprintGasScalar": "0x190",
      "l1BaseFeeScalar": "0x7d0",
      "l1BlobBaseFee": "0x1c238",
      "l1BlobBaseFeeScalar": "0xdbba0",
      "l1Fee": "0x9e4810",
      "l1GasPrice": "0x1e",
      "l1GasUsed": "0x640"
    },
    {
      "status": "0x1",
      "cumulativeGasUsed": "0x32e91",
      "logs": [
        {
          "address": "0x7ff28651365c735c22960e27c2afa97abe4cf2ad",
          "topics": [
            "0x8c5be1e5ebec7d5bd14f71427d1e84f3dd0314c0f7b2291e5b200ac8c7c3b925",
            "0x000000000000000000000000c929959b439b6fc2eb53e7ceb602297ff3147146",
            "0x000000000000000000000000b3926879cec1555efbc6c7b9c9bb6b6d40595e5b"
          ],
          "data": "0xffffffffffffffffffffffffffffffffffffffffffffffffffffffffffffffff",
          "blockHash": "0x8e5d6bd002536f34db34b5752faa591d62f1241186c8abcce29401ae92c9b477",
          "blockNumber": "0x2cb986b",
          "blockTimestamp": "0x69b945b7",
          "transactionHash": "0x70b1a7220afed7826fc714a72004162faebcac60400bad8b57c4c7e59a18ef28",
          "transactionIndex": "0x3",
          "logIndex": "0x1",
          "removed": false
        }
      ],
      "logsBloom": "0x00000000000000000000000000000000000000000000000000000000000000000000000000000000000000000000000000000000000000000000000000200000000000000000000000000000000000000000000000000000000000000000000000000000000000000000000000000000000000000000020000000000000000000000000000000000800000000000000000000000000000001000000000000000020000000000000000000000000000000000000000000000000000000000000000800000000000000000000000000000000000000000000000000000400000000010200000000000000000000000000004000000000000000000000000080000",
      "type": "0x0",
      "transactionHash": "0x70b1a7220afed7826fc714a72004162faebcac60400bad8b57c4c7e59a18ef28",
      "transactionIndex": "0x3",
      "blockHash": "0x8e5d6bd002536f34db34b5752faa591d62f1241186c8abcce29401ae92c9b477",
      "blockNumber": "0x2cb986b",
      "gasUsed": "0xb4a5",
      "effectiveGasPrice": "0x16e360",
      "blobGasUsed": "0x9c40",
      "from": "0xc929959b439b6fc2eb53e7ceb602297ff3147146",
      "to": "0x7ff28651365c735c22960e27c2afa97abe4cf2ad",
      "contractAddress": null,
      "daFootprintGasScalar": "0x190",
      "l1BaseFeeScalar": "0x7d0",
      "l1BlobBaseFee": "0x1c238",
      "l1BlobBaseFeeScalar": "0xdbba0",
      "l1Fee": "0x9e4810",
      "l1GasPrice": "0x1e",
      "l1GasUsed": "0x640"
    },
    {
      "status": "0x1",
      "cumulativeGasUsed": "0x32e9d",
      "logs": [
        {
          "address": "0x73c56ddd816e356387caf740c804bb9d379be47e",
          "topics": [
            "0x8c5be1e5ebec7d5bd14f71427d1e84f3dd0314c0f7b2291e5b200ac8c7c3b925",
            "0x000000000000000000000000c929959b439b6fc2eb53e7ceb602297ff3147146",
            "0x00000000000000000000000075fb5aa45a57123a4a83e4ae3196629eca0d14e6"
          ],
          "data": "0xffffffffffffffffffffffffffffffffffffffffffffffffffffffffffffffff",
          "blockHash": "0xc41342590a41437c13b779414c0491b1c6d155e9c3550688933dd53757887b4b",
          "blockNumber": "0x2cb986e",
          "blockTimestamp": "0x69b945ba",
          "transactionHash": "0x3ee98430a275568439607e5afe23ff4c6588b7c0f902a6d9b707cf3f412434be",
          "transactionIndex": "0x3",
          "logIndex": "0x1",
          "removed": false
        }
      ],
      "logsBloom": "0x00800000000000000000000000000000000000000000000000000000000000000000000000000000200000000000000000000000000000000000000000200000000000000000000000000000000000000000000000000000001000000000000000000000000000000000000000000000000000000000020000000000000000008000000000000000800000000000000000000000000000000000000000000000020000000000080000000000080000000000000000000000000000000000000000000000000000000000000000000000000000000000000000000000000000000010000000000000000000000000000004000000000000000000000000000000",
      "type": "0x0",
      "transactionHash": "0x3ee98430a275568439607e5afe23ff4c6588b7c0f902a6d9b707cf3f412434be",
      "transactionIndex": "0x3",
      "blockHash": "0xc41342590a41437c13b779414c0491b1c6d155e9c3550688933dd53757887b4b",
      "blockNumber": "0x2cb986e",
      "gasUsed": "0xb4a5",
      "effectiveGasPrice": "0x16e360",
      "blobGasUsed": "0x9c40",
      "from": "0xc929959b439b6fc2eb53e7ceb602297ff3147146",
      "to": "0x73c56ddd816e356387caf740c804bb9d379be47e",
      "contractAddress": null,
      "daFootprintGasScalar": "0x190",
      "l1BaseFeeScalar": "0x7d0",
      "l1BlobBaseFee": "0x1c238",
      "l1BlobBaseFeeScalar": "0xdbba0",
      "l1Fee": "0x9e4810",
      "l1GasPrice": "0x1e",
      "l1GasUsed": "0x640"
    },
    {
      "status": "0x1",
      "cumulativeGasUsed": "0x77f0f",
      "logs": [
        {
          "address": "0x0e6f9cd4c00b05e3857ceea36ec7bea68fa7e7ed",
          "topics": [
            "0x8c5be1e5ebec7d5bd14f71427d1e84f3dd0314c0f7b2291e5b200ac8c7c3b925",
            "0x000000000000000000000000c929959b439b6fc2eb53e7ceb602297ff3147146",
            "0x00000000000000000000000075fb5aa45a57123a4a83e4ae3196629eca0d14e6"
          ],
          "data": "0xffffffffffffffffffffffffffffffffffffffffffffffffffffffffffffffff",
          "blockHash": "0x5835d81fb7a2d3a2e194c33d996e3b5f44cc540c573138fbd021f843be74fc14",
          "blockNumber": "0x2cb9870",
          "blockTimestamp": "0x69b945bc",
          "transactionHash": "0x80f1763829ce816dd7f71528a9c857e2b0847c568ebaaf074c33584c39017c1b",
          "transactionIndex": "0x6",
          "logIndex": "0x4",
          "removed": false
        }
      ],
      "logsBloom": "0x00800000000000000000000000000000000000000000000000000000000000000000000000000000000000000000000000200000000000000000000000200000000000000000000000000000000100000000000000000000000000000000000000000000000000000000000000000000000000000000020000000000000000000000000000000000800000000000000000000000000000000000000000000000120000000000080000000000080000000000000000000000000000000000000000000000000000000000000000000000000000000000000000000000000000000010000000000000000000000000000004000000000000000000000000000000",
      "type": "0x0",
      "transactionHash": "0x80f1763829ce816dd7f71528a9c857e2b0847c568ebaaf074c33584c39017c1b",
      "transactionIndex": "0x6",
      "blockHash": "0x5835d81fb7a2d3a2e194c33d996e3b5f44cc540c573138fbd021f843be74fc14",
      "blockNumber": "0x2cb9870",
      "gasUsed": "0xb4a5",
      "effectiveGasPrice": "0x16e360",
      "blobGasUsed": "0x9c40",
      "from": "0xc929959b439b6fc2eb53e7ceb602297ff3147146",
      "to": "0x0e6f9cd4c00b05e3857ceea36ec7bea68fa7e7ed",
      "contractAddress": null,
      "daFootprintGasScalar": "0x190",
      "l1BaseFeeScalar": "0x7d0",
      "l1BlobBaseFee": "0x1c238",
      "l1BlobBaseFeeScalar": "0xdbba0",
      "l1Fee": "0x9e4810",
      "l1GasPrice": "0x1e",
      "l1GasUsed": "0x640"
    },
    {
      "status": "0x1",
      "cumulativeGasUsed": "0x77f03",
      "logs": [
        {
          "address": "0x8508a009da4bd177d1aeeec00cba64f4316bbd2b",
          "topics": [
            "0x8c5be1e5ebec7d5bd14f71427d1e84f3dd0314c0f7b2291e5b200ac8c7c3b925",
            "0x000000000000000000000000c929959b439b6fc2eb53e7ceb602297ff3147146",
            "0x00000000000000000000000075fb5aa45a57123a4a83e4ae3196629eca0d14e6"
          ],
          "data": "0xffffffffffffffffffffffffffffffffffffffffffffffffffffffffffffffff",
          "blockHash": "0x17a890d77967dc97000e15a99eb6f55de6ff91670e86f404ffeec481bbab9931",
          "blockNumber": "0x2cb9871",
          "blockTimestamp": "0x69b945bd",
          "transactionHash": "0xd3c865ed1bb68bce5461cd923881d2421bbcee0fe91b0568a9a221cdae5f4779",
          "transactionIndex": "0x6",
          "logIndex": "0x4",
          "removed": false
        }
      ],
      "logsBloom": "0x00800000000000000000000004000000000000000000000000000000000000000000000000000000000000000000000000000000000000000000000000200000000000000000000000000000000000000000000000000000000000000000000000000000000000000000000000000000000000000000020000000000000000000000000000000000800000000000000000000000000000000000000000000000020000000000080000000000080000000000000000000000000000000000000000000800000000000000000000000000000000040000000000000000000000000010000000000000000000000000000004000000000000000000000000000000",
      "type": "0x0",
      "transactionHash": "0xd3c865ed1bb68bce5461cd923881d2421bbcee0fe91b0568a9a221cdae5f4779",
      "transactionIndex": "0x6",
      "blockHash": "0x17a890d77967dc97000e15a99eb6f55de6ff91670e86f404ffeec481bbab9931",
      "blockNumber": "0x2cb9871",
      "gasUsed": "0xb4a5",
      "effectiveGasPrice": "0x16e360",
      "blobGasUsed": "0x9c40",
      "from": "0xc929959b439b6fc2eb53e7ceb602297ff3147146",
      "to": "0x8508a009da4bd177d1aeeec00cba64f4316bbd2b",
      "contractAddress": null,
      "daFootprintGasScalar": "0x190",
      "l1BaseFeeScalar": "0x7d0",
      "l1BlobBaseFee": "0x1c238",
      "l1BlobBaseFeeScalar": "0xdbba0",
      "l1Fee": "0x9e4810",
      "l1GasPrice": "0x1e",
      "l1GasUsed": "0x640"
    },
    {
      "status": "0x1",
      "cumulativeGasUsed": "0x8eef9",
      "logs": [
        {
          "address": "0x7ff28651365c735c22960e27c2afa97abe4cf2ad",
          "topics": [
            "0x8c5be1e5ebec7d5bd14f71427d1e84f3dd0314c0f7b2291e5b200ac8c7c3b925",
            "0x000000000000000000000000c929959b439b6fc2eb53e7ceb602297ff3147146",
            "0x00000000000000000000000075fb5aa45a57123a4a83e4ae3196629eca0d14e6"
          ],
          "data": "0xffffffffffffffffffffffffffffffffffffffffffffffffffffffffffffffff",
          "blockHash": "0xae5805c746c4a0cbc7940867b0933a88fadf3899642f860e267708e927d4f636",
          "blockNumber": "0x2cb9872",
          "blockTimestamp": "0x69b945be",
          "transactionHash": "0x405ddb4a2cf47b9a5a1736d0bfa8a5307cb4115ca1d507506ca63311b8d31821",
          "transactionIndex": "0x7",
          "logIndex": "0x5",
          "removed": false
        }
      ],
      "logsBloom": "0x00800000000000000000000000000000000000000000000000000000000000000000000000000000000000000000000000000000000000000000000000200000000000000000000000000000000000000000000000000000000000000000000000000000000000000000000000000000000000000000020000000000000000000000000000000000800000000000000000000000000000000000000000000000020000000000080000000000080000000000000000000000000000000000000000800000000000000000000000000000000000000000000000000000400000000010000000000000000000000000000004000000000000000000000000080000",
      "type": "0x0",
      "transactionHash": "0x405ddb4a2cf47b9a5a1736d0bfa8a5307cb4115ca1d507506ca63311b8d31821",
      "transactionIndex": "0x7",
      "blockHash": "0xae5805c746c4a0cbc7940867b0933a88fadf3899642f860e267708e927d4f636",
      "blockNumber": "0x2cb9872",
      "gasUsed": "0xb4a5",
      "effectiveGasPrice": "0x16e360",
      "blobGasUsed": "0x9c40",
      "from": "0xc929959b439b6fc2eb53e7ceb602297ff3147146",
      "to": "0x7ff28651365c735c22960e27c2afa97abe4cf2ad",
      "contractAddress": null,
      "daFootprintGasScalar": "0x190",
      "l1BaseFeeScalar": "0x7d0",
      "l1BlobBaseFee": "0x1c238",
      "l1BlobBaseFeeScalar": "0xdbba0",
      "l1Fee": "0x9e4810",
      "l1GasPrice": "0x1e",
      "l1GasUsed": "0x640"
    },
    {
      "status": "0x1",
      "cumulativeGasUsed": "0xcb69d",
      "logs": [
        {
          "address": "0x00b036b58a818b1bc34d502d3fe730db729e62ac",
          "topics": [
            "0xdd466e674ea557f56295e2d0218a125ea4b4f0f6f3307b95f85e6110838d6438",
            "0x7c94ec5a362c13203ac8b16c62e880e38851c05cf14f25a729a34765be561d53",
            "0x00000000000000000000000073c56ddd816e356387caf740c804bb9d379be47e",
            "0x0000000000000000000000008508a009da4bd177d1aeeec00cba64f4316bbd2b"
          ],
          "data": "0x0000000000000000000000000000000000000000000000000000000000000bb8000000000000000000000000000000000000000000000000000000000000003c00000000000000000000000078609bb14f0aef92b8f22559d18bac65de5740c0000000000000000000000000000000000000000000fb99aaa2c538b000000000fffffffffffffffffffffffffffffffffffffffffffffffffffffffffffe4d68",
          "blockHash": "0xac6b36ac1ffe0f9c2c45fdf6035660ad926dac0fef6b6df4d3b9698dbbf643b6",
          "blockNumber": "0x2cb9873",
          "blockTimestamp": "0x69b945bf",
          "transactionHash": "0x7508d9e14d723fd536d88d2e0708ea40a65596f703cf38e4e15a00b9b764539f",
          "transactionIndex": "0x9",
          "logIndex": "0xe",
          "removed": false
        }
      ],
      "logsBloom": "0x00000000000000000000000000000000000000000000000000000000000000000000000000000000000000000000000000000000000000000000000000000000000000000000800000040000000000000000000000000000000000000000000000000000000000000000002000000000000000000000000000000000000000000000000000000008000000000008000000000001000000000000000000200000000000400000000000000000000000000000000000000000000000000000000000000000000000000000000000000000008000000000000000000000000200000000000000000000000000000000000000000800000002000010000800000010",
      "type": "0x0",
      "transactionHash": "0x7508d9e14d723fd536d88d2e0708ea40a65596f703cf38e4e15a00b9b764539f",
      "transactionIndex": "0x9",
      "blockHash": "0xac6b36ac1ffe0f9c2c45fdf6035660ad926dac0fef6b6df4d3b9698dbbf643b6",
      "blockNumber": "0x2cb9873",
      "gasUsed": "0xcb6d",
      "effectiveGasPrice": "0x16e360",
      "blobGasUsed": "0xdac0",
      "from": "0xc929959b439b6fc2eb53e7ceb602297ff3147146",
      "to": "0x00b036b58a818b1bc34d502d3fe730db729e62ac",
      "contractAddress": null,
      "daFootprintGasScalar": "0x190",
      "l1BaseFeeScalar": "0x7d0",
      "l1BlobBaseFee": "0x1c238",
      "l1BlobBaseFeeScalar": "0xdbba0",
      "l1Fee": "0xde8e68",
      "l1GasPrice": "0x1e",
      "l1GasUsed": "0x8c9"
    },
    {
      "status": "0x1",
      "cumulativeGasUsed": "0x6be19",
      "logs": [
        {
          "address": "0x00b036b58a818b1bc34d502d3fe730db729e62ac",
          "topics": [
            "0xf208f4912782fd25c7f114ca3723a2d5dd6f3bcc3ac8db5af63baa85f711d5ec",
            "0x7c94ec5a362c13203ac8b16c62e880e38851c05cf14f25a729a34765be561d53",
            "0x000000000000000000000000b3926879cec1555efbc6c7b9c9bb6b6d40595e5b"
          ],
          "data": "0xfffffffffffffffffffffffffffffffffffffffffffffffffffffffffff2764c00000000000000000000000000000000000000000000000000000000000d89b4000000000000000000000000000000000000000000000000354747051996f3860000000000000000000000000000000000000000000000000000000000000000",
          "blockHash": "0xfee7dc7528af9ece12e92d6864e6011ce3e8a62e0d27befd9e692cc9a2ca1a90",
          "blockNumber": "0x2cb9876",
          "blockTimestamp": "0x69b945c2",
          "transactionHash": "0xbe82c5a6034a828dcfd5214d25d7e768b59cdf96012e076a1f6a5b030082164f",
          "transactionIndex": "0x3",
          "logIndex": "0x1",
          "removed": false
        },
        {
          "address": "0x73c56ddd816e356387caf740c804bb9d379be47e",
          "topics": [
            "0xddf252ad1be2c89b69c2b068fc378daa952ba7f163c4a11628f55a4df523b3ef",
            "0x000000000000000000000000c929959b439b6fc2eb53e7ceb602297ff3147146",
            "0x00000000000000000000000000b036b58a818b1bc34d502d3fe730db729e62ac"
          ],
          "data": "0x00000000000000000000000000000000000000000000003635c9adc5de9fff7f",
          "blockHash": "0xfee7dc7528af9ece12e92d6864e6011ce3e8a62e0d27befd9e692cc9a2ca1a90",
          "blockNumber": "0x2cb9876",
          "blockTimestamp": "0x69b945c2",
          "transactionHash": "0xbe82c5a6034a828dcfd5214d25d7e768b59cdf96012e076a1f6a5b030082164f",
          "transactionIndex": "0x3",
          "logIndex": "0x2",
          "removed": false
        },
        {
          "address": "0x8508a009da4bd177d1aeeec00cba64f4316bbd2b",
          "topics": [
            "0xddf252ad1be2c89b69c2b068fc378daa952ba7f163c4a11628f55a4df523b3ef",
            "0x000000000000000000000000c929959b439b6fc2eb53e7ceb602297ff3147146",
            "0x00000000000000000000000000b036b58a818b1bc34d502d3fe730db729e62ac"
          ],
          "data": "0x00000000000000000000000000000000000000000000000000345cddbea77346",
          "blockHash": "0xfee7dc7528af9ece12e92d6864e6011ce3e8a62e0d27befd9e692cc9a2ca1a90",
          "blockNumber": "0x2cb9876",
          "blockTimestamp": "0x69b945c2",
          "transactionHash": "0xbe82c5a6034a828dcfd5214d25d7e768b59cdf96012e076a1f6a5b030082164f",
          "transactionIndex": "0x3",
          "logIndex": "0x3",
          "removed": false
        }
      ],
      "logsBloom": "0x00000000000000000000000004000000000000000000000000000000000000000000000000000000200000000000000000000000001000000000000000000000000000000000000000000008000000000000000000000000001000000000000000000000000000000000002000004000000000000000020000000010000000008000000001000000800000000008000000000000000000001000000000000000000004000000000000000000000000000000000000000020000000000000000000000802000000000000000000000000008000040000000000000000400000000000200000000000000000000000000004000800000002000000000000000010",
      "type": "0x0",
      "transactionHash": "0xbe82c5a6034a828dcfd5214d25d7e768b59cdf96012e076a1f6a5b030082164f",
      "transactionIndex": "0x3",
      "blockHash": "0xfee7dc7528af9ece12e92d6864e6011ce3e8a62e0d27befd9e692cc9a2ca1a90",
      "blockNumber": "0x2cb9876",
      "gasUsed": "0x44421",
      "effectiveGasPrice": "0x16e360",
      "blobGasUsed": "0xf870",
      "from": "0xc929959b439b6fc2eb53e7ceb602297ff3147146",
      "to": "0xb3926879cec1555efbc6c7b9c9bb6b6d40595e5b",
      "contractAddress": null,
      "daFootprintGasScalar": "0x190",
      "l1BaseFeeScalar": "0x7d0",
      "l1BlobBaseFee": "0x1c238",
      "l1BlobBaseFeeScalar": "0xdbba0",
      "l1Fee": "0xfbaf50",
      "l1GasPrice": "0x1e",
      "l1GasUsed": "0x9f0"
    },
    {
      "status": "0x1",
      "cumulativeGasUsed": "0x34565",
      "logs": [
        {
          "address": "0x00b036b58a818b1bc34d502d3fe730db729e62ac",
          "topics": [
            "0xdd466e674ea557f56295e2d0218a125ea4b4f0f6f3307b95f85e6110838d6438",
            "0x874705901c8ba6e2356001a47ed48198f13c4e051112e56d083930f530fb45d0",
            "0x0000000000000000000000000e6f9cd4c00b05e3857ceea36ec7bea68fa7e7ed",
            "0x0000000000000000000000008508a009da4bd177d1aeeec00cba64f4316bbd2b"
          ],
          "data": "0x0000000000000000000000000000000000000000000000000000000000000bb8000000000000000000000000000000000000000000000000000000000000003c00000000000000000000000078609bb14f0aef92b8f22559d18bac65de5740c0000000000000000000000000000000000000000000fb99aaa2c538b000000000fffffffffffffffffffffffffffffffffffffffffffffffffffffffffffe4d68",
          "blockHash": "0xdb0af4f83eff8f6e35c498307237e26cd195aefcae1a8a09f515562516a1ce50",
          "blockNumber": "0x2cb9879",
          "blockTimestamp": "0x69b945c5",
          "transactionHash": "0xb9f5aae7f66a9450c63f2aca1f21e5eb9002b3f90562e2a3234527a77ac4b1ab",
          "transactionIndex": "0x3",
          "logIndex": "0x1",
          "removed": false
        }
      ],
      "logsBloom": "0x00000000000000000000000000000000000000000000000000000000000000000000000000000000000000000000000000000000000000000000000000000000000000000000000000040000000800000000000000000000000000000000000000000000000000000000000000000000000000000000000000000000000000000004000000000008000000000008000000000001000000000000000000200000000000400000000000000000000000000000000000000000000000000000000000000080000000000000000000000000000000000000000000000000000000000000100000000000000800000000000000000000000002000010010000000010",
      "type": "0x0",
      "transactionHash": "0xb9f5aae7f66a9450c63f2aca1f21e5eb9002b3f90562e2a3234527a77ac4b1ab",
      "transactionIndex": "0x3",
      "blockHash": "0xdb0af4f83eff8f6e35c498307237e26cd195aefcae1a8a09f515562516a1ce50",
      "blockNumber": "0x2cb9879",
      "gasUsed": "0xcb6d",
      "effectiveGasPrice": "0x16e360",
      "blobGasUsed": "0xdac0",
      "from": "0xc929959b439b6fc2eb53e7ceb602297ff3147146",
      "to": "0x00b036b58a818b1bc34d502d3fe730db729e62ac",
      "contractAddress": null,
      "daFootprintGasScalar": "0x190",
      "l1BaseFeeScalar": "0x7d0",
      "l1BlobBaseFee": "0x1c238",
      "l1BlobBaseFeeScalar": "0xdbba0",
      "l1Fee": "0xde8e68",
      "l1GasPrice": "0x1e",
      "l1GasUsed": "0x8c9"
    },
    {
      "status": "0x1",
      "cumulativeGasUsed": "0x1355d5",
      "logs": [
        {
          "address": "0x00b036b58a818b1bc34d502d3fe730db729e62ac",
          "topics": [
            "0xf208f4912782fd25c7f114ca3723a2d5dd6f3bcc3ac8db5af63baa85f711d5ec",
            "0x874705901c8ba6e2356001a47ed48198f13c4e051112e56d083930f530fb45d0",
            "0x000000000000000000000000b3926879cec1555efbc6c7b9c9bb6b6d40595e5b"
          ],
          "data": "0xfffffffffffffffffffffffffffffffffffffffffffffffffffffffffff2764c00000000000000000000000000000000000000000000000000000000000d89b4000000000000000000000000000000000000000000000000354747051996f3860000000000000000000000000000000000000000000000000000000000000000",
          "blockHash": "0x4342eb4bc19eb4329417e54ee808a886160e07e454b91f5db30f27748c940be4",
          "blockNumber": "0x2cb987b",
          "blockTimestamp": "0x69b945c7",
          "transactionHash": "0x5f6510adbb91c9e2367c0bcd8ebc9fc8a8766756c421cab1117abc8256750809",
          "transactionIndex": "0x7",
          "logIndex": "0xb",
          "removed": false
        },
        {
          "address": "0x0e6f9cd4c00b05e3857ceea36ec7bea68fa7e7ed",
          "topics": [
            "0xddf252ad1be2c89b69c2b068fc378daa952ba7f163c4a11628f55a4df523b3ef",
            "0x000000000000000000000000c929959b439b6fc2eb53e7ceb602297ff3147146",
            "0x00000000000000000000000000b036b58a818b1bc34d502d3fe730db729e62ac"
          ],
          "data": "0x00000000000000000000000000000000000000000000003635c9adc5de9fff7f",
          "blockHash": "0x4342eb4bc19eb4329417e54ee808a886160e07e454b91f5db30f27748c940be4",
          "blockNumber": "0x2cb987b",
          "blockTimestamp": "0x69b945c7",
          "transactionHash": "0x5f6510adbb91c9e2367c0bcd8ebc9fc8a8766756c421cab1117abc8256750809",
          "transactionIndex": "0x7",
          "logIndex": "0xc",
          "removed": false
        },
        {
          "address": "0x8508a009da4bd177d1aeeec00cba64f4316bbd2b",
          "topics": [
            "0xddf252ad1be2c89b69c2b068fc378daa952ba7f163c4a11628f55a4df523b3ef",
            "0x000000000000000000000000c929959b439b6fc2eb53e7ceb602297ff3147146",
            "0x00000000000000000000000000b036b58a818b1bc34d502d3fe730db729e62ac"
          ],
          "data": "0x00000000000000000000000000000000000000000000000000345cddbea77346",
          "blockHash": "0x4342eb4bc19eb4329417e54ee808a886160e07e454b91f5db30f27748c940be4",
          "blockNumber": "0x2cb987b",
          "blockTimestamp": "0x69b945c7",
          "transactionHash": "0x5f6510adbb91c9e2367c0bcd8ebc9fc8a8766756c421cab1117abc8256750809",
          "transactionIndex": "0x7",
          "logIndex": "0xd",
          "removed": false
        }
      ],
      "logsBloom": "0x00000000000000000000000004000000000000000000000000000000000000000000000000000000000000000000000000200000001000000000000000000000000000000000000000000008000900000000000000000000000000000000000000000000000000000000000000004000000000000000020000000010000000000004000001000000800000000008000000000000000000001000000000000000100004000000000000000000000000000000000000000020000000000000000000000802000000000000000000000000000000040000000000000000400000000000200000000000000000000000000004000000000002000000010000000010",
      "type": "0x0",
      "transactionHash": "0x5f6510adbb91c9e2367c0bcd8ebc9fc8a8766756c421cab1117abc8256750809",
      "transactionIndex": "0x7",
      "blockHash": "0x4342eb4bc19eb4329417e54ee808a886160e07e454b91f5db30f27748c940be4",
      "blockNumber": "0x2cb987b",
      "gasUsed": "0x40155",
      "effectiveGasPrice": "0x16e360",
      "blobGasUsed": "0xf870",
      "from": "0xc929959b439b6fc2eb53e7ceb602297ff3147146",
      "to": "0xb3926879cec1555efbc6c7b9c9bb6b6d40595e5b",
      "contractAddress": null,
      "daFootprintGasScalar": "0x190",
      "l1BaseFeeScalar": "0x7d0",
      "l1BlobBaseFee": "0x18984",
      "l1BlobBaseFeeScalar": "0xdbba0",
      "l1Fee": "0xdbfc85",
      "l1GasPrice": "0x1d",
      "l1GasUsed": "0x9f0"
    },
    {
      "status": "0x1",
      "cumulativeGasUsed": "0x3441a",
      "logs": [
        {
          "address": "0x00b036b58a818b1bc34d502d3fe730db729e62ac",
          "topics": [
            "0xdd466e674ea557f56295e2d0218a125ea4b4f0f6f3307b95f85e6110838d6438",
            "0x0f3dfce1daf336a75e5fcdedc785a41d6c66192999bf0adbe5eebf9ceec6acd9",
            "0x0000000000000000000000000e6f9cd4c00b05e3857ceea36ec7bea68fa7e7ed",
            "0x00000000000000000000000073c56ddd816e356387caf740c804bb9d379be47e"
          ],
          "data": "0x00000000000000000000000000000000000000000000000000000000000001f4000000000000000000000000000000000000000000000000000000000000000a00000000000000000000000078609bb14f0aef92b8f22559d18bac65de5740c000000000000000000000000000000000000000010000000000000000000000000000000000000000000000000000000000000000000000000000000000000000",
          "blockHash": "0x778341cc0b4449686d2a8dcade3ae657a545a2b6322595d8523e0eae52a12ab3",
          "blockNumber": "0x2cb987e",
          "blockTimestamp": "0x69b945ca",
          "transactionHash": "0xd23d772c4cf325bb7cf97fc5d7deae989544e098647262474bd71c711eb214eb",
          "transactionIndex": "0x3",
          "logIndex": "0x1",
          "removed": false
        }
      ],
      "logsBloom": "0x00000000000000000000000000000000000000000000000000000000000000000000000000000000000000000000000000000040000000000000000000000000000000000000800000000000000000000000000000000000000000000000000000000000000000000000000000000000800000000000000000000000000000000000000000000008000000000008200000000001000000000000000000200000000000000000000000000000000000000000000000000000000000000000000000000080000000000000000000000000000000000000000000000000000200000000100000000000000800000000000000000000000002000000000800000010",
      "type": "0x0",
      "transactionHash": "0xd23d772c4cf325bb7cf97fc5d7deae989544e098647262474bd71c711eb214eb",
      "transactionIndex": "0x3",
      "blockHash": "0x778341cc0b4449686d2a8dcade3ae657a545a2b6322595d8523e0eae52a12ab3",
      "blockNumber": "0x2cb987e",
      "gasUsed": "0xca16",
      "effectiveGasPrice": "0x16e360",
      "blobGasUsed": "0xd610",
      "from": "0xc929959b439b6fc2eb53e7ceb602297ff3147146",
      "to": "0x00b036b58a818b1bc34d502d3fe730db729e62ac",
      "contractAddress": null,
      "daFootprintGasScalar": "0x190",
      "l1BaseFeeScalar": "0x7d0",
      "l1BlobBaseFee": "0x18984",
      "l1BlobBaseFeeScalar": "0xdbba0",
      "l1Fee": "0xbde5ba",
      "l1GasPrice": "0x1d",
      "l1GasUsed": "0x894"
    },
    {
      "status": "0x1",
      "cumulativeGasUsed": "0xbf94d",
      "logs": [
        {
          "address": "0x00b036b58a818b1bc34d502d3fe730db729e62ac",
          "topics": [
            "0xf208f4912782fd25c7f114ca3723a2d5dd6f3bcc3ac8db5af63baa85f711d5ec",
            "0x0f3dfce1daf336a75e5fcdedc785a41d6c66192999bf0adbe5eebf9ceec6acd9",
            "0x000000000000000000000000b3926879cec1555efbc6c7b9c9bb6b6d40595e5b"
          ],
          "data": "0xfffffffffffffffffffffffffffffffffffffffffffffffffffffffffff2761a00000000000000000000000000000000000000000000000000000000000d89e600000000000000000000000000000000000000000000003635c9adc5dea000000000000000000000000000000000000000000000000000000000000000000000",
          "blockHash": "0x860e61d23ddd072a35819975f972956719c0cfd84db97838e00b7fe689fb1b1e",
          "blockNumber": "0x2cb9880",
          "blockTimestamp": "0x69b945cc",
          "transactionHash": "0xc15795f8ed27476daab9ccf3d1cd8e18bced2bcebf95f957653000499c1cecef",
          "transactionIndex": "0x7",
          "logIndex": "0x5",
          "removed": false
        },
        {
          "address": "0x0e6f9cd4c00b05e3857ceea36ec7bea68fa7e7ed",
          "topics": [
            "0xddf252ad1be2c89b69c2b068fc378daa952ba7f163c4a11628f55a4df523b3ef",
            "0x000000000000000000000000c929959b439b6fc2eb53e7ceb602297ff3147146",
            "0x00000000000000000000000000b036b58a818b1bc34d502d3fe730db729e62ac"
          ],
          "data": "0x00000000000000000000000000000000000000000000003635c9adc5de9fffca",
          "blockHash": "0x860e61d23ddd072a35819975f972956719c0cfd84db97838e00b7fe689fb1b1e",
          "blockNumber": "0x2cb9880",
          "blockTimestamp": "0x69b945cc",
          "transactionHash": "0xc15795f8ed27476daab9ccf3d1cd8e18bced2bcebf95f957653000499c1cecef",
          "transactionIndex": "0x7",
          "logIndex": "0x6",
          "removed": false
        },
        {
          "address": "0x73c56ddd816e356387caf740c804bb9d379be47e",
          "topics": [
            "0xddf252ad1be2c89b69c2b068fc378daa952ba7f163c4a11628f55a4df523b3ef",
            "0x000000000000000000000000c929959b439b6fc2eb53e7ceb602297ff3147146",
            "0x00000000000000000000000000b036b58a818b1bc34d502d3fe730db729e62ac"
          ],
          "data": "0x00000000000000000000000000000000000000000000003635c9adc5de9fffca",
          "blockHash": "0x860e61d23ddd072a35819975f972956719c0cfd84db97838e00b7fe689fb1b1e",
          "blockNumber": "0x2cb9880",
          "blockTimestamp": "0x69b945cc",
          "transactionHash": "0xc15795f8ed27476daab9ccf3d1cd8e18bced2bcebf95f957653000499c1cecef",
          "transactionIndex": "0x7",
          "logIndex": "0x7",
          "removed": false
        }
      ],
      "logsBloom": "0x00000000000000000000000000000000000000000000000000000000000000000000000000000000200000000000000000200040001000000000000000000000000000000000000000000008000100000000000000000000001000000000000000000000000000000000000000004000800000000000020000000010000000008000000001000000800000000008200000000000000000001000000000000000100004000000000000000000000000000000000000000020000000000000000000000002000000000000000000000000000000000000000000000000400000000000200000000000000000000000000004000000000002000000000000000010",
      "type": "0x0",
      "transactionHash": "0xc15795f8ed27476daab9ccf3d1cd8e18bced2bcebf95f957653000499c1cecef",
      "transactionIndex": "0x7",
      "blockHash": "0x860e61d23ddd072a35819975f972956719c0cfd84db97838e00b7fe689fb1b1e",
      "blockNumber": "0x2cb9880",
      "gasUsed": "0x3bebd",
      "effectiveGasPrice": "0x16e360",
      "blobGasUsed": "0xf6e0",
      "from": "0xc929959b439b6fc2eb53e7ceb602297ff3147146",
      "to": "0xb3926879cec1555efbc6c7b9c9bb6b6d40595e5b",
      "contractAddress": null,
      "daFootprintGasScalar": "0x190",
      "l1BaseFeeScalar": "0x7d0",
      "l1BlobBaseFee": "0x18984",
      "l1BlobBaseFeeScalar": "0xdbba0",
      "l1Fee": "0xdad442",
      "l1GasPrice": "0x1d",
      "l1GasUsed": "0x9e2"
    },
    {
      "status": "0x1",
      "cumulativeGasUsed": "0x345c1",
      "logs": [
        {
          "address": "0x00b036b58a818b1bc34d502d3fe730db729e62ac",
          "topics": [
            "0xdd466e674ea557f56295e2d0218a125ea4b4f0f6f3307b95f85e6110838d6438",
            "0x8f4700bd8f563a94b2a57f2a7420c7cab1ad6fab4a82e105f6ad1d95e3f1b4b2",
            "0x00000000000000000000000073c56ddd816e356387caf740c804bb9d379be47e",
            "0x0000000000000000000000007ff28651365c735c22960e27c2afa97abe4cf2ad"
          ],
          "data": "0x0000000000000000000000000000000000000000000000000000000000000bb8000000000000000000000000000000000000000000000000000000000000003c00000000000000000000000078609bb14f0aef92b8f22559d18bac65de5740c0000000000000000000000000000000000000000000017726636ae6e77c629179fffffffffffffffffffffffffffffffffffffffffffffffffffffffffffcbb61",
          "blockHash": "0x66584b2782ad5e245c5e7049f88046f8b46335903e4f3705a69d7c8cac6bed71",
          "blockNumber": "0x2cb9882",
          "blockTimestamp": "0x69b945ce",
          "transactionHash": "0x96910dc3729370151b3d0978bc8b9a900699db498d7caf3f6d1e4032bd0945f4",
          "transactionIndex": "0x3",
          "logIndex": "0x1",
          "removed": false
        }
      ],
      "logsBloom": "0x00000000000000220000000000000000000000000000000000000000000000000000000000000000000000000000000000000000000000000000000000000000000000000000c00000000000000000000000000000000020000000008000000000000000000000000000000000000000000000000000000000000000000000000000000000000008000000000008000000000001000000000000000000200000000000000000000000000000000000000000000000000000000000400000000000000000000000000000000000000000000000000000000000000000000200000000000000000000000000000000000000000000000002000000000800000010",
      "type": "0x0",
      "transactionHash": "0x96910dc3729370151b3d0978bc8b9a900699db498d7caf3f6d1e4032bd0945f4",
      "transactionIndex": "0x3",
      "blockHash": "0x66584b2782ad5e245c5e7049f88046f8b46335903e4f3705a69d7c8cac6bed71",
      "blockNumber": "0x2cb9882",
      "gasUsed": "0xcbbd",
      "effectiveGasPrice": "0x16e360",
      "blobGasUsed": "0xdc50",
      "from": "0xc929959b439b6fc2eb53e7ceb602297ff3147146",
      "to": "0x00b036b58a818b1bc34d502d3fe730db729e62ac",
      "contractAddress": null,
      "daFootprintGasScalar": "0x190",
      "l1BaseFeeScalar": "0x7d0",
      "l1BlobBaseFee": "0x18984",
      "l1BlobBaseFeeScalar": "0xdbba0",
      "l1Fee": "0xc3af09",
      "l1GasPrice": "0x1d",
      "l1GasUsed": "0x8d7"
    },
    {
      "status": "0x1",
      "cumulativeGasUsed": "0xcb838",
      "logs": [
        {
          "address": "0x00b036b58a818b1bc34d502d3fe730db729e62ac",
          "topics": [
            "0xf208f4912782fd25c7f114ca3723a2d5dd6f3bcc3ac8db5af63baa85f711d5ec",
            "0x8f4700bd8f563a94b2a57f2a7420c7cab1ad6fab4a82e105f6ad1d95e3f1b4b2",
            "0x000000000000000000000000b3926879cec1555efbc6c7b9c9bb6b6d40595e5b"
          ],
          "data": "0xfffffffffffffffffffffffffffffffffffffffffffffffffffffffffff2764c00000000000000000000000000000000000000000000000000000000000d89b4000000000000000000000000000000000000000000000000354747051996f3860000000000000000000000000000000000000000000000000000000000000000",
          "blockHash": "0x37bc82c66d230605241853c934809e0e0e185d5208a1aebe014c66a6b5aaf356",
          "blockNumber": "0x2cb9884",
          "blockTimestamp": "0x69b945d0",
          "transactionHash": "0x4032bdf7512dcfe33ded649a83409d283e0abcd1f6d61ff484f446fa38c23ea8",
          "transactionIndex": "0x7",
          "logIndex": "0xb",
          "removed": false
        },
        {
          "address": "0x73c56ddd816e356387caf740c804bb9d379be47e",
          "topics": [
            "0xddf252ad1be2c89b69c2b068fc378daa952ba7f163c4a11628f55a4df523b3ef",
            "0x000000000000000000000000c929959b439b6fc2eb53e7ceb602297ff3147146",
            "0x00000000000000000000000000b036b58a818b1bc34d502d3fe730db729e62ac"
          ],
          "data": "0x00000000000000000000000000000000000000000000245b5bb5927782b4a240",
          "blockHash": "0x37bc82c66d230605241853c934809e0e0e185d5208a1aebe014c66a6b5aaf356",
          "blockNumber": "0x2cb9884",
          "blockTimestamp": "0x69b945d0",
          "transactionHash": "0x4032bdf7512dcfe33ded649a83409d283e0abcd1f6d61ff484f446fa38c23ea8",
          "transactionIndex": "0x7",
          "logIndex": "0xc",
          "removed": false
        },
        {
          "address": "0x7ff28651365c735c22960e27c2afa97abe4cf2ad",
          "topics": [
            "0xddf252ad1be2c89b69c2b068fc378daa952ba7f163c4a11628f55a4df523b3ef",
            "0x000000000000000000000000c929959b439b6fc2eb53e7ceb602297ff3147146",
            "0x00000000000000000000000000b036b58a818b1bc34d502d3fe730db729e62ac"
          ],
          "data": "0x00000000000000000000000000000000000000000000000000004e13664dd347",
          "blockHash": "0x37bc82c66d230605241853c934809e0e0e185d5208a1aebe014c66a6b5aaf356",
          "blockNumber": "0x2cb9884",
          "blockTimestamp": "0x69b945d0",
          "transactionHash": "0x4032bdf7512dcfe33ded649a83409d283e0abcd1f6d61ff484f446fa38c23ea8",
          "transactionIndex": "0x7",
          "logIndex": "0xd",
          "removed": false
        }
      ],
      "logsBloom": "0x00000000000000020000000000000000000000000000000000000000000000000000000000000000200000000000000000000000001000000000000000000000000000000000000000000008000000000000000000000020001000000000000000000000000000000000000000004000000000000000020000000010000000008000000001000000800000000008000000000000000000001000000000000000000004000000000000000000000000000000000000000020000000400000000000800002000000000000000000000000000000000000000000000000400000000000200000000000000000000000000004000000000002000000000000080010",
      "type": "0x0",
      "transactionHash": "0x4032bdf7512dcfe33ded649a83409d283e0abcd1f6d61ff484f446fa38c23ea8",
      "transactionIndex": "0x7",
      "blockHash": "0x37bc82c66d230605241853c934809e0e0e185d5208a1aebe014c66a6b5aaf356",
      "blockNumber": "0x2cb9884",
      "gasUsed": "0x40155",
      "effectiveGasPrice": "0x16e360",
      "blobGasUsed": "0xf870",
      "from": "0xc929959b439b6fc2eb53e7ceb602297ff3147146",
      "to": "0xb3926879cec1555efbc6c7b9c9bb6b6d40595e5b",
      "contractAddress": null,
      "daFootprintGasScalar": "0x190",
      "l1BaseFeeScalar": "0x7d0",
      "l1BlobBaseFee": "0x18984",
      "l1BlobBaseFeeScalar": "0xdbba0",
      "l1Fee": "0xdbfc85",
      "l1GasPrice": "0x1d",
      "l1GasUsed": "0x9f0"
    }
  ],
  "libraries": [],
  "pending": [],
  "returns": {},
  "timestamp": 1773749712282,
  "chain": 1301,
  "commit": "7bf89a6"
}