{
  "transactions": [
    {
      "hash": "0xe20057be60ea2d7ef96ded7d57cf369fb0d9ae4859448339239e290cc481cbf5",
      "transactionType": "CREATE",
      "contractName": "MockERC20",
      "contractAddress": "0xd743227af9b3922bd5d8127662c5610c986cf06e",
      "function": null,
      "arguments": [
        "Mock USDC",
        "mUSDC",
        "18",
        "10000000000000000000000000",
        "0xc929959b439b6FC2Eb53e7CeB602297fF3147146"
      ],
      "transaction": {
        "from": "0xc929959b439b6fc2eb53e7ceb602297ff3147146",
        "value": "0x0",
        "input": "0x6080604052346103ed57610cea80380380610019816103f1565b928339810160a0828203126103ed5781516001600160401b0381116103ed5781610044918401610416565b602083015190916001600160401b0382116103ed57610064918401610416565b91604081015160ff81168091036103ed5760608201516080909201516001600160a01b03811693908490036103ed578051906001600160401b0382116102e85760035490600182811c921680156103e3575b60208310146102ca5781601f84931161036d575b50602090601f8311600114610307575f926102fc575b50508160011b915f199060031b1c1916176003555b83516001600160401b0381116102e857600454600181811c911680156102de575b60208210146102ca57601f811161025c575b50602094601f82116001146101f9579481929394955f926101ee575b50508160011b915f199060031b1c1916176004555b60ff19600554161760055581156101db57600254908082018092116101c75760207fddf252ad1be2c89b69c2b068fc378daa952ba7f163c4a11628f55a4df523b3ef915f9360025584845283825260408420818154019055604051908152a360405161088290816104688239f35b634e487b7160e01b5f52601160045260245ffd5b63ec442f0560e01b5f525f60045260245ffd5b015190505f80610144565b601f1982169560045f52805f20915f5b8881106102445750836001959697981061022c575b505050811b01600455610159565b01515f1960f88460031b161c191690555f808061021e565b91926020600181928685015181550194019201610209565b818111156101285760045f52601f820160051c7f8a35acfbc15ff81a39ae7d344fd709f28e8600b4aa8c65c6b64bfe7fe36bd19b602084106102c2575b81601f9101920160051c03905f5b8281106102b5575050610128565b5f828201556001016102a7565b5f9150610299565b634e487b7160e01b5f52602260045260245ffd5b90607f1690610116565b634e487b7160e01b5f52604160045260245ffd5b015190505f806100e0565b60035f9081528281209350601f198516905b818110610355575090846001959493921061033d575b505050811b016003556100f5565b01515f1960f88460031b161c191690555f808061032f565b92936020600181928786015181550195019301610319565b828111156100ca5760035f52909150601f830160051c7fc2575a0e9e593c00f959f8c92f12db2869c3395a3b0502d05e2516446f71f85b602085106103db575b849392601f0160051c82900391015f5b8281106103cb5750506100ca565b5f818301558594506001016103bd565b5f91506103ad565b91607f16916100b6565b5f80fd5b6040519190601f01601f191682016001600160401b038111838210176102e857604052565b81601f820112156103ed578051906001600160401b0382116102e857610445601f8301601f19166020016103f1565b92828452602083830101116103ed57815f9260208093018386015e830101529056fe6080806040526004361015610012575f80fd5b5f3560e01c90816306fdde031461060f57508063095ea7b31461058057806318160ddd1461056357806323b872dd146103ed578063313ce567146103cd57806340c10f19146102ec57806370a08231146102a857806395d89b411461012d578063a9059cbb146100fc5763dd62ed3e1461008a575f80fd5b346100f85760406003193601126100f8576100a3610710565b73ffffffffffffffffffffffffffffffffffffffff6100c0610733565b91165f52600160205273ffffffffffffffffffffffffffffffffffffffff60405f2091165f52602052602060405f2054604051908152f35b5f80fd5b346100f85760406003193601126100f857610122610118610710565b6024359033610756565b602060405160018152f35b346100f8575f6003193601126100f8576040515f600454908160011c6001831692831561029e575b60208210841461027157818552849390811561022f57506001146101d3575b5003601f01601f191681019067ffffffffffffffff8211818310176101a6576101a2829182604052826106e6565b0390f35b7f4e487b71000000000000000000000000000000000000000000000000000000005f52604160045260245ffd5b60045f90815291507f8a35acfbc15ff81a39ae7d344fd709f28e8600b4aa8c65c6b64bfe7fe36bd19b5b8183106102135750508101602001601f19610174565b60209193508060019154838588010152019101909183926101fd565b7fffffffffffffffffffffffffffffffffffffffffffffffffffffffffffffff001660208581019190915291151560051b84019091019150601f199050610174565b7f4e487b71000000000000000000000000000000000000000000000000000000005f52602260045260245ffd5b90607f1690610155565b346100f85760206003193601126100f85773ffffffffffffffffffffffffffffffffffffffff6102d6610710565b165f525f602052602060405f2054604051908152f35b346100f85760406003193601126100f857610305610710565b73ffffffffffffffffffffffffffffffffffffffff1660243581156103a157600254908082018092116103745760207fddf252ad1be2c89b69c2b068fc378daa952ba7f163c4a11628f55a4df523b3ef915f9360025584845283825260408420818154019055604051908152a3005b7f4e487b71000000000000000000000000000000000000000000000000000000005f52601160045260245ffd5b7fec442f05000000000000000000000000000000000000000000000000000000005f525f60045260245ffd5b346100f8575f6003193601126100f857602060ff60055416604051908152f35b346100f85760606003193601126100f857610406610710565b61040e610733565b6044359073ffffffffffffffffffffffffffffffffffffffff831692835f52600160205260405f2073ffffffffffffffffffffffffffffffffffffffff33165f5260205260405f20547fffffffffffffffffffffffffffffffffffffffffffffffffffffffffffffffff811061048a575b506101229350610756565b83811061052f5784156105035733156104d757610122945f52600160205260405f2073ffffffffffffffffffffffffffffffffffffffff33165f526020528360405f20910390558461047f565b7f94280d62000000000000000000000000000000000000000000000000000000005f525f60045260245ffd5b7fe602df05000000000000000000000000000000000000000000000000000000005f525f60045260245ffd5b83907ffb8f41b2000000000000000000000000000000000000000000000000000000005f523360045260245260445260645ffd5b346100f8575f6003193601126100f8576020600254604051908152f35b346100f85760406003193601126100f857610599610710565b6024359033156105035773ffffffffffffffffffffffffffffffffffffffff169081156104d757335f52600160205260405f20825f526020528060405f20556040519081527f8c5be1e5ebec7d5bd14f71427d1e84f3dd0314c0f7b2291e5b200ac8c7c3b92560203392a3602060405160018152f35b346100f8575f6003193601126100f8575f600354908160011c600183169283156106dc575b60208210841461027157818552849390811561022f5750600114610680575003601f01601f191681019067ffffffffffffffff8211818310176101a6576101a2829182604052826106e6565b60035f90815291507fc2575a0e9e593c00f959f8c92f12db2869c3395a3b0502d05e2516446f71f85b5b8183106106c05750508101602001601f19610174565b60209193508060019154838588010152019101909183926106aa565b90607f1690610634565b601f19601f602060409481855280519182918282880152018686015e5f8582860101520116010190565b6004359073ffffffffffffffffffffffffffffffffffffffff821682036100f857565b6024359073ffffffffffffffffffffffffffffffffffffffff821682036100f857565b73ffffffffffffffffffffffffffffffffffffffff169081156108205773ffffffffffffffffffffffffffffffffffffffff169182156103a157815f525f60205260405f20548181106107ee57817fddf252ad1be2c89b69c2b068fc378daa952ba7f163c4a11628f55a4df523b3ef92602092855f525f84520360405f2055845f525f825260405f20818154019055604051908152a3565b827fe450d38c000000000000000000000000000000000000000000000000000000005f5260045260245260445260645ffd5b7f96c6fd1e000000000000000000000000000000000000000000000000000000005f525f60045260245ffdfea264697066735822122098af259fc118bd7ec838a2ecb4ea21c98ec02042d74f50d141bb433967e1c5c164736f6c6343000822003300000000000000000000000000000000000000000000000000000000000000a000000000000000000000000000000000000000000000000000000000000000e00000000000000000000000000000000000000000000000000000000000000012000000000000000000000000000000000000000000084595161401484a000000000000000000000000000000c929959b439b6fc2eb53e7ceb602297ff314714600000000000000000000000000000000000000000000000000000000000000094d6f636b2055534443000000000000000000000000000000000000000000000000000000000000000000000000000000000000000000000000000000000000056d55534443000000000000000000000000000000000000000000000000000000",
        "nonce": "0x89",
        "chainId": "0x515"
      },
      "additionalContracts": [],
      "isFixedGasLimit": false
    },
    {
      "hash": "0xbc4a2ba015f7c5b0fccdad3c1cfdec5ad287e1c306c13c39843b9b039c36582e",
      "transactionType": "CREATE",
      "contractName": "MockERC20",
      "contractAddress": "0x12fd0f73fb1da732c49a6383da934e665f500743",
      "function": null,
      "arguments": [
        "Mock DAI",
        "mDAI",
        "18",
        "10000000000000000000000000",
        "0xc929959b439b6FC2Eb53e7CeB602297fF3147146"
      ],
      "transaction": {
        "from": "0xc929959b439b6fc2eb53e7ceb602297ff3147146",
        "value": "0x0",
        "input": "0x6080604052346103ed57610cea80380380610019816103f1565b928339810160a0828203126103ed5781516001600160401b0381116103ed5781610044918401610416565b602083015190916001600160401b0382116103ed57610064918401610416565b91604081015160ff81168091036103ed5760608201516080909201516001600160a01b03811693908490036103ed578051906001600160401b0382116102e85760035490600182811c921680156103e3575b60208310146102ca5781601f84931161036d575b50602090601f8311600114610307575f926102fc575b50508160011b915f199060031b1c1916176003555b83516001600160401b0381116102e857600454600181811c911680156102de575b60208210146102ca57601f811161025c575b50602094601f82116001146101f9579481929394955f926101ee575b50508160011b915f199060031b1c1916176004555b60ff19600554161760055581156101db57600254908082018092116101c75760207fddf252ad1be2c89b69c2b068fc378daa952ba7f163c4a11628f55a4df523b3ef915f9360025584845283825260408420818154019055604051908152a360405161088290816104688239f35b634e487b7160e01b5f52601160045260245ffd5b63ec442f0560e01b5f525f60045260245ffd5b015190505f80610144565b601f1982169560045f52805f20915f5b8881106102445750836001959697981061022c575b505050811b01600455610159565b01515f1960f88460031b161c191690555f808061021e565b91926020600181928685015181550194019201610209565b818111156101285760045f52601f820160051c7f8a35acfbc15ff81a39ae7d344fd709f28e8600b4aa8c65c6b64bfe7fe36bd19b602084106102c2575b81601f9101920160051c03905f5b8281106102b5575050610128565b5f828201556001016102a7565b5f9150610299565b634e487b7160e01b5f52602260045260245ffd5b90607f1690610116565b634e487b7160e01b5f52604160045260245ffd5b015190505f806100e0565b60035f9081528281209350601f198516905b818110610355575090846001959493921061033d575b505050811b016003556100f5565b01515f1960f88460031b161c191690555f808061032f565b92936020600181928786015181550195019301610319565b828111156100ca5760035f52909150601f830160051c7fc2575a0e9e593c00f959f8c92f12db2869c3395a3b0502d05e2516446f71f85b602085106103db575b849392601f0160051c82900391015f5b8281106103cb5750506100ca565b5f818301558594506001016103bd565b5f91506103ad565b91607f16916100b6565b5f80fd5b6040519190601f01601f191682016001600160401b038111838210176102e857604052565b81601f820112156103ed578051906001600160401b0382116102e857610445601f8301601f19166020016103f1565b92828452602083830101116103ed57815f9260208093018386015e830101529056fe6080806040526004361015610012575f80fd5b5f3560e01c90816306fdde031461060f57508063095ea7b31461058057806318160ddd1461056357806323b872dd146103ed578063313ce567146103cd57806340c10f19146102ec57806370a08231146102a857806395d89b411461012d578063a9059cbb146100fc5763dd62ed3e1461008a575f80fd5b346100f85760406003193601126100f8576100a3610710565b73ffffffffffffffffffffffffffffffffffffffff6100c0610733565b91165f52600160205273ffffffffffffffffffffffffffffffffffffffff60405f2091165f52602052602060405f2054604051908152f35b5f80fd5b346100f85760406003193601126100f857610122610118610710565b6024359033610756565b602060405160018152f35b346100f8575f6003193601126100f8576040515f600454908160011c6001831692831561029e575b60208210841461027157818552849390811561022f57506001146101d3575b5003601f01601f191681019067ffffffffffffffff8211818310176101a6576101a2829182604052826106e6565b0390f35b7f4e487b71000000000000000000000000000000000000000000000000000000005f52604160045260245ffd5b60045f90815291507f8a35acfbc15ff81a39ae7d344fd709f28e8600b4aa8c65c6b64bfe7fe36bd19b5b8183106102135750508101602001601f19610174565b60209193508060019154838588010152019101909183926101fd565b7fffffffffffffffffffffffffffffffffffffffffffffffffffffffffffffff001660208581019190915291151560051b84019091019150601f199050610174565b7f4e487b71000000000000000000000000000000000000000000000000000000005f52602260045260245ffd5b90607f1690610155565b346100f85760206003193601126100f85773ffffffffffffffffffffffffffffffffffffffff6102d6610710565b165f525f602052602060405f2054604051908152f35b346100f85760406003193601126100f857610305610710565b73ffffffffffffffffffffffffffffffffffffffff1660243581156103a157600254908082018092116103745760207fddf252ad1be2c89b69c2b068fc378daa952ba7f163c4a11628f55a4df523b3ef915f9360025584845283825260408420818154019055604051908152a3005b7f4e487b71000000000000000000000000000000000000000000000000000000005f52601160045260245ffd5b7fec442f05000000000000000000000000000000000000000000000000000000005f525f60045260245ffd5b346100f8575f6003193601126100f857602060ff60055416604051908152f35b346100f85760606003193601126100f857610406610710565b61040e610733565b6044359073ffffffffffffffffffffffffffffffffffffffff831692835f52600160205260405f2073ffffffffffffffffffffffffffffffffffffffff33165f5260205260405f20547fffffffffffffffffffffffffffffffffffffffffffffffffffffffffffffffff811061048a575b506101229350610756565b83811061052f5784156105035733156104d757610122945f52600160205260405f2073ffffffffffffffffffffffffffffffffffffffff33165f526020528360405f20910390558461047f565b7f94280d62000000000000000000000000000000000000000000000000000000005f525f60045260245ffd5b7fe602df05000000000000000000000000000000000000000000000000000000005f525f60045260245ffd5b83907ffb8f41b2000000000000000000000000000000000000000000000000000000005f523360045260245260445260645ffd5b346100f8575f6003193601126100f8576020600254604051908152f35b346100f85760406003193601126100f857610599610710565b6024359033156105035773ffffffffffffffffffffffffffffffffffffffff169081156104d757335f52600160205260405f20825f526020528060405f20556040519081527f8c5be1e5ebec7d5bd14f71427d1e84f3dd0314c0f7b2291e5b200ac8c7c3b92560203392a3602060405160018152f35b346100f8575f6003193601126100f8575f600354908160011c600183169283156106dc575b60208210841461027157818552849390811561022f5750600114610680575003601f01601f191681019067ffffffffffffffff8211818310176101a6576101a2829182604052826106e6565b60035f90815291507fc2575a0e9e593c00f959f8c92f12db2869c3395a3b0502d05e2516446f71f85b5b8183106106c05750508101602001601f19610174565b60209193508060019154838588010152019101909183926106aa565b90607f1690610634565b601f19601f602060409481855280519182918282880152018686015e5f8582860101520116010190565b6004359073ffffffffffffffffffffffffffffffffffffffff821682036100f857565b6024359073ffffffffffffffffffffffffffffffffffffffff821682036100f857565b73ffffffffffffffffffffffffffffffffffffffff169081156108205773ffffffffffffffffffffffffffffffffffffffff169182156103a157815f525f60205260405f20548181106107ee57817fddf252ad1be2c89b69c2b068fc378daa952ba7f163c4a11628f55a4df523b3ef92602092855f525f84520360405f2055845f525f825260405f20818154019055604051908152a3565b827fe450d38c000000000000000000000000000000000000000000000000000000005f5260045260245260445260645ffd5b7f96c6fd1e000000000000000000000000000000000000000000000000000000005f525f60045260245ffdfea264697066735822122098af259fc118bd7ec838a2ecb4ea21c98ec02042d74f50d141bb433967e1c5c164736f6c6343000822003300000000000000000000000000000000000000000000000000000000000000a000000000000000000000000000000000000000000000000000000000000000e00000000000000000000000000000000000000000000000000000000000000012000000000000000000000000000000000000000000084595161401484a000000000000000000000000000000c929959b439b6fc2eb53e7ceb602297ff314714600000000000000000000000000000000000000000000000000000000000000084d6f636b2044414900000000000000000000000000000000000000000000000000000000000000000000000000000000000000000000000000000000000000046d44414900000000000000000000000000000000000000000000000000000000",
        "nonce": "0x8a",
        "chainId": "0x515"
      },
      "additionalContracts": [],
      "isFixedGasLimit": false
    },
    {
      "hash": "0x29b4b8dc3102e48051f3da7ee7be680e324e19ac67b04756ecfb202d47ebdb7b",
      "transactionType": "CREATE",
      "contractName": "MockERC20",
      "contractAddress": "0x2da8207527095d4986ea12436965bf7895a17c16",
      "function": null,
      "arguments": [
        "Mock WBTC",
        "mWBTC",
        "18",
        "1000000000000000000000",
        "0xc929959b439b6FC2Eb53e7CeB602297fF3147146"
      ],
      "transaction": {
        "from": "0xc929959b439b6fc2eb53e7ceb602297ff3147146",
        "value": "0x0",
        "input": "0x6080604052346103ed57610cea80380380610019816103f1565b928339810160a0828203126103ed5781516001600160401b0381116103ed5781610044918401610416565b602083015190916001600160401b0382116103ed57610064918401610416565b91604081015160ff81168091036103ed5760608201516080909201516001600160a01b03811693908490036103ed578051906001600160401b0382116102e85760035490600182811c921680156103e3575b60208310146102ca5781601f84931161036d575b50602090601f8311600114610307575f926102fc575b50508160011b915f199060031b1c1916176003555b83516001600160401b0381116102e857600454600181811c911680156102de575b60208210146102ca57601f811161025c575b50602094601f82116001146101f9579481929394955f926101ee575b50508160011b915f199060031b1c1916176004555b60ff19600554161760055581156101db57600254908082018092116101c75760207fddf252ad1be2c89b69c2b068fc378daa952ba7f163c4a11628f55a4df523b3ef915f9360025584845283825260408420818154019055604051908152a360405161088290816104688239f35b634e487b7160e01b5f52601160045260245ffd5b63ec442f0560e01b5f525f60045260245ffd5b015190505f80610144565b601f1982169560045f52805f20915f5b8881106102445750836001959697981061022c575b505050811b01600455610159565b01515f1960f88460031b161c191690555f808061021e565b91926020600181928685015181550194019201610209565b818111156101285760045f52601f820160051c7f8a35acfbc15ff81a39ae7d344fd709f28e8600b4aa8c65c6b64bfe7fe36bd19b602084106102c2575b81601f9101920160051c03905f5b8281106102b5575050610128565b5f828201556001016102a7565b5f9150610299565b634e487b7160e01b5f52602260045260245ffd5b90607f1690610116565b634e487b7160e01b5f52604160045260245ffd5b015190505f806100e0565b60035f9081528281209350601f198516905b818110610355575090846001959493921061033d575b505050811b016003556100f5565b01515f1960f88460031b161c191690555f808061032f565b92936020600181928786015181550195019301610319565b828111156100ca5760035f52909150601f830160051c7fc2575a0e9e593c00f959f8c92f12db2869c3395a3b0502d05e2516446f71f85b602085106103db575b849392601f0160051c82900391015f5b8281106103cb5750506100ca565b5f818301558594506001016103bd565b5f91506103ad565b91607f16916100b6565b5f80fd5b6040519190601f01601f191682016001600160401b038111838210176102e857604052565b81601f820112156103ed578051906001600160401b0382116102e857610445601f8301601f19166020016103f1565b92828452602083830101116103ed57815f9260208093018386015e830101529056fe6080806040526004361015610012575f80fd5b5f3560e01c90816306fdde031461060f57508063095ea7b31461058057806318160ddd1461056357806323b872dd146103ed578063313ce567146103cd57806340c10f19146102ec57806370a08231146102a857806395d89b411461012d578063a9059cbb146100fc5763dd62ed3e1461008a575f80fd5b346100f85760406003193601126100f8576100a3610710565b73ffffffffffffffffffffffffffffffffffffffff6100c0610733565b91165f52600160205273ffffffffffffffffffffffffffffffffffffffff60405f2091165f52602052602060405f2054604051908152f35b5f80fd5b346100f85760406003193601126100f857610122610118610710565b6024359033610756565b602060405160018152f35b346100f8575f6003193601126100f8576040515f600454908160011c6001831692831561029e575b60208210841461027157818552849390811561022f57506001146101d3575b5003601f01601f191681019067ffffffffffffffff8211818310176101a6576101a2829182604052826106e6565b0390f35b7f4e487b71000000000000000000000000000000000000000000000000000000005f52604160045260245ffd5b60045f90815291507f8a35acfbc15ff81a39ae7d344fd709f28e8600b4aa8c65c6b64bfe7fe36bd19b5b8183106102135750508101602001601f19610174565b60209193508060019154838588010152019101909183926101fd565b7fffffffffffffffffffffffffffffffffffffffffffffffffffffffffffffff001660208581019190915291151560051b84019091019150601f199050610174565b7f4e487b71000000000000000000000000000000000000000000000000000000005f52602260045260245ffd5b90607f1690610155565b346100f85760206003193601126100f85773ffffffffffffffffffffffffffffffffffffffff6102d6610710565b165f525f602052602060405f2054604051908152f35b346100f85760406003193601126100f857610305610710565b73ffffffffffffffffffffffffffffffffffffffff1660243581156103a157600254908082018092116103745760207fddf252ad1be2c89b69c2b068fc378daa952ba7f163c4a11628f55a4df523b3ef915f9360025584845283825260408420818154019055604051908152a3005b7f4e487b71000000000000000000000000000000000000000000000000000000005f52601160045260245ffd5b7fec442f05000000000000000000000000000000000000000000000000000000005f525f60045260245ffd5b346100f8575f6003193601126100f857602060ff60055416604051908152f35b346100f85760606003193601126100f857610406610710565b61040e610733565b6044359073ffffffffffffffffffffffffffffffffffffffff831692835f52600160205260405f2073ffffffffffffffffffffffffffffffffffffffff33165f5260205260405f20547fffffffffffffffffffffffffffffffffffffffffffffffffffffffffffffffff811061048a575b506101229350610756565b83811061052f5784156105035733156104d757610122945f52600160205260405f2073ffffffffffffffffffffffffffffffffffffffff33165f526020528360405f20910390558461047f565b7f94280d62000000000000000000000000000000000000000000000000000000005f525f60045260245ffd5b7fe602df05000000000000000000000000000000000000000000000000000000005f525f60045260245ffd5b83907ffb8f41b2000000000000000000000000000000000000000000000000000000005f523360045260245260445260645ffd5b346100f8575f6003193601126100f8576020600254604051908152f35b346100f85760406003193601126100f857610599610710565b6024359033156105035773ffffffffffffffffffffffffffffffffffffffff169081156104d757335f52600160205260405f20825f526020528060405f20556040519081527f8c5be1e5ebec7d5bd14f71427d1e84f3dd0314c0f7b2291e5b200ac8c7c3b92560203392a3602060405160018152f35b346100f8575f6003193601126100f8575f600354908160011c600183169283156106dc575b60208210841461027157818552849390811561022f5750600114610680575003601f01601f191681019067ffffffffffffffff8211818310176101a6576101a2829182604052826106e6565b60035f90815291507fc2575a0e9e593c00f959f8c92f12db2869c3395a3b0502d05e2516446f71f85b5b8183106106c05750508101602001601f19610174565b60209193508060019154838588010152019101909183926106aa565b90607f1690610634565b601f19601f602060409481855280519182918282880152018686015e5f8582860101520116010190565b6004359073ffffffffffffffffffffffffffffffffffffffff821682036100f857565b6024359073ffffffffffffffffffffffffffffffffffffffff821682036100f857565b73ffffffffffffffffffffffffffffffffffffffff169081156108205773ffffffffffffffffffffffffffffffffffffffff169182156103a157815f525f60205260405f20548181106107ee57817fddf252ad1be2c89b69c2b068fc378daa952ba7f163c4a11628f55a4df523b3ef92602092855f525f84520360405f2055845f525f825260405f20818154019055604051908152a3565b827fe450d38c000000000000000000000000000000000000000000000000000000005f5260045260245260445260645ffd5b7f96c6fd1e000000000000000000000000000000000000000000000000000000005f525f60045260245ffdfea264697066735822122098af259fc118bd7ec838a2ecb4ea21c98ec02042d74f50d141bb433967e1c5c164736f6c6343000822003300000000000000000000000000000000000000000000000000000000000000a000000000000000000000000000000000000000000000000000000000000000e0000000000000000000000000000000000000000000000000000000000000001200000000000000000000000000000000000000000000003635c9adc5dea00000000000000000000000000000c929959b439b6fc2eb53e7ceb602297ff314714600000000000000000000000000000000000000000000000000000000000000094d6f636b2057425443000000000000000000000000000000000000000000000000000000000000000000000000000000000000000000000000000000000000056d57425443000000000000000000000000000000000000000000000000000000",
        "nonce": "0x8b",
        "chainId": "0x515"
      },
      "additionalContracts": [],
      "isFixedGasLimit": false
    },
    {
      "hash": "0x1185ecaf558fbad6d13b1895a4cd6131a354ade1d38bdfb28021d7f58ddf43a0",
      "transactionType": "CREATE",
      "contractName": "MockERC20",
      "contractAddress": "0x8ad7d64bde92d7428838ba74a891c6f1e1c73016",
      "function": null,
      "arguments": [
        "Mock WETH",
        "mWETH",
        "18",
        "1000000000000000000000000",
        "0xc929959b439b6FC2Eb53e7CeB602297fF3147146"
      ],
      "transaction": {
        "from": "0xc929959b439b6fc2eb53e7ceb602297ff3147146",
        "value": "0x0",
        "input": "0x6080604052346103ed57610cea80380380610019816103f1565b928339810160a0828203126103ed5781516001600160401b0381116103ed5781610044918401610416565b602083015190916001600160401b0382116103ed57610064918401610416565b91604081015160ff81168091036103ed5760608201516080909201516001600160a01b03811693908490036103ed578051906001600160401b0382116102e85760035490600182811c921680156103e3575b60208310146102ca5781601f84931161036d575b50602090601f8311600114610307575f926102fc575b50508160011b915f199060031b1c1916176003555b83516001600160401b0381116102e857600454600181811c911680156102de575b60208210146102ca57601f811161025c575b50602094601f82116001146101f9579481929394955f926101ee575b50508160011b915f199060031b1c1916176004555b60ff19600554161760055581156101db57600254908082018092116101c75760207fddf252ad1be2c89b69c2b068fc378daa952ba7f163c4a11628f55a4df523b3ef915f9360025584845283825260408420818154019055604051908152a360405161088290816104688239f35b634e487b7160e01b5f52601160045260245ffd5b63ec442f0560e01b5f525f60045260245ffd5b015190505f80610144565b601f1982169560045f52805f20915f5b8881106102445750836001959697981061022c575b505050811b01600455610159565b01515f1960f88460031b161c191690555f808061021e565b91926020600181928685015181550194019201610209565b818111156101285760045f52601f820160051c7f8a35acfbc15ff81a39ae7d344fd709f28e8600b4aa8c65c6b64bfe7fe36bd19b602084106102c2575b81601f9101920160051c03905f5b8281106102b5575050610128565b5f828201556001016102a7565b5f9150610299565b634e487b7160e01b5f52602260045260245ffd5b90607f1690610116565b634e487b7160e01b5f52604160045260245ffd5b015190505f806100e0565b60035f9081528281209350601f198516905b818110610355575090846001959493921061033d575b505050811b016003556100f5565b01515f1960f88460031b161c191690555f808061032f565b92936020600181928786015181550195019301610319565b828111156100ca5760035f52909150601f830160051c7fc2575a0e9e593c00f959f8c92f12db2869c3395a3b0502d05e2516446f71f85b602085106103db575b849392601f0160051c82900391015f5b8281106103cb5750506100ca565b5f818301558594506001016103bd565b5f91506103ad565b91607f16916100b6565b5f80fd5b6040519190601f01601f191682016001600160401b038111838210176102e857604052565b81601f820112156103ed578051906001600160401b0382116102e857610445601f8301601f19166020016103f1565b92828452602083830101116103ed57815f9260208093018386015e830101529056fe6080806040526004361015610012575f80fd5b5f3560e01c90816306fdde031461060f57508063095ea7b31461058057806318160ddd1461056357806323b872dd146103ed578063313ce567146103cd57806340c10f19146102ec57806370a08231146102a857806395d89b411461012d578063a9059cbb146100fc5763dd62ed3e1461008a575f80fd5b346100f85760406003193601126100f8576100a3610710565b73ffffffffffffffffffffffffffffffffffffffff6100c0610733565b91165f52600160205273ffffffffffffffffffffffffffffffffffffffff60405f2091165f52602052602060405f2054604051908152f35b5f80fd5b346100f85760406003193601126100f857610122610118610710565b6024359033610756565b602060405160018152f35b346100f8575f6003193601126100f8576040515f600454908160011c6001831692831561029e575b60208210841461027157818552849390811561022f57506001146101d3575b5003601f01601f191681019067ffffffffffffffff8211818310176101a6576101a2829182604052826106e6565b0390f35b7f4e487b71000000000000000000000000000000000000000000000000000000005f52604160045260245ffd5b60045f90815291507f8a35acfbc15ff81a39ae7d344fd709f28e8600b4aa8c65c6b64bfe7fe36bd19b5b8183106102135750508101602001601f19610174565b60209193508060019154838588010152019101909183926101fd565b7fffffffffffffffffffffffffffffffffffffffffffffffffffffffffffffff001660208581019190915291151560051b84019091019150601f199050610174565b7f4e487b71000000000000000000000000000000000000000000000000000000005f52602260045260245ffd5b90607f1690610155565b346100f85760206003193601126100f85773ffffffffffffffffffffffffffffffffffffffff6102d6610710565b165f525f602052602060405f2054604051908152f35b346100f85760406003193601126100f857610305610710565b73ffffffffffffffffffffffffffffffffffffffff1660243581156103a157600254908082018092116103745760207fddf252ad1be2c89b69c2b068fc378daa952ba7f163c4a11628f55a4df523b3ef915f9360025584845283825260408420818154019055604051908152a3005b7f4e487b71000000000000000000000000000000000000000000000000000000005f52601160045260245ffd5b7fec442f05000000000000000000000000000000000000000000000000000000005f525f60045260245ffd5b346100f8575f6003193601126100f857602060ff60055416604051908152f35b346100f85760606003193601126100f857610406610710565b61040e610733565b6044359073ffffffffffffffffffffffffffffffffffffffff831692835f52600160205260405f2073ffffffffffffffffffffffffffffffffffffffff33165f5260205260405f20547fffffffffffffffffffffffffffffffffffffffffffffffffffffffffffffffff811061048a575b506101229350610756565b83811061052f5784156105035733156104d757610122945f52600160205260405f2073ffffffffffffffffffffffffffffffffffffffff33165f526020528360405f20910390558461047f565b7f94280d62000000000000000000000000000000000000000000000000000000005f525f60045260245ffd5b7fe602df05000000000000000000000000000000000000000000000000000000005f525f60045260245ffd5b83907ffb8f41b2000000000000000000000000000000000000000000000000000000005f523360045260245260445260645ffd5b346100f8575f6003193601126100f8576020600254604051908152f35b346100f85760406003193601126100f857610599610710565b6024359033156105035773ffffffffffffffffffffffffffffffffffffffff169081156104d757335f52600160205260405f20825f526020528060405f20556040519081527f8c5be1e5ebec7d5bd14f71427d1e84f3dd0314c0f7b2291e5b200ac8c7c3b92560203392a3602060405160018152f35b346100f8575f6003193601126100f8575f600354908160011c600183169283156106dc575b60208210841461027157818552849390811561022f5750600114610680575003601f01601f191681019067ffffffffffffffff8211818310176101a6576101a2829182604052826106e6565b60035f90815291507fc2575a0e9e593c00f959f8c92f12db2869c3395a3b0502d05e2516446f71f85b5b8183106106c05750508101602001601f19610174565b60209193508060019154838588010152019101909183926106aa565b90607f1690610634565b601f19601f602060409481855280519182918282880152018686015e5f8582860101520116010190565b6004359073ffffffffffffffffffffffffffffffffffffffff821682036100f857565b6024359073ffffffffffffffffffffffffffffffffffffffff821682036100f857565b73ffffffffffffffffffffffffffffffffffffffff169081156108205773ffffffffffffffffffffffffffffffffffffffff169182156103a157815f525f60205260405f20548181106107ee57817fddf252ad1be2c89b69c2b068fc378daa952ba7f163c4a11628f55a4df523b3ef92602092855f525f84520360405f2055845f525f825260405f20818154019055604051908152a3565b827fe450d38c000000000000000000000000000000000000000000000000000000005f5260045260245260445260645ffd5b7f96c6fd1e000000000000000000000000000000000000000000000000000000005f525f60045260245ffdfea264697066735822122098af259fc118bd7ec838a2ecb4ea21c98ec02042d74f50d141bb433967e1c5c164736f6c6343000822003300000000000000000000000000000000000000000000000000000000000000a000000000000000000000000000000000000000000000000000000000000000e0000000000000000000000000000000000000000000000000000000000000001200000000000000000000000000000000000000000000d3c21bcecceda1000000000000000000000000000000c929959b439b6fc2eb53e7ceb602297ff314714600000000000000000000000000000000000000000000000000000000000000094d6f636b2057455448000000000000000000000000000000000000000000000000000000000000000000000000000000000000000000000000000000000000056d57455448000000000000000000000000000000000000000000000000000000",
        "nonce": "0x8c",
        "chainId": "0x515"
      },
      "additionalContracts": [],
      "isFixedGasLimit": false
    },
    {
      "hash": "0xb6a3861c48423399a137a2595f2649c4186916d63f165d9e955ba15b8fe37745",
      "transactionType": "CALL",
      "contractName": "MockERC20",
      "contractAddress": "0xd743227af9b3922bd5d8127662c5610c986cf06e",
      "function": "mint(address,uint256)",
      "arguments": [
        "0xc929959b439b6FC2Eb53e7CeB602297fF3147146",
        "10000000000000000000000000"
      ],
      "transaction": {
        "from": "0xc929959b439b6fc2eb53e7ceb602297ff3147146",
        "to": "0xd743227af9b3922bd5d8127662c5610c986cf06e",
        "value": "0x0",
        "input": "0x40c10f19000000000000000000000000c929959b439b6fc2eb53e7ceb602297ff3147146000000000000000000000000000000000000000000084595161401484a000000",
        "nonce": "0x8d",
        "chainId": "0x515"
      },
      "additionalContracts": [],
      "isFixedGasLimit": false
    },
    {
      "hash": "0xb13bbd7da2eefe3695a497d9503437c2a16cd0df6380f2a57ffd87d552901dc5",
      "transactionType": "CALL",
      "contractName": "MockERC20",
      "contractAddress": "0x12fd0f73fb1da732c49a6383da934e665f500743",
      "function": "mint(address,uint256)",
      "arguments": [
        "0xc929959b439b6FC2Eb53e7CeB602297fF3147146",
        "10000000000000000000000000"
      ],
      "transaction": {
        "from": "0xc929959b439b6fc2eb53e7ceb602297ff3147146",
        "to": "0x12fd0f73fb1da732c49a6383da934e665f500743",
        "value": "0x0",
        "input": "0x40c10f19000000000000000000000000c929959b439b6fc2eb53e7ceb602297ff3147146000000000000000000000000000000000000000000084595161401484a000000",
        "nonce": "0x8e",
        "chainId": "0x515"
      },
      "additionalContracts": [],
      "isFixedGasLimit": false
    },
    {
      "hash": "0x09f0f52738a0715a9dd2c554b0efa4cf67f48d807d0713e8217df932d60318c3",
      "transactionType": "CALL",
      "contractName": "MockERC20",
      "contractAddress": "0x2da8207527095d4986ea12436965bf7895a17c16",
      "function": "mint(address,uint256)",
      "arguments": [
        "0xc929959b439b6FC2Eb53e7CeB602297fF3147146",
        "1000000000000000000000"
      ],
      "transaction": {
        "from": "0xc929959b439b6fc2eb53e7ceb602297ff3147146",
        "to": "0x2da8207527095d4986ea12436965bf7895a17c16",
        "value": "0x0",
        "input": "0x40c10f19000000000000000000000000c929959b439b6fc2eb53e7ceb602297ff314714600000000000000000000000000000000000000000000003635c9adc5dea00000",
        "nonce": "0x8f",
        "chainId": "0x515"
      },
      "additionalContracts": [],
      "isFixedGasLimit": false
    },
    {
      "hash": "0x8b53e4786fa06a0009946361b231e6186745b4a5f531c64ecc3af11c226c9bee",
      "transactionType": "CALL",
      "contractName": "MockERC20",
      "contractAddress": "0x8ad7d64bde92d7428838ba74a891c6f1e1c73016",
      "function": "mint(address,uint256)",
      "arguments": [
        "0xc929959b439b6FC2Eb53e7CeB602297fF3147146",
        "1000000000000000000000000"
      ],
      "transaction": {
        "from": "0xc929959b439b6fc2eb53e7ceb602297ff3147146",
        "to": "0x8ad7d64bde92d7428838ba74a891c6f1e1c73016",
        "value": "0x0",
        "input": "0x40c10f19000000000000000000000000c929959b439b6fc2eb53e7ceb602297ff314714600000000000000000000000000000000000000000000d3c21bcecceda1000000",
        "nonce": "0x90",
        "chainId": "0x515"
      },
      "additionalContracts": [],
      "isFixedGasLimit": false
    },
    {
      "hash": "0x49ac62784e36f14c5a9f19cbefd9379d04b59bbcfd8d6cb7e28a760c8ea14be3",
      "transactionType": "CREATE",
      "contractName": "SetupRouter",
      "contractAddress": "0xb3b0d14c8804841a2e572779645f7a3845f52147",
      "function": null,
      "arguments": [
        "0x00B036B58a818B1BC34d502D3fE730Db729e62AC"
      ],
      "transaction": {
        "from": "0xc929959b439b6fc2eb53e7ceb602297ff3147146",
        "value": "0x0",
        "input": "0x60a03461008657601f610ed738819003918201601f19168301916001600160401b0383118484101761008a5780849260209460405283398101031261008657516001600160a01b038116810361008657608052604051610e38908161009f8239608051818181610297015281816105a7015281816109d101528181610bfe0152610c7d0152f35b5f80fd5b634e487b7160e01b5f52604160045260245ffdfe6080806040526004361015610012575f80fd5b5f905f3560e01c908163481c6a75146109895750806391dd7346146103d75763cf4bac771461003f575f80fd5b7ffffffffffffffffffffffffffffffffffffffffffffffffffffffffffffffffc360161012081126103d35760a0136102e3576040519061007f82610a81565b60043573ffffffffffffffffffffffffffffffffffffffff811681036103d357825260243573ffffffffffffffffffffffffffffffffffffffff811681036103d357602083015260443562ffffff811681036103d35760408301526064358060020b81036103d357606083015260843573ffffffffffffffffffffffffffffffffffffffff811681036103d357608083015260807fffffffffffffffffffffffffffffffffffffffffffffffffffffffffffffff5c3601126102e35760405161014781610a9d565b60a4358060020b810361039157815260c4358060020b810361039157926102318261027d9560208695015260e43560408201526101043560608201526040805161019081610a38565b33815260208101948552019081526102006040519333602086015251604085019073ffffffffffffffffffffffffffffffffffffffff6080809282815116855282602082015116602086015262ffffff6040820151166040860152606081015160020b6060860152015116910152565b518051600290810b60e08501526020820151900b610100840152604081015161012084015260600151610140830152565b610140815261024261016082610ab9565b604051809481927f48c894910000000000000000000000000000000000000000000000000000000083526020600484015260248301906109f5565b03818373ffffffffffffffffffffffffffffffffffffffff7f0000000000000000000000000000000000000000000000000000000000000000165af19182156103c65781926102e6575b506020828051810103126102e357602080830151604051908152f35b80fd5b9091503d8083833e6102f88183610ab9565b8101906020818303126103915780519067ffffffffffffffff82116103c2570181601f8201121561039157805167ffffffffffffffff811161039557908160207fffffffffffffffffffffffffffffffffffffffffffffffffffffffffffffffe0601f87950116019361036e6040519586610ab9565b81855260208284010111610391578060208093018386015e83010152905f6102c7565b8280fd5b6024847f4e487b710000000000000000000000000000000000000000000000000000000081526041600452fd5b8380fd5b50604051903d90823e3d90fd5b5080fd5b50346108c55760207ffffffffffffffffffffffffffffffffffffffffffffffffffffffffffffffffc3601126108c5576004359067ffffffffffffffff82116108c557366023830112156108c557816004013567ffffffffffffffff81116108c5578201903660248301116108c557610140838303126108c5576040519161045e83610a38565b61046a60248501610afa565b835260a07fffffffffffffffffffffffffffffffffffffffffffffffffffffffffffffffe085830301126108c557604051906104a582610a81565b6104b160448601610afa565b82526104bf60648601610afa565b6020830152608485013562ffffff811681036108c55760408301526104e660a48601610b1b565b606083015260c485013573ffffffffffffffffffffffffffffffffffffffff811681036108c5577fffffffffffffffffffffffffffffffffffffffffffffffffffffffffffffff1c866080936024938587015260208801958652030101126108c5576101446040519461055886610a9d565b61056460e48201610b1b565b86526105736101048201610b1b565b602087015261012481013560408701520135606085015283604084015273ffffffffffffffffffffffffffffffffffffffff7f000000000000000000000000000000000000000000000000000000000000000016815193604061068d6020966106cf83516105e18a82610ab9565b5f81527fffffffffffffffffffffffffffffffffffffffffffffffffffffffffffffffe08a01368b8301376106bb85519b8c9586957f5a6bcfda000000000000000000000000000000000000000000000000000000008752600487019073ffffffffffffffffffffffffffffffffffffffff6080809282815116855282602082015116602086015262ffffff6040820151166040860152606081015160020b6060860152015116910152565b8051600290810b60a48701526020820151900b60c4860152604081015160e486015260600151610104850152565b6101406101248401526101448301906109f5565b03815f865af19586156108ba575f96610955575b50848660801d600f0b9387600f0b945f8112610913575b5f86126108c9575b5f8113610800575b50858513610743575b8782604051918183015280825261072b604083610ab9565b61073f6040519282849384528301906109f5565b0390f35b510151905173ffffffffffffffffffffffffffffffffffffffff9081169116823b156107fc576040517f0b0d9c0900000000000000000000000000000000000000000000000000000000815273ffffffffffffffffffffffffffffffffffffffff918216600482015291166024820152604481019290925282908290606490829084905af180156107f1576107dc575b80808481610713565b6107e7828092610ab9565b6102e357806107d3565b6040513d84823e3d90fd5b8480fd5b915073ffffffffffffffffffffffffffffffffffffffff8151511673ffffffffffffffffffffffffffffffffffffffff845116853b156108c5576040517f0b0d9c0900000000000000000000000000000000000000000000000000000000815273ffffffffffffffffffffffffffffffffffffffff92831660048201529116602482015260448101929092525f8260648183885af19182156108ba5787921561070a575f9196506108b19250610ab9565b845f945f61070a565b6040513d5f823e3d90fd5b5f80fd5b61090e73ffffffffffffffffffffffffffffffffffffffff84845101511673ffffffffffffffffffffffffffffffffffffffff86511661090889610b29565b91610b91565b610702565b61095073ffffffffffffffffffffffffffffffffffffffff8351511673ffffffffffffffffffffffffffffffffffffffff86511661090884610b29565b6106fa565b9095506040813d604011610981575b8161097160409383610ab9565b810103126108c55751945f6106e3565b3d9150610964565b346108c5575f7ffffffffffffffffffffffffffffffffffffffffffffffffffffffffffffffffc3601126108c55760209073ffffffffffffffffffffffffffffffffffffffff7f0000000000000000000000000000000000000000000000000000000000000000168152f35b907fffffffffffffffffffffffffffffffffffffffffffffffffffffffffffffffe0601f602080948051918291828752018686015e5f8582860101520116010190565b6060810190811067ffffffffffffffff821117610a5457604052565b7f4e487b71000000000000000000000000000000000000000000000000000000005f52604160045260245ffd5b60a0810190811067ffffffffffffffff821117610a5457604052565b6080810190811067ffffffffffffffff821117610a5457604052565b90601f7fffffffffffffffffffffffffffffffffffffffffffffffffffffffffffffffe0910116810190811067ffffffffffffffff821117610a5457604052565b359073ffffffffffffffffffffffffffffffffffffffff821682036108c557565b35908160020b82036108c557565b7f80000000000000000000000000000000000000000000000000000000000000008114610b55575f0390565b7f4e487b71000000000000000000000000000000000000000000000000000000005f52601160045260245ffd5b908160209103126108c5575190565b73ffffffffffffffffffffffffffffffffffffffff90939293165f9181155f14610c66575050602060049293604051938480927f11da60b400000000000000000000000000000000000000000000000000000000825273ffffffffffffffffffffffffffffffffffffffff7f0000000000000000000000000000000000000000000000000000000000000000165af1908115610c5a5750610c2f5750565b610c509060203d602011610c53575b610c488183610ab9565b810190610b82565b50565b503d610c3e565b604051903d90823e3d90fd5b73ffffffffffffffffffffffffffffffffffffffff7f00000000000000000000000000000000000000000000000000000000000000001691823b156108c5576040517fa58411940000000000000000000000000000000000000000000000000000000081528160048201525f8160248183885af180156108ba57610dd0575b5060646020928573ffffffffffffffffffffffffffffffffffffffff93604051998a9586947f23b872dd00000000000000000000000000000000000000000000000000000000865216600485015287602485015260448401525af19384156107f157829394610d90575b506020906004604051809581937f11da60b40000000000000000000000000000000000000000000000000000000083525af1908115610c5a5750610c2f5750565b9091506020813d602011610dc8575b81610dac60209383610ab9565b8101031261039157518015158103610391575081906020610d4f565b3d9150610d9f565b73ffffffffffffffffffffffffffffffffffffffff919450602092610df75f606493610ab9565b5f9592509250610ce556fea2646970667358221220d8a6468407a4878389656169c7a560523ae4e9faf78619e0e48de8c26b657ad564736f6c6343000822003300000000000000000000000000b036b58a818b1bc34d502d3fe730db729e62ac",
        "nonce": "0x91",
        "chainId": "0x515"
      },
      "additionalContracts": [],
      "isFixedGasLimit": false
    },
    {
      "hash": "0x456ecabdd3c97cd693bbeded1e7effa23c89a4f4a09d54180547f47ce84d7fc3",
      "transactionType": "CREATE",
      "contractName": "PoolSwapTest",
      "contractAddress": "0x9370120dfd942c2e964de4d822c36f455bb21d42",
      "function": null,
      "arguments": [
        "0x00B036B58a818B1BC34d502D3fE730Db729e62AC"
      ],
      "transaction": {
        "from": "0xc929959b439b6fc2eb53e7ceb602297ff3147146",
        "value": "0x0",
        "input": "0x60a03461007e57601f6119fa38819003918201601f19168301916001600160401b038311848410176100825780849260209460405283398101031261007e57516001600160a01b038116810361007e576080526040516119639081610097823960805181818160ab01528181610c0701528181610f6601526113a00152f35b5f80fd5b634e487b7160e01b5f52604160045260245ffdfe60806040526004361015610011575f80fd5b5f3560e01c80632229d0b414610c2b578063481c6a7514610bbd576391dd73461461003a575f80fd5b34610b1e5760207ffffffffffffffffffffffffffffffffffffffffffffffffffffffffffffffffc360112610b1e5760043567ffffffffffffffff8111610b1e5736602382011215610b1e57806004013567ffffffffffffffff8111610b1e578101906024820191368311610b1e577f00000000000000000000000000000000000000000000000000000000000000009273ffffffffffffffffffffffffffffffffffffffff841692833303610b1e57602081840312610b1e5760248101359067ffffffffffffffff8211610b1e57019061018082840312610b1e5760405191610123836110d8565b61012f6024820161117c565b83526040601f198286030112610b1e576040519061014c8261113d565b6101586044820161119d565b82526101666064820161119d565b60208301526020840191825260a060247fffffffffffffffffffffffffffffffffffffffffffffffffffffffffffffff7c838803010112610b1e57604051946101ae866110d8565b6101ba6084830161117c565b86526101c860a4830161117c565b602087015260c482013562ffffff81168103610b1e57604087015260e48201358060020b8103610b1e57606087015261010482013573ffffffffffffffffffffffffffffffffffffffff81168103610b1e577ffffffffffffffffffffffffffffffffffffffffffffffffffffffffffffffedc8360609360249360808b015260408901998a5203010112610b1e576040519261026384611121565b610270610124830161119d565b8452610144820135602085015261016482013573ffffffffffffffffffffffffffffffffffffffff81168103610b1e576040850152606085019384526101848201359167ffffffffffffffff8311610b1e576102cf92016024016111c6565b946080840195865261031273ffffffffffffffffffffffffffffffffffffffff8651511673ffffffffffffffffffffffffffffffffffffffff865116309161137b565b91505061035473ffffffffffffffffffffffffffffffffffffffff60208851015116309073ffffffffffffffffffffffffffffffffffffffff8851169061137b565b92915050610b7957610b3557610429956020916103f55f885161043d885195516040519c8d97889687957ff3cd914c000000000000000000000000000000000000000000000000000000008752600487019073ffffffffffffffffffffffffffffffffffffffff6080809282815116855282602082015116602086015262ffffff6040820151166040860152606081015160020b6060860152015116910152565b8051151560a4860152602081015160c48601526040015173ffffffffffffffffffffffffffffffffffffffff1660e4850152565b61012061010484015261012483019061120c565b03925af1948515610b2a575f95610af2575b5061048c73ffffffffffffffffffffffffffffffffffffffff85515116309073ffffffffffffffffffffffffffffffffffffffff8651169061137b565b979150506104cf73ffffffffffffffffffffffffffffffffffffffff60208751015116309073ffffffffffffffffffffffffffffffffffffffff8751169061137b565b855180519196935091501561089d57505f602082510151125f1461077957516020015187126106e957610509878760801d600f0b14611240565b5f831261067f57610564965b5f811261063d575b5f84126105e8575b5f81136105a0575b505f8313610568575b868660405190602082015260208152610550604082611159565b60405191829160208352602083019061120c565b0390f35b73ffffffffffffffffffffffffffffffffffffffff806020610596975101511694511691515115159361179d565b5f80808080610536565b6105e29073ffffffffffffffffffffffffffffffffffffffff875151169073ffffffffffffffffffffffffffffffffffffffff8751168486515115159361179d565b5f61052d565b61063873ffffffffffffffffffffffffffffffffffffffff6020885101511673ffffffffffffffffffffffffffffffffffffffff87511661062887611322565b9085602088510151151593611465565b610525565b61067a73ffffffffffffffffffffffffffffffffffffffff8751511673ffffffffffffffffffffffffffffffffffffffff87511661062884611322565b61051d565b608460405162461bcd60e51b815260206004820152602d60248201527f64656c7461416674657231206973206e6f742067726561746572207468616e2060448201527f6f7220657175616c20746f2030000000000000000000000000000000000000006064820152fd5b60a460405162461bcd60e51b815260206004820152604760248201527f64656c7461416674657230206973206e6f742067726561746572207468616e2060448201527f6f7220657175616c20746f20646174612e706172616d732e616d6f756e74537060648201527f65636966696564000000000000000000000000000000000000000000000000006084820152fd5b5f8813610833576020906107918589600f0b146112b1565b51015183136107a35761056496610515565b60a460405162461bcd60e51b815260206004820152604460248201527f64656c7461416674657231206973206e6f74206c657373207468616e206f722060448201527f657175616c20746f20646174612e706172616d732e616d6f756e74537065636960648201527f66696564000000000000000000000000000000000000000000000000000000006084820152fd5b608460405162461bcd60e51b815260206004820152602d60248201527f64656c7461416674657230206973206e6f74206c657373207468616e206f722060448201527f657175616c20746f207a65726f000000000000000000000000000000000000006064820152fd5b602001515f13156109cb575160200151831261093b576108c18387600f0b146112b1565b5f87126108d15761056496610515565b608460405162461bcd60e51b815260206004820152602d60248201527f64656c7461416674657230206973206e6f742067726561746572207468616e2060448201527f6f7220657175616c20746f2030000000000000000000000000000000000000006064820152fd5b60a460405162461bcd60e51b815260206004820152604760248201527f64656c7461416674657231206973206e6f742067726561746572207468616e2060448201527f6f7220657175616c20746f20646174612e706172616d732e616d6f756e74537060648201527f65636966696564000000000000000000000000000000000000000000000000006084820152fd5b5f8413610a88576020906109e6898960801d600f0b14611240565b51015187136109f85761056496610515565b60a460405162461bcd60e51b815260206004820152604460248201527f64656c7461416674657230206973206e6f74206c657373207468616e206f722060448201527f657175616c20746f20646174612e706172616d732e616d6f756e74537065636960648201527f66696564000000000000000000000000000000000000000000000000000000006084820152fd5b608460405162461bcd60e51b815260206004820152602a60248201527f64656c7461416674657231206973206e6f74206c657373207468616e206f722060448201527f657175616c20746f2030000000000000000000000000000000000000000000006064820152fd5b9094506020813d602011610b22575b81610b0e60209383611159565b81010312610b1e5751935f61044f565b5f80fd5b3d9150610b01565b6040513d5f823e3d90fd5b606460405162461bcd60e51b815260206004820152601e60248201527f64656c74614265666f726531206973206e6f7420657175616c20746f203000006044820152fd5b606460405162461bcd60e51b815260206004820152601e60248201527f64656c74614265666f726530206973206e6f7420657175616c20746f203000006044820152fd5b34610b1e575f7ffffffffffffffffffffffffffffffffffffffffffffffffffffffffffffffffc360112610b1e57602060405173ffffffffffffffffffffffffffffffffffffffff7f0000000000000000000000000000000000000000000000000000000000000000168152f35b7ffffffffffffffffffffffffffffffffffffffffffffffffffffffffffffffffc36016101608112610b1e5760a013610b1e57604051610c6a816110d8565b60043573ffffffffffffffffffffffffffffffffffffffff81168103610b1e57815260243573ffffffffffffffffffffffffffffffffffffffff81168103610b1e57602082015260443562ffffff81168103610b1e5760408201526064358060020b8103610b1e57606082015260843573ffffffffffffffffffffffffffffffffffffffff81168103610b1e57608082015260607fffffffffffffffffffffffffffffffffffffffffffffffffffffffffffffff5c360112610b1e57604051610d3281611121565b60a4358015158103610b1e57815260c435602082015260e43573ffffffffffffffffffffffffffffffffffffffff81168103610b1e57604082015260407ffffffffffffffffffffffffffffffffffffffffffffffffffffffffffffffefc360112610b1e5760405191610da48361113d565b610104358015158103610b1e578352610124358015158103610b1e5760208401526101443567ffffffffffffffff8111610b1e57610f4c93610f0373ffffffffffffffffffffffffffffffffffffffff93610eee5f96610eb6610e0e610f119736906004016111c6565b93602060405197610e1e896110d8565b3389528189019081526040890192835260608901948552608089019687526040519a8b9983808c0152511660408a0152518051151560608a01520151151560808801525160a087019073ffffffffffffffffffffffffffffffffffffffff6080809282815116855282602082015116602086015262ffffff6040820151166040860152606081015160020b6060860152015116910152565b518051151561014086015260208101516101608601526040015173ffffffffffffffffffffffffffffffffffffffff16610180850152565b516101806101a08401526101c083019061120c565b03601f198101835282611159565b604051809381927f48c8949100000000000000000000000000000000000000000000000000000000835260206004840152602483019061120c565b03818373ffffffffffffffffffffffffffffffffffffffff7f0000000000000000000000000000000000000000000000000000000000000000165af1908115610b2a575f9161105e575b5060208151918180820193849201010312610b1e57514780610fbe575b602082604051908152f35b5f80808093335af115610fd15781610fb3565b601f19601f3d0116604051907f90bfb8650000000000000000000000000000000000000000000000000000000082523360048301525f6024830152608060448301528060a00160648301523d60848301523d5f60a484013e7ff4b3b1bc0000000000000000000000000000000000000000000000000000000060c4828401600460a4820152015260e40190fd5b90503d805f833e61106f8183611159565b810190602081830312610b1e5780519067ffffffffffffffff8211610b1e570181601f82011215610b1e578051906110a6826111aa565b926110b46040519485611159565b82845260208383010111610b1e57815f9260208093018386015e8301015281610f96565b60a0810190811067ffffffffffffffff8211176110f457604052565b7f4e487b71000000000000000000000000000000000000000000000000000000005f52604160045260245ffd5b6060810190811067ffffffffffffffff8211176110f457604052565b6040810190811067ffffffffffffffff8211176110f457604052565b90601f601f19910116810190811067ffffffffffffffff8211176110f457604052565b359073ffffffffffffffffffffffffffffffffffffffff82168203610b1e57565b35908115158203610b1e57565b67ffffffffffffffff81116110f457601f01601f191660200190565b81601f82011215610b1e578035906111dd826111aa565b926111eb6040519485611159565b82845260208383010111610b1e57815f926020809301838601378301015290565b90601f19601f602080948051918291828752018686015e5f8582860101520116010190565b90816020910312610b1e575190565b1561124757565b608460405162461bcd60e51b815260206004820152602b60248201527f64656c74612e616d6f756e74302829206973206e6f7420657175616c20746f2060448201527f64656c74614166746572300000000000000000000000000000000000000000006064820152fd5b156112b857565b608460405162461bcd60e51b815260206004820152602b60248201527f64656c74612e616d6f756e74312829206973206e6f7420657175616c20746f2060448201527f64656c74614166746572310000000000000000000000000000000000000000006064820152fd5b7f8000000000000000000000000000000000000000000000000000000000000000811461134e575f0390565b7f4e487b71000000000000000000000000000000000000000000000000000000005f52601160045260245ffd5b929061138790846118ae565b9273ffffffffffffffffffffffffffffffffffffffff807f00000000000000000000000000000000000000000000000000000000000000001691816113cc84836118ae565b95165f5216602052602060405f206024604051809481937ff135baaa00000000000000000000000000000000000000000000000000000000835260048301525afa908115610b2a575f9161141e575090565b90506020813d602011611445575b8161143960209383611159565b81010312610b1e575190565b3d915061142c565b90816020910312610b1e57518015158103610b1e5790565b9293156115075773ffffffffffffffffffffffffffffffffffffffff16803b15610b1e576040517ff5298aca00000000000000000000000000000000000000000000000000000000815273ffffffffffffffffffffffffffffffffffffffff92831660048201529290911660248301526044820192909252905f908290818381606481015b03925af18015610b2a576114fb5750565b5f61150591611159565b565b9173ffffffffffffffffffffffffffffffffffffffff16806115a557505073ffffffffffffffffffffffffffffffffffffffff600460209260405194859384927f11da60b4000000000000000000000000000000000000000000000000000000008452165af18015610b2a5761157a5750565b61159b9060203d60201161159e575b6115938183611159565b810190611231565b50565b503d611589565b90929173ffffffffffffffffffffffffffffffffffffffff1691823b15610b1e57604051937fa58411940000000000000000000000000000000000000000000000000000000085525f948360048201525f8160248183895af18015610b2a57611774575b5073ffffffffffffffffffffffffffffffffffffffff1684308214611700576020929160649160405195869485937f23b872dd000000000000000000000000000000000000000000000000000000008552600485015288602485015260448401525af180156116f5579160209184936116c8575b505b6004604051809581937f11da60b40000000000000000000000000000000000000000000000000000000083525af19081156116bc575061157a5750565b604051903d90823e3d90fd5b6116e790833d85116116ee575b6116df8183611159565b81019061144d565b505f61167d565b503d6116d5565b6040513d85823e3d90fd5b929050604460209260405194859384927fa9059cbb00000000000000000000000000000000000000000000000000000000845288600485015260248401525af180156116f557916020918493611757575b5061167f565b61176d90833d85116116ee576116df8183611159565b505f611751565b6117819195505f90611159565b5f9373ffffffffffffffffffffffffffffffffffffffff611609565b9293156118265773ffffffffffffffffffffffffffffffffffffffff16803b15610b1e576040517f156e29f600000000000000000000000000000000000000000000000000000000815273ffffffffffffffffffffffffffffffffffffffff92831660048201529290911660248301526044820192909252905f908290818381606481016114ea565b90929073ffffffffffffffffffffffffffffffffffffffff16803b15610b1e575f928360649273ffffffffffffffffffffffffffffffffffffffff948560405198899788967f0b0d9c0900000000000000000000000000000000000000000000000000000000885216600487015216602485015260448401525af18015610b2a576114fb5750565b73ffffffffffffffffffffffffffffffffffffffff16806118ce57503190565b9073ffffffffffffffffffffffffffffffffffffffff602460209260405194859384927f70a082310000000000000000000000000000000000000000000000000000000084521660048301525afa908115610b2a575f9161141e57509056fea2646970667358221220388b1617a2d25555ba6bd93c591f1561ac8036b5e7557d0ba54f3663a972d92764736f6c6343000822003300000000000000000000000000b036b58a818b1bc34d502d3fe730db729e62ac",
        "nonce": "0x92",
        "chainId": "0x515"
      },
      "additionalContracts": [],
      "isFixedGasLimit": false
    },
    {
      "hash": "0xc0e04038f5b8ab2bb0966e36c188e423378151ac387d7baae7a4db2d9d2fb713",
      "transactionType": "CALL",
      "contractName": "MockERC20",
      "contractAddress": "0xd743227af9b3922bd5d8127662c5610c986cf06e",
      "function": "approve(address,uint256)",
      "arguments": [
        "0xb3b0D14C8804841a2E572779645f7a3845F52147",
        "115792089237316195423570985008687907853269984665640564039457584007913129639935"
      ],
      "transaction": {
        "from": "0xc929959b439b6fc2eb53e7ceb602297ff3147146",
        "to": "0xd743227af9b3922bd5d8127662c5610c986cf06e",
        "value": "0x0",
        "input": "0x095ea7b3000000000000000000000000b3b0d14c8804841a2e572779645f7a3845f52147ffffffffffffffffffffffffffffffffffffffffffffffffffffffffffffffff",
        "nonce": "0x93",
        "chainId": "0x515"
      },
      "additionalContracts": [],
      "isFixedGasLimit": false
    },
    {
      "hash": "0x711885c0725f5e26f1dc9f4ecffd1f3b716e55daace2a17d69339e1768018a79",
      "transactionType": "CALL",
      "contractName": "MockERC20",
      "contractAddress": "0x12fd0f73fb1da732c49a6383da934e665f500743",
      "function": "approve(address,uint256)",
      "arguments": [
        "0xb3b0D14C8804841a2E572779645f7a3845F52147",
        "115792089237316195423570985008687907853269984665640564039457584007913129639935"
      ],
      "transaction": {
        "from": "0xc929959b439b6fc2eb53e7ceb602297ff3147146",
        "to": "0x12fd0f73fb1da732c49a6383da934e665f500743",
        "value": "0x0",
        "input": "0x095ea7b3000000000000000000000000b3b0d14c8804841a2e572779645f7a3845f52147ffffffffffffffffffffffffffffffffffffffffffffffffffffffffffffffff",
        "nonce": "0x94",
        "chainId": "0x515"
      },
      "additionalContracts": [],
      "isFixedGasLimit": false
    },
    {
      "hash": "0x5630c957436a5de9d7a34023e354f42962106b13e404fa2b44255543e052ab33",
      "transactionType": "CALL",
      "contractName": "MockERC20",
      "contractAddress": "0x2da8207527095d4986ea12436965bf7895a17c16",
      "function": "approve(address,uint256)",
      "arguments": [
        "0xb3b0D14C8804841a2E572779645f7a3845F52147",
        "115792089237316195423570985008687907853269984665640564039457584007913129639935"
      ],
      "transaction": {
        "from": "0xc929959b439b6fc2eb53e7ceb602297ff3147146",
        "to": "0x2da8207527095d4986ea12436965bf7895a17c16",
        "value": "0x0",
        "input": "0x095ea7b3000000000000000000000000b3b0d14c8804841a2e572779645f7a3845f52147ffffffffffffffffffffffffffffffffffffffffffffffffffffffffffffffff",
        "nonce": "0x95",
        "chainId": "0x515"
      },
      "additionalContracts": [],
      "isFixedGasLimit": false
    },
    {
      "hash": "0xd710e24f32117974f859b9991bb4724c3a0a85943d7e211772d7ed075dcd19fb",
      "transactionType": "CALL",
      "contractName": "MockERC20",
      "contractAddress": "0x8ad7d64bde92d7428838ba74a891c6f1e1c73016",
      "function": "approve(address,uint256)",
      "arguments": [
        "0xb3b0D14C8804841a2E572779645f7a3845F52147",
        "115792089237316195423570985008687907853269984665640564039457584007913129639935"
      ],
      "transaction": {
        "from": "0xc929959b439b6fc2eb53e7ceb602297ff3147146",
        "to": "0x8ad7d64bde92d7428838ba74a891c6f1e1c73016",
        "value": "0x0",
        "input": "0x095ea7b3000000000000000000000000b3b0d14c8804841a2e572779645f7a3845f52147ffffffffffffffffffffffffffffffffffffffffffffffffffffffffffffffff",
        "nonce": "0x96",
        "chainId": "0x515"
      },
      "additionalContracts": [],
      "isFixedGasLimit": false
    },
    {
      "hash": "0x59621900464866d6d52fe7386d35ba3c529b7e53dee4740b1fcc3cbe1c555e57",
      "transactionType": "CALL",
      "contractName": "MockERC20",
      "contractAddress": "0xd743227af9b3922bd5d8127662c5610c986cf06e",
      "function": "approve(address,uint256)",
      "arguments": [
        "0x9370120dFD942c2e964dE4d822C36f455Bb21D42",
        "115792089237316195423570985008687907853269984665640564039457584007913129639935"
      ],
      "transaction": {
        "from": "0xc929959b439b6fc2eb53e7ceb602297ff3147146",
        "to": "0xd743227af9b3922bd5d8127662c5610c986cf06e",
        "value": "0x0",
        "input": "0x095ea7b30000000000000000000000009370120dfd942c2e964de4d822c36f455bb21d42ffffffffffffffffffffffffffffffffffffffffffffffffffffffffffffffff",
        "nonce": "0x97",
        "chainId": "0x515"
      },
      "additionalContracts": [],
      "isFixedGasLimit": false
    },
    {
      "hash": "0x04a59536651733eda9aeccd35860fdc91bdde7c887cd0260d2d60b20aadc21b0",
      "transactionType": "CALL",
      "contractName": "MockERC20",
      "contractAddress": "0x12fd0f73fb1da732c49a6383da934e665f500743",
      "function": "approve(address,uint256)",
      "arguments": [
        "0x9370120dFD942c2e964dE4d822C36f455Bb21D42",
        "115792089237316195423570985008687907853269984665640564039457584007913129639935"
      ],
      "transaction": {
        "from": "0xc929959b439b6fc2eb53e7ceb602297ff3147146",
        "to": "0x12fd0f73fb1da732c49a6383da934e665f500743",
        "value": "0x0",
        "input": "0x095ea7b30000000000000000000000009370120dfd942c2e964de4d822c36f455bb21d42ffffffffffffffffffffffffffffffffffffffffffffffffffffffffffffffff",
        "nonce": "0x98",
        "chainId": "0x515"
      },
      "additionalContracts": [],
      "isFixedGasLimit": false
    },
    {
      "hash": "0xbdfebed355e1a6bbb66f029ddb58770d94938726c6669c14a6b6726e4e736317",
      "transactionType": "CALL",
      "contractName": "MockERC20",
      "contractAddress": "0x2da8207527095d4986ea12436965bf7895a17c16",
      "function": "approve(address,uint256)",
      "arguments": [
        "0x9370120dFD942c2e964dE4d822C36f455Bb21D42",
        "115792089237316195423570985008687907853269984665640564039457584007913129639935"
      ],
      "transaction": {
        "from": "0xc929959b439b6fc2eb53e7ceb602297ff3147146",
        "to": "0x2da8207527095d4986ea12436965bf7895a17c16",
        "value": "0x0",
        "input": "0x095ea7b30000000000000000000000009370120dfd942c2e964de4d822c36f455bb21d42ffffffffffffffffffffffffffffffffffffffffffffffffffffffffffffffff",
        "nonce": "0x99",
        "chainId": "0x515"
      },
      "additionalContracts": [],
      "isFixedGasLimit": false
    },
    {
      "hash": "0x9afb75d601410debcbb5c3b63c18e8693d58ac423bbf927b6fd00af41b03c906",
      "transactionType": "CALL",
      "contractName": "MockERC20",
      "contractAddress": "0x8ad7d64bde92d7428838ba74a891c6f1e1c73016",
      "function": "approve(address,uint256)",
      "arguments": [
        "0x9370120dFD942c2e964dE4d822C36f455Bb21D42",
        "115792089237316195423570985008687907853269984665640564039457584007913129639935"
      ],
      "transaction": {
        "from": "0xc929959b439b6fc2eb53e7ceb602297ff3147146",
        "to": "0x8ad7d64bde92d7428838ba74a891c6f1e1c73016",
        "value": "0x0",
        "input": "0x095ea7b30000000000000000000000009370120dfd942c2e964de4d822c36f455bb21d42ffffffffffffffffffffffffffffffffffffffffffffffffffffffffffffffff",
        "nonce": "0x9a",
        "chainId": "0x515"
      },
      "additionalContracts": [],
      "isFixedGasLimit": false
    },
    {
      "hash": "0x15440a4b58c558e0d004146cdbd0e97bee02205cf386961477e296b25195d95e",
      "transactionType": "CALL",
      "contractName": null,
      "contractAddress": "0x00b036b58a818b1bc34d502d3fe730db729e62ac",
      "function": "initialize((address,address,uint24,int24,address),uint160)",
      "arguments": [
        "(0x2dA8207527095D4986ea12436965bF7895A17c16, 0xD743227aF9B3922BD5d8127662c5610c986CF06e, 3000, 60, 0x1DA4fbB614154420A4D11bBbF3aFec5385Ee40c0)",
        "20636906163351982855239162986496"
      ],
      "transaction": {
        "from": "0xc929959b439b6fc2eb53e7ceb602297ff3147146",
        "to": "0x00b036b58a818b1bc34d502d3fe730db729e62ac",
        "value": "0x0",
        "input": "0x6276cbbe0000000000000000000000002da8207527095d4986ea12436965bf7895a17c16000000000000000000000000d743227af9b3922bd5d8127662c5610c986cf06e0000000000000000000000000000000000000000000000000000000000000bb8000000000000000000000000000000000000000000000000000000000000003c0000000000000000000000001da4fbb614154420a4d11bbbf3afec5385ee40c000000000000000000000000000000000000001047970ae70492a618a5fed0000",
        "nonce": "0x9b",
        "chainId": "0x515"
      },
      "additionalContracts": [],
      "isFixedGasLimit": false
    },
    {
      "hash": "0xe42cd7089782e8718fe4e38d9eb2b7de24dfcdcf831e89f89d6e7818a76ca927",
      "transactionType": "CALL",
      "contractName": "SetupRouter",
      "contractAddress": "0xb3b0d14c8804841a2e572779645f7a3845f52147",
      "function": "modifyLiquidity((address,address,uint24,int24,address),(int24,int24,int256,bytes32))",
      "arguments": [
        "(0x2dA8207527095D4986ea12436965bF7895A17c16, 0xD743227aF9B3922BD5d8127662c5610c986CF06e, 3000, 60, 0x1DA4fbB614154420A4D11bBbF3aFec5385Ee40c0)",
        "(-887220, 887220, 3839115294586368902, 0x0000000000000000000000000000000000000000000000000000000000000000)"
      ],
      "transaction": {
        "from": "0xc929959b439b6fc2eb53e7ceb602297ff3147146",
        "to": "0xb3b0d14c8804841a2e572779645f7a3845f52147",
        "value": "0x0",
        "input": "0xcf4bac770000000000000000000000002da8207527095d4986ea12436965bf7895a17c16000000000000000000000000d743227af9b3922bd5d8127662c5610c986cf06e0000000000000000000000000000000000000000000000000000000000000bb8000000000000000000000000000000000000000000000000000000000000003c0000000000000000000000001da4fbb614154420a4d11bbbf3afec5385ee40c0fffffffffffffffffffffffffffffffffffffffffffffffffffffffffff2764c00000000000000000000000000000000000000000000000000000000000d89b4000000000000000000000000000000000000000000000000354747051996f3860000000000000000000000000000000000000000000000000000000000000000",
        "nonce": "0x9c",
        "chainId": "0x515"
      },
      "additionalContracts": [],
      "isFixedGasLimit": false
    },
    {
      "hash": "0x51af408e06784cf8cf8d8e1b4182524acf22de3fa20b7ac334b47952f59438fc",
      "transactionType": "CALL",
      "contractName": null,
      "contractAddress": "0x00b036b58a818b1bc34d502d3fe730db729e62ac",
      "function": "initialize((address,address,uint24,int24,address),uint160)",
      "arguments": [
        "(0x12Fd0f73FB1DA732c49A6383DA934e665F500743, 0x2dA8207527095D4986ea12436965bF7895A17c16, 3000, 60, 0x1DA4fbB614154420A4D11bBbF3aFec5385Ee40c0)",
        "304166050470486642314444800"
      ],
      "transaction": {
        "from": "0xc929959b439b6fc2eb53e7ceb602297ff3147146",
        "to": "0x00b036b58a818b1bc34d502d3fe730db729e62ac",
        "value": "0x0",
        "input": "0x6276cbbe00000000000000000000000012fd0f73fb1da732c49a6383da934e665f5007430000000000000000000000002da8207527095d4986ea12436965bf7895a17c160000000000000000000000000000000000000000000000000000000000000bb8000000000000000000000000000000000000000000000000000000000000003c0000000000000000000000001da4fbb614154420a4d11bbbf3afec5385ee40c0000000000000000000000000000000000000000000fb99aaa2c538b000000000",
        "nonce": "0x9d",
        "chainId": "0x515"
      },
      "additionalContracts": [],
      "isFixedGasLimit": false
    },
    {
      "hash": "0xc4135a5d1c002fba8bd64c7f98664bfa638fcbc16d41912a77dea15f3de50cc7",
      "transactionType": "CALL",
      "contractName": "SetupRouter",
      "contractAddress": "0xb3b0d14c8804841a2e572779645f7a3845f52147",
      "function": "modifyLiquidity((address,address,uint24,int24,address),(int24,int24,int256,bytes32))",
      "arguments": [
        "(0x12Fd0f73FB1DA732c49A6383DA934e665F500743, 0x2dA8207527095D4986ea12436965bF7895A17c16, 3000, 60, 0x1DA4fbB614154420A4D11bBbF3aFec5385Ee40c0)",
        "(-887220, 887220, 3839115294586368902, 0x0000000000000000000000000000000000000000000000000000000000000000)"
      ],
      "transaction": {
        "from": "0xc929959b439b6fc2eb53e7ceb602297ff3147146",
        "to": "0xb3b0d14c8804841a2e572779645f7a3845f52147",
        "value": "0x0",
        "input": "0xcf4bac7700000000000000000000000012fd0f73fb1da732c49a6383da934e665f5007430000000000000000000000002da8207527095d4986ea12436965bf7895a17c160000000000000000000000000000000000000000000000000000000000000bb8000000000000000000000000000000000000000000000000000000000000003c0000000000000000000000001da4fbb614154420a4d11bbbf3afec5385ee40c0fffffffffffffffffffffffffffffffffffffffffffffffffffffffffff2764c00000000000000000000000000000000000000000000000000000000000d89b4000000000000000000000000000000000000000000000000354747051996f3860000000000000000000000000000000000000000000000000000000000000000",
        "nonce": "0x9e",
        "chainId": "0x515"
      },
      "additionalContracts": [],
      "isFixedGasLimit": false
    },
    {
      "hash": "0x2a274f9140760ea132eceb7b3a2532b987de1fbee7589e8f2af5329df9d72669",
      "transactionType": "CALL",
      "contractName": null,
      "contractAddress": "0x00b036b58a818b1bc34d502d3fe730db729e62ac",
      "function": "initialize((address,address,uint24,int24,address),uint160)",
      "arguments": [
        "(0x12Fd0f73FB1DA732c49A6383DA934e665F500743, 0xD743227aF9B3922BD5d8127662c5610c986CF06e, 500, 10, 0x1DA4fbB614154420A4D11bBbF3aFec5385Ee40c0)",
        "79228162514264337593543950336"
      ],
      "transaction": {
        "from": "0xc929959b439b6fc2eb53e7ceb602297ff3147146",
        "to": "0x00b036b58a818b1bc34d502d3fe730db729e62ac",
        "value": "0x0",
        "input": "0x6276cbbe00000000000000000000000012fd0f73fb1da732c49a6383da934e665f500743000000000000000000000000d743227af9b3922bd5d8127662c5610c986cf06e00000000000000000000000000000000000000000000000000000000000001f4000000000000000000000000000000000000000000000000000000000000000a0000000000000000000000001da4fbb614154420a4d11bbbf3afec5385ee40c00000000000000000000000000000000000000001000000000000000000000000",
        "nonce": "0x9f",
        "chainId": "0x515"
      },
      "additionalContracts": [],
      "isFixedGasLimit": false
    },
    {
      "hash": "0xd10e33f9ffca6ecfc874e962da96c54c8ee582b45494ac36e2eaee8d49a6ef16",
      "transactionType": "CALL",
      "contractName": "SetupRouter",
      "contractAddress": "0xb3b0d14c8804841a2e572779645f7a3845f52147",
      "function": "modifyLiquidity((address,address,uint24,int24,address),(int24,int24,int256,bytes32))",
      "arguments": [
        "(0x12Fd0f73FB1DA732c49A6383DA934e665F500743, 0xD743227aF9B3922BD5d8127662c5610c986CF06e, 500, 10, 0x1DA4fbB614154420A4D11bBbF3aFec5385Ee40c0)",
        "(-887270, 887270, 1000000000000000000000, 0x0000000000000000000000000000000000000000000000000000000000000000)"
      ],
      "transaction": {
        "from": "0xc929959b439b6fc2eb53e7ceb602297ff3147146",
        "to": "0xb3b0d14c8804841a2e572779645f7a3845f52147",
        "value": "0x0",
        "input": "0xcf4bac7700000000000000000000000012fd0f73fb1da732c49a6383da934e665f500743000000000000000000000000d743227af9b3922bd5d8127662c5610c986cf06e00000000000000000000000000000000000000000000000000000000000001f4000000000000000000000000000000000000000000000000000000000000000a0000000000000000000000001da4fbb614154420a4d11bbbf3afec5385ee40c0fffffffffffffffffffffffffffffffffffffffffffffffffffffffffff2761a00000000000000000000000000000000000000000000000000000000000d89e600000000000000000000000000000000000000000000003635c9adc5dea000000000000000000000000000000000000000000000000000000000000000000000",
        "nonce": "0xa0",
        "chainId": "0x515"
      },
      "additionalContracts": [],
      "isFixedGasLimit": false
    },
    {
      "hash": "0x4c22cd7b4283e2ffa63c2b0dbe15c037e80ddee58305f52451b14749d582dadd",
      "transactionType": "CALL",
      "contractName": null,
      "contractAddress": "0x00b036b58a818b1bc34d502d3fe730db729e62ac",
      "function": "initialize((address,address,uint24,int24,address),uint160)",
      "arguments": [
        "(0x8Ad7D64bDe92d7428838ba74a891c6f1E1c73016, 0xD743227aF9B3922BD5d8127662c5610c986CF06e, 3000, 60, 0x1DA4fbB614154420A4D11bBbF3aFec5385Ee40c0)",
        "3543191142285914205922034323200"
      ],
      "transaction": {
        "from": "0xc929959b439b6fc2eb53e7ceb602297ff3147146",
        "to": "0x00b036b58a818b1bc34d502d3fe730db729e62ac",
        "value": "0x0",
        "input": "0x6276cbbe0000000000000000000000008ad7d64bde92d7428838ba74a891c6f1e1c73016000000000000000000000000d743227af9b3922bd5d8127662c5610c986cf06e0000000000000000000000000000000000000000000000000000000000000bb8000000000000000000000000000000000000000000000000000000000000003c0000000000000000000000001da4fbb614154420a4d11bbbf3afec5385ee40c0000000000000000000000000000000000000002cb8ab04fbe3a3636e107e0f00",
        "nonce": "0xa1",
        "chainId": "0x515"
      },
      "additionalContracts": [],
      "isFixedGasLimit": false
    },
    {
      "hash": "0x4c463379bbd962851305b82af87b7069cb620f3e1790189cf98a498a2c285387",
      "transactionType": "CALL",
      "contractName": "SetupRouter",
      "contractAddress": "0xb3b0d14c8804841a2e572779645f7a3845f52147",
      "function": "modifyLiquidity((address,address,uint24,int24,address),(int24,int24,int256,bytes32))",
      "arguments": [
        "(0x8Ad7D64bDe92d7428838ba74a891c6f1E1c73016, 0xD743227aF9B3922BD5d8127662c5610c986CF06e, 3000, 60, 0x1DA4fbB614154420A4D11bBbF3aFec5385Ee40c0)",
        "(-887220, 887220, 3839115294586368902, 0x0000000000000000000000000000000000000000000000000000000000000000)"
      ],
      "transaction": {
        "from": "0xc929959b439b6fc2eb53e7ceb602297ff3147146",
        "to": "0xb3b0d14c8804841a2e572779645f7a3845f52147",
        "value": "0x0",
        "input": "0xcf4bac770000000000000000000000008ad7d64bde92d7428838ba74a891c6f1e1c73016000000000000000000000000d743227af9b3922bd5d8127662c5610c986cf06e0000000000000000000000000000000000000000000000000000000000000bb8000000000000000000000000000000000000000000000000000000000000003c0000000000000000000000001da4fbb614154420a4d11bbbf3afec5385ee40c0fffffffffffffffffffffffffffffffffffffffffffffffffffffffffff2764c00000000000000000000000000000000000000000000000000000000000d89b4000000000000000000000000000000000000000000000000354747051996f3860000000000000000000000000000000000000000000000000000000000000000",
        "nonce": "0xa2",
        "chainId": "0x515"
      },
      "additionalContracts": [],
      "isFixedGasLimit": false
    }
  ],
  "receipts": [
    {
      "status": "0x1",
      "cumulativeGasUsed": "0xdfcc8",
      "logs": [
        {
          "address": "0xd743227af9b3922bd5d8127662c5610c986cf06e",
          "topics": [
            "0xddf252ad1be2c89b69c2b068fc378daa952ba7f163c4a11628f55a4df523b3ef",
            "0x0000000000000000000000000000000000000000000000000000000000000000",
            "0x000000000000000000000000c929959b439b6fc2eb53e7ceb602297ff3147146"
          ],
          "data": "0x000000000000000000000000000000000000000000084595161401484a000000",
          "blockHash": "0x834b98797386ad899ea049da5340a50231dbd06b5b89c094939e18f3703ca3d2",
          "blockNumber": "0x2cc030a",
          "blockTimestamp": "0x69b9b056",
          "transactionHash": "0xe20057be60ea2d7ef96ded7d57cf369fb0d9ae4859448339239e290cc481cbf5",
          "transactionIndex": "0x4",
          "logIndex": "0x2",
          "removed": false
        }
      ],
      "logsBloom": "0x00000000000000000000000000000000000000000000000000000000000000000000000000000000000000000000000000000000000000000000000000000000008000000000000000000008000000000000000000000000000000000000000000000000020000000000000000000800000000000000020000000010000000000000000000000000800000000000000000000000000000000000000000000000000000000000000000000000000000000000000000000000000000080000001000000002000000000000000000000000000000000000000000000000000020000000000000000000000000000000000004000000000000000000000000000000",
      "type": "0x0",
      "transactionHash": "0xe20057be60ea2d7ef96ded7d57cf369fb0d9ae4859448339239e290cc481cbf5",
      "transactionIndex": "0x4",
      "blockHash": "0x834b98797386ad899ea049da5340a50231dbd06b5b89c094939e18f3703ca3d2",
      "blockNumber": "0x2cc030a",
      "gasUsed": "0x9fcca",
      "effectiveGasPrice": "0x16e360",
      "blobGasUsed": "0xb0f40",
      "from": "0xc929959b439b6fc2eb53e7ceb602297ff3147146",
      "to": null,
      "contractAddress": "0xd743227af9b3922bd5d8127662c5610c986cf06e",
      "daFootprintGasScalar": "0x190",
      "l1BaseFeeScalar": "0x7d0",
      "l1BlobBaseFee": "0x1",
      "l1BlobBaseFeeScalar": "0xdbba0",
      "l1Fee": "0x869",
      "l1GasPrice": "0x9",
      "l1GasUsed": "0x714c"
    },
    {
      "status": "0x1",
      "cumulativeGasUsed": "0x104255",
      "logs": [
        {
          "address": "0x12fd0f73fb1da732c49a6383da934e665f500743",
          "topics": [
            "0xddf252ad1be2c89b69c2b068fc378daa952ba7f163c4a11628f55a4df523b3ef",
            "0x0000000000000000000000000000000000000000000000000000000000000000",
            "0x000000000000000000000000c929959b439b6fc2eb53e7ceb602297ff3147146"
          ],
          "data": "0x000000000000000000000000000000000000000000084595161401484a000000",
          "blockHash": "0xb642efc8bc62a60210e4a5291c9e4420ecc32eca57c933cb259d990ef6364b9e",
          "blockNumber": "0x2cc030d",
          "blockTimestamp": "0x69b9b059",
          "transactionHash": "0xbc4a2ba015f7c5b0fccdad3c1cfdec5ad287e1c306c13c39843b9b039c36582e",
          "transactionIndex": "0x5",
          "logIndex": "0x6",
          "removed": false
        }
      ],
      "logsBloom": "0x00000000000000000000000000000000000000000000000000000000000000000000000000000004000000000000000000000000000000000000000000000000000000000000000000000008000000000000000000000000000000000000000000000000020000000000000000000800000000000000020000000010000000000000000000000000800000000000000000000000000000000000000000000000000000000000000000000000000000000000000000000000000000000000000000000002000000000000000000000000100000000002000000000000000020000000000000000000000000000000000004000000000000000000000000000000",
      "type": "0x0",
      "transactionHash": "0xbc4a2ba015f7c5b0fccdad3c1cfdec5ad287e1c306c13c39843b9b039c36582e",
      "transactionIndex": "0x5",
      "blockHash": "0xb642efc8bc62a60210e4a5291c9e4420ecc32eca57c933cb259d990ef6364b9e",
      "blockNumber": "0x2cc030d",
      "gasUsed": "0x9fcb2",
      "effectiveGasPrice": "0x16e360",
      "blobGasUsed": "0xb0db0",
      "from": "0xc929959b439b6fc2eb53e7ceb602297ff3147146",
      "to": null,
      "contractAddress": "0x12fd0f73fb1da732c49a6383da934e665f500743",
      "daFootprintGasScalar": "0x190",
      "l1BaseFeeScalar": "0x7d0",
      "l1BlobBaseFee": "0x1",
      "l1BlobBaseFeeScalar": "0xdbba0",
      "l1Fee": "0x868",
      "l1GasPrice": "0x9",
      "l1GasUsed": "0x713e"
    },
    {
      "status": "0x1",
      "cumulativeGasUsed": "0x123772",
      "logs": [
        {
          "address": "0x2da8207527095d4986ea12436965bf7895a17c16",
          "topics": [
            "0xddf252ad1be2c89b69c2b068fc378daa952ba7f163c4a11628f55a4df523b3ef",
            "0x0000000000000000000000000000000000000000000000000000000000000000",
            "0x000000000000000000000000c929959b439b6fc2eb53e7ceb602297ff3147146"
          ],
          "data": "0x00000000000000000000000000000000000000000000003635c9adc5dea00000",
          "blockHash": "0x737bcadfc3a04e637ecb7fddf48623bdfecf4a229806c8570379a24cfaf60d76",
          "blockNumber": "0x2cc030f",
          "blockTimestamp": "0x69b9b05b",
          "transactionHash": "0x29b4b8dc3102e48051f3da7ee7be680e324e19ac67b04756ecfb202d47ebdb7b",
          "transactionIndex": "0x7",
          "logIndex": "0x5",
          "removed": false
        }
      ],
      "logsBloom": "0x00000000008000000000000000000000000000000000000000000000000000000000000000000000000000000000000000000000000000000000000000000000000000000000000000000008000000000000000000000000000000000000000000000000020000000000000000000800000000000000020000000010000000000000000000000000800000000000000000000000000000000000000008000000000000000000000000000000000000000000000000000000000000000000000000000002000000000000000000000000002000000000000000000000000020000000000000000000000000000000000004000000000000000000000000000000",
      "type": "0x0",
      "transactionHash": "0x29b4b8dc3102e48051f3da7ee7be680e324e19ac67b04756ecfb202d47ebdb7b",
      "transactionIndex": "0x7",
      "blockHash": "0x737bcadfc3a04e637ecb7fddf48623bdfecf4a229806c8570379a24cfaf60d76",
      "blockNumber": "0x2cc030f",
      "gasUsed": "0x9fcbe",
      "effectiveGasPrice": "0x16e360",
      "blobGasUsed": "0xb0a90",
      "from": "0xc929959b439b6fc2eb53e7ceb602297ff3147146",
      "to": null,
      "contractAddress": "0x2da8207527095d4986ea12436965bf7895a17c16",
      "daFootprintGasScalar": "0x190",
      "l1BaseFeeScalar": "0x7d0",
      "l1BlobBaseFee": "0x1",
      "l1BlobBaseFeeScalar": "0xdbba0",
      "l1Fee": "0x865",
      "l1GasPrice": "0x9",
      "l1GasUsed": "0x7116"
    },
    {
      "status": "0x1",
      "cumulativeGasUsed": "0xc76b6",
      "logs": [
        {
          "address": "0x8ad7d64bde92d7428838ba74a891c6f1e1c73016",
          "topics": [
            "0xddf252ad1be2c89b69c2b068fc378daa952ba7f163c4a11628f55a4df523b3ef",
            "0x0000000000000000000000000000000000000000000000000000000000000000",
            "0x000000000000000000000000c929959b439b6fc2eb53e7ceb602297ff3147146"
          ],
          "data": "0x00000000000000000000000000000000000000000000d3c21bcecceda1000000",
          "blockHash": "0x0ca4029fb58af1952f2fb605c741eea32d0083dc9b0ae3ed70b9816f07cddc19",
          "blockNumber": "0x2cc0311",
          "blockTimestamp": "0x69b9b05d",
          "transactionHash": "0x1185ecaf558fbad6d13b1895a4cd6131a354ade1d38bdfb28021d7f58ddf43a0",
          "transactionIndex": "0x3",
          "logIndex": "0x1",
          "removed": false
        }
      ],
      "logsBloom": "0x00000000000000000000000000000000000000000000000000000000000000000000000000000000000000000000000000000000000000000000000000000000000000000000000000000008000000000000000000800000000000000000000000000000020000000000000000000800000000000000020000000010000000000000000000000000800000000000000000000000000000000000000000000000000000000050000000000000000000000000000000000000000000000000000000000002000000000000000000000000000000000000000000000000000020000000000000000000000000000000000004000000000000000000000000000000",
      "type": "0x0",
      "transactionHash": "0x1185ecaf558fbad6d13b1895a4cd6131a354ade1d38bdfb28021d7f58ddf43a0",
      "transactionIndex": "0x3",
      "blockHash": "0x0ca4029fb58af1952f2fb605c741eea32d0083dc9b0ae3ed70b9816f07cddc19",
      "blockNumber": "0x2cc0311",
      "gasUsed": "0x9fcbe",
      "effectiveGasPrice": "0x16e360",
      "blobGasUsed": "0xb0db0",
      "from": "0xc929959b439b6fc2eb53e7ceb602297ff3147146",
      "to": null,
      "contractAddress": "0x8ad7d64bde92d7428838ba74a891c6f1e1c73016",
      "daFootprintGasScalar": "0x190",
      "l1BaseFeeScalar": "0x7d0",
      "l1BlobBaseFee": "0x1",
      "l1BlobBaseFeeScalar": "0xdbba0",
      "l1Fee": "0x868",
      "l1GasPrice": "0x9",
      "l1GasUsed": "0x713e"
    },
    {
      "status": "0x1",
      "cumulativeGasUsed": "0x8bf1d",
      "logs": [
        {
          "address": "0xd743227af9b3922bd5d8127662c5610c986cf06e",
          "topics": [
            "0xddf252ad1be2c89b69c2b068fc378daa952ba7f163c4a11628f55a4df523b3ef",
            "0x0000000000000000000000000000000000000000000000000000000000000000",
            "0x000000000000000000000000c929959b439b6fc2eb53e7ceb602297ff3147146"
          ],
          "data": "0x000000000000000000000000000000000000000000084595161401484a000000",
          "blockHash": "0x1534b764d90bc9dbdb70bc4b048caa1daddc9cff3a5107fd8cb3eeebe607d266",
          "blockNumber": "0x2cc0313",
          "blockTimestamp": "0x69b9b05f",
          "transactionHash": "0xb6a3861c48423399a137a2595f2649c4186916d63f165d9e955ba15b8fe37745",
          "transactionIndex": "0x7",
          "logIndex": "0x5",
          "removed": false
        }
      ],
      "logsBloom": "0x00000000000000000000000000000000000000000000000000000000000000000000000000000000000000000000000000000000000000000000000000000000008000000000000000000008000000000000000000000000000000000000000000000000020000000000000000000800000000000000020000000010000000000000000000000000800000000000000000000000000000000000000000000000000000000000000000000000000000000000000000000000000000080000001000000002000000000000000000000000000000000000000000000000000020000000000000000000000000000000000004000000000000000000000000000000",
      "type": "0x0",
      "transactionHash": "0xb6a3861c48423399a137a2595f2649c4186916d63f165d9e955ba15b8fe37745",
      "transactionIndex": "0x7",
      "blockHash": "0x1534b764d90bc9dbdb70bc4b048caa1daddc9cff3a5107fd8cb3eeebe607d266",
      "blockNumber": "0x2cc0313",
      "gasUsed": "0x8469",
      "effectiveGasPrice": "0x16e360",
      "blobGasUsed": "0x9c40",
      "from": "0xc929959b439b6fc2eb53e7ceb602297ff3147146",
      "to": "0xd743227af9b3922bd5d8127662c5610c986cf06e",
      "contractAddress": null,
      "daFootprintGasScalar": "0x190",
      "l1BaseFeeScalar": "0x7d0",
      "l1BlobBaseFee": "0x1",
      "l1BlobBaseFeeScalar": "0xdbba0",
      "l1Fee": "0x76",
      "l1GasPrice": "0x9",
      "l1GasUsed": "0x640"
    },
    {
      "status": "0x1",
      "cumulativeGasUsed": "0x2fe49",
      "logs": [
        {
          "address": "0x12fd0f73fb1da732c49a6383da934e665f500743",
          "topics": [
            "0xddf252ad1be2c89b69c2b068fc378daa952ba7f163c4a11628f55a4df523b3ef",
            "0x0000000000000000000000000000000000000000000000000000000000000000",
            "0x000000000000000000000000c929959b439b6fc2eb53e7ceb602297ff3147146"
          ],
          "data": "0x000000000000000000000000000000000000000000084595161401484a000000",
          "blockHash": "0xc6ef44c3d37894b54b139263e3f70198c3defd385f75fd077573e80e23b4cfd2",
          "blockNumber": "0x2cc0315",
          "blockTimestamp": "0x69b9b061",
          "transactionHash": "0xb13bbd7da2eefe3695a497d9503437c2a16cd0df6380f2a57ffd87d552901dc5",
          "transactionIndex": "0x3",
          "logIndex": "0x1",
          "removed": false
        }
      ],
      "logsBloom": "0x00000000000000000000000000000000000000000000000000000000000000000000000000000004000000000000000000000000000000000000000000000000000000000000000000000008000000000000000000000000000000000000000000000000020000000000000000000800000000000000020000000010000000000000000000000000800000000000000000000000000000000000000000000000000000000000000000000000000000000000000000000000000000000000000000000002000000000000000000000000100000000002000000000000000020000000000000000000000000000000000004000000000000000000000000000000",
      "type": "0x0",
      "transactionHash": "0xb13bbd7da2eefe3695a497d9503437c2a16cd0df6380f2a57ffd87d552901dc5",
      "transactionIndex": "0x3",
      "blockHash": "0xc6ef44c3d37894b54b139263e3f70198c3defd385f75fd077573e80e23b4cfd2",
      "blockNumber": "0x2cc0315",
      "gasUsed": "0x8469",
      "effectiveGasPrice": "0x16e360",
      "blobGasUsed": "0x9c40",
      "from": "0xc929959b439b6fc2eb53e7ceb602297ff3147146",
      "to": "0x12fd0f73fb1da732c49a6383da934e665f500743",
      "contractAddress": null,
      "daFootprintGasScalar": "0x190",
      "l1BaseFeeScalar": "0x7d0",
      "l1BlobBaseFee": "0x1",
      "l1BlobBaseFeeScalar": "0xdbba0",
      "l1Fee": "0x76",
      "l1GasPrice": "0x9",
      "l1GasUsed": "0x640"
    },
    {
      "status": "0x1",
      "cumulativeGasUsed": "0x2fe55",
      "logs": [
        {
          "address": "0x2da8207527095d4986ea12436965bf7895a17c16",
          "topics": [
            "0xddf252ad1be2c89b69c2b068fc378daa952ba7f163c4a11628f55a4df523b3ef",
            "0x0000000000000000000000000000000000000000000000000000000000000000",
            "0x000000000000000000000000c929959b439b6fc2eb53e7ceb602297ff3147146"
          ],
          "data": "0x00000000000000000000000000000000000000000000003635c9adc5dea00000",
          "blockHash": "0x4c81f329c337021fea2cb66c978e9a4695197b41f012e7b9bd525eed30a9150b",
          "blockNumber": "0x2cc0318",
          "blockTimestamp": "0x69b9b064",
          "transactionHash": "0x09f0f52738a0715a9dd2c554b0efa4cf67f48d807d0713e8217df932d60318c3",
          "transactionIndex": "0x3",
          "logIndex": "0x1",
          "removed": false
        }
      ],
      "logsBloom": "0x00000000008000000000000000000000000000000000000000000000000000000000000000000000000000000000000000000000000000000000000000000000000000000000000000000008000000000000000000000000000000000000000000000000020000000000000000000800000000000000020000000010000000000000000000000000800000000000000000000000000000000000000008000000000000000000000000000000000000000000000000000000000000000000000000000002000000000000000000000000002000000000000000000000000020000000000000000000000000000000000004000000000000000000000000000000",
      "type": "0x0",
      "transactionHash": "0x09f0f52738a0715a9dd2c554b0efa4cf67f48d807d0713e8217df932d60318c3",
      "transactionIndex": "0x3",
      "blockHash": "0x4c81f329c337021fea2cb66c978e9a4695197b41f012e7b9bd525eed30a9150b",
      "blockNumber": "0x2cc0318",
      "gasUsed": "0x845d",
      "effectiveGasPrice": "0x16e360",
      "blobGasUsed": "0x9c40",
      "from": "0xc929959b439b6fc2eb53e7ceb602297ff3147146",
      "to": "0x2da8207527095d4986ea12436965bf7895a17c16",
      "contractAddress": null,
      "daFootprintGasScalar": "0x190",
      "l1BaseFeeScalar": "0x7d0",
      "l1BlobBaseFee": "0x1",
      "l1BlobBaseFeeScalar": "0xdbba0",
      "l1Fee": "0x76",
      "l1GasPrice": "0x9",
      "l1GasUsed": "0x640"
    },
    {
      "status": "0x1",
      "cumulativeGasUsed": "0x74edf",
      "logs": [
        {
          "address": "0x8ad7d64bde92d7428838ba74a891c6f1e1c73016",
          "topics": [
            "0xddf252ad1be2c89b69c2b068fc378daa952ba7f163c4a11628f55a4df523b3ef",
            "0x0000000000000000000000000000000000000000000000000000000000000000",
            "0x000000000000000000000000c929959b439b6fc2eb53e7ceb602297ff3147146"
          ],
          "data": "0x00000000000000000000000000000000000000000000d3c21bcecceda1000000",
          "blockHash": "0xa87b8747dc414f3a83aad218221ccec4beb2a160ac7a14176bbf97b0d93db3ff",
          "blockNumber": "0x2cc031a",
          "blockTimestamp": "0x69b9b066",
          "transactionHash": "0x8b53e4786fa06a0009946361b231e6186745b4a5f531c64ecc3af11c226c9bee",
          "transactionIndex": "0x6",
          "logIndex": "0x4",
          "removed": false
        }
      ],
      "logsBloom": "0x00000000000000000000000000000000000000000000000000000000000000000000000000000000000000000000000000000000000000000000000000000000000000000000000000000008000000000000000000800000000000000000000000000000020000000000000000000800000000000000020000000010000000000000000000000000800000000000000000000000000000000000000000000000000000000050000000000000000000000000000000000000000000000000000000000002000000000000000000000000000000000000000000000000000020000000000000000000000000000000000004000000000000000000000000000000",
      "type": "0x0",
      "transactionHash": "0x8b53e4786fa06a0009946361b231e6186745b4a5f531c64ecc3af11c226c9bee",
      "transactionIndex": "0x6",
      "blockHash": "0xa87b8747dc414f3a83aad218221ccec4beb2a160ac7a14176bbf97b0d93db3ff",
      "blockNumber": "0x2cc031a",
      "gasUsed": "0x845d",
      "effectiveGasPrice": "0x16e360",
      "blobGasUsed": "0x9c40",
      "from": "0xc929959b439b6fc2eb53e7ceb602297ff3147146",
      "to": "0x8ad7d64bde92d7428838ba74a891c6f1e1c73016",
      "contractAddress": null,
      "daFootprintGasScalar": "0x190",
      "l1BaseFeeScalar": "0x7d0",
      "l1BlobBaseFee": "0x1",
      "l1BlobBaseFeeScalar": "0xdbba0",
      "l1Fee": "0x76",
      "l1GasPrice": "0x9",
      "l1GasUsed": "0x640"
    },
    {
      "status": "0x1",
      "cumulativeGasUsed": "0x15d1bc",
      "logs": [],
      "logsBloom": "0x00000000000000000000000000000000000000000000000000000000000000000000000000000000000000000000000000000000000000000000000000000000000000000000000000000000000000000000000000000000000000000000000000000000000000000000000000000000000000000000000000000000000000000000000000000000000000000000000000000000000000000000000000000000000000000000000000000000000000000000000000000000000000000000000000000000000000000000000000000000000000000000000000000000000000000000000000000000000000000000000000000000000000000000000000000000",
      "type": "0x0",
      "transactionHash": "0x49ac62784e36f14c5a9f19cbefd9379d04b59bbcfd8d6cb7e28a760c8ea14be3",
      "transactionIndex": "0x7",
      "blockHash": "0x5f677436fd0d63efcc47284b5426a7dbe7f312a798380ac3a434969fb67c72ed",
      "blockNumber": "0x2cc031b",
      "gasUsed": "0xcc6a0",
      "effectiveGasPrice": "0x16e360",
      "blobGasUsed": "0xb3fb0",
      "from": "0xc929959b439b6fc2eb53e7ceb602297ff3147146",
      "to": null,
      "contractAddress": "0xb3b0d14c8804841a2e572779645f7a3845f52147",
      "daFootprintGasScalar": "0x190",
      "l1BaseFeeScalar": "0x7d0",
      "l1BlobBaseFee": "0x1",
      "l1BlobBaseFeeScalar": "0xdbba0",
      "l1Fee": "0x88e",
      "l1GasPrice": "0x9",
      "l1GasUsed": "0x733b"
    },
    {
      "status": "0x1",
      "cumulativeGasUsed": "0x1d05f7",
      "logs": [],
      "logsBloom": "0x00000000000000000000000000000000000000000000000000000000000000000000000000000000000000000000000000000000000000000000000000000000000000000000000000000000000000000000000000000000000000000000000000000000000000000000000000000000000000000000000000000000000000000000000000000000000000000000000000000000000000000000000000000000000000000000000000000000000000000000000000000000000000000000000000000000000000000000000000000000000000000000000000000000000000000000000000000000000000000000000000000000000000000000000000000000",
      "type": "0x0",
      "transactionHash": "0x456ecabdd3c97cd693bbeded1e7effa23c89a4f4a09d54180547f47ce84d7fc3",
      "transactionIndex": "0x6",
      "blockHash": "0x2547093021f76a894dcd9b091ec3ca5fc026d553df7836f6a99038648e777fc7",
      "blockNumber": "0x2cc031c",
      "gasUsed": "0x1625a1",
      "effectiveGasPrice": "0x16e360",
      "blobGasUsed": "0x10a680",
      "from": "0xc929959b439b6fc2eb53e7ceb602297ff3147146",
      "to": null,
      "contractAddress": "0x9370120dfd942c2e964de4d822c36f455bb21d42",
      "daFootprintGasScalar": "0x190",
      "l1BaseFeeScalar": "0x7d0",
      "l1BlobBaseFee": "0x1",
      "l1BlobBaseFeeScalar": "0xdbba0",
      "l1Fee": "0xca9",
      "l1GasPrice": "0x9",
      "l1GasUsed": "0xaa8b"
    },
    {
      "status": "0x1",
      "cumulativeGasUsed": "0xad0d6",
      "logs": [
        {
          "address": "0xd743227af9b3922bd5d8127662c5610c986cf06e",
          "topics": [
            "0x8c5be1e5ebec7d5bd14f71427d1e84f3dd0314c0f7b2291e5b200ac8c7c3b925",
            "0x000000000000000000000000c929959b439b6fc2eb53e7ceb602297ff3147146",
            "0x000000000000000000000000b3b0d14c8804841a2e572779645f7a3845f52147"
          ],
          "data": "0xffffffffffffffffffffffffffffffffffffffffffffffffffffffffffffffff",
          "blockHash": "0xde9947938cccd6b58e011e304d3aa2044b89a63ec3f355438951ad3af412abce",
          "blockNumber": "0x2cc031d",
          "blockTimestamp": "0x69b9b069",
          "transactionHash": "0xc0e04038f5b8ab2bb0966e36c188e423378151ac387d7baae7a4db2d9d2fb713",
          "transactionIndex": "0x8",
          "logIndex": "0xc",
          "removed": false
        }
      ],
      "logsBloom": "0x00000400000000000000000000000000000000000000000000000000000000000000000000000000000000000000000000000000000000000000000000200000008000000000000000000000000000000000000000000000000000000000000000000000000000000000000000000000000000000000020000000000000000000000000000000000800000000000000000000000000000000000000000000000022000000000000000000000000000000000000000000000000000080000001000000000000000000000000000000000000000000000000008000000000000000010000000000000000000000000000004000000000000000000000000000000",
      "type": "0x0",
      "transactionHash": "0xc0e04038f5b8ab2bb0966e36c188e423378151ac387d7baae7a4db2d9d2fb713",
      "transactionIndex": "0x8",
      "blockHash": "0xde9947938cccd6b58e011e304d3aa2044b89a63ec3f355438951ad3af412abce",
      "blockNumber": "0x2cc031d",
      "gasUsed": "0xb4a5",
      "effectiveGasPrice": "0x16e360",
      "blobGasUsed": "0x9c40",
      "from": "0xc929959b439b6fc2eb53e7ceb602297ff3147146",
      "to": "0xd743227af9b3922bd5d8127662c5610c986cf06e",
      "contractAddress": null,
      "daFootprintGasScalar": "0x190",
      "l1BaseFeeScalar": "0x7d0",
      "l1BlobBaseFee": "0x1",
      "l1BlobBaseFeeScalar": "0xdbba0",
      "l1Fee": "0x76",
      "l1GasPrice": "0x9",
      "l1GasUsed": "0x640"
    },
    {
      "status": "0x1",
      "cumulativeGasUsed": "0x32e91",
      "logs": [
        {
          "address": "0x12fd0f73fb1da732c49a6383da934e665f500743",
          "topics": [
            "0x8c5be1e5ebec7d5bd14f71427d1e84f3dd0314c0f7b2291e5b200ac8c7c3b925",
            "0x000000000000000000000000c929959b439b6fc2eb53e7ceb602297ff3147146",
            "0x000000000000000000000000b3b0d14c8804841a2e572779645f7a3845f52147"
          ],
          "data": "0xffffffffffffffffffffffffffffffffffffffffffffffffffffffffffffffff",
          "blockHash": "0x02c70059a3b8889d370d04a40a2daee4883e6f15d8bf2a206783696283cb3b90",
          "blockNumber": "0x2cc031f",
          "blockTimestamp": "0x69b9b06b",
          "transactionHash": "0x711885c0725f5e26f1dc9f4ecffd1f3b716e55daace2a17d69339e1768018a79",
          "transactionIndex": "0x3",
          "logIndex": "0x1",
          "removed": false
        }
      ],
      "logsBloom": "0x00000400000000000000000000000000000000000000000000000000000000000000000000000004000000000000000000000000000000000000000000200000000000000000000000000000000000000000000000000000000000000000000000000000000000000000000000000000000000000000020000000000000000000000000000000000800000000000000000000000000000000000000000000000022000000000000000000000000000000000000000000000000000000000000000000000000000000000000000000000100000000002000008000000000000000010000000000000000000000000000004000000000000000000000000000000",
      "type": "0x0",
      "transactionHash": "0x711885c0725f5e26f1dc9f4ecffd1f3b716e55daace2a17d69339e1768018a79",
      "transactionIndex": "0x3",
      "blockHash": "0x02c70059a3b8889d370d04a40a2daee4883e6f15d8bf2a206783696283cb3b90",
      "blockNumber": "0x2cc031f",
      "gasUsed": "0xb4a5",
      "effectiveGasPrice": "0x16e360",
      "blobGasUsed": "0x9c40",
      "from": "0xc929959b439b6fc2eb53e7ceb602297ff3147146",
      "to": "0x12fd0f73fb1da732c49a6383da934e665f500743",
      "contractAddress": null,
      "daFootprintGasScalar": "0x190",
      "l1BaseFeeScalar": "0x7d0",
      "l1BlobBaseFee": "0x1",
      "l1BlobBaseFeeScalar": "0xdbba0",
      "l1Fee": "0x76",
      "l1GasPrice": "0x9",
      "l1GasUsed": "0x640"
    },
    {
      "status": "0x1",
      "cumulativeGasUsed": "0x32e91",
      "logs": [
        {
          "address": "0x2da8207527095d4986ea12436965bf7895a17c16",
          "topics": [
            "0x8c5be1e5ebec7d5bd14f71427d1e84f3dd0314c0f7b2291e5b200ac8c7c3b925",
            "0x000000000000000000000000c929959b439b6fc2eb53e7ceb602297ff3147146",
            "0x000000000000000000000000b3b0d14c8804841a2e572779645f7a3845f52147"
          ],
          "data": "0xffffffffffffffffffffffffffffffffffffffffffffffffffffffffffffffff",
          "blockHash": "0xa4b92180e3506d7fdf50f1f165b7b724ab8bfb8585d2f7966be990f9b14c3ee9",
          "blockNumber": "0x2cc0322",
          "blockTimestamp": "0x69b9b06e",
          "transactionHash": "0x5630c957436a5de9d7a34023e354f42962106b13e404fa2b44255543e052ab33",
          "transactionIndex": "0x3",
          "logIndex": "0x1",
          "removed": false
        }
      ],
      "logsBloom": "0x00000400008000000000000000000000000000000000000000000000000000000000000000000000000000000000000000000000000000000000000000200000000000000000000000000000000000000000000000000000000000000000000000000000000000000000000000000000000000000000020000000000000000000000000000000000800000000000000000000000000000000000000008000000022000000000000000000000000000000000000000000000000000000000000000000000000000000000000000000000002000000000000008000000000000000010000000000000000000000000000004000000000000000000000000000000",
      "type": "0x0",
      "transactionHash": "0x5630c957436a5de9d7a34023e354f42962106b13e404fa2b44255543e052ab33",
      "transactionIndex": "0x3",
      "blockHash": "0xa4b92180e3506d7fdf50f1f165b7b724ab8bfb8585d2f7966be990f9b14c3ee9",
      "blockNumber": "0x2cc0322",
      "gasUsed": "0xb4a5",
      "effectiveGasPrice": "0x16e360",
      "blobGasUsed": "0x9c40",
      "from": "0xc929959b439b6fc2eb53e7ceb602297ff3147146",
      "to": "0x2da8207527095d4986ea12436965bf7895a17c16",
      "contractAddress": null,
      "daFootprintGasScalar": "0x190",
      "l1BaseFeeScalar": "0x7d0",
      "l1BlobBaseFee": "0x1",
      "l1BlobBaseFeeScalar": "0xdbba0",
      "l1Fee": "0x76",
      "l1GasPrice": "0x9",
      "l1GasUsed": "0x640"
    },
    {
      "status": "0x1",
      "cumulativeGasUsed": "0xaec0a",
      "logs": [
        {
          "address": "0x8ad7d64bde92d7428838ba74a891c6f1e1c73016",
          "topics": [
            "0x8c5be1e5ebec7d5bd14f71427d1e84f3dd0314c0f7b2291e5b200ac8c7c3b925",
            "0x000000000000000000000000c929959b439b6fc2eb53e7ceb602297ff3147146",
            "0x000000000000000000000000b3b0d14c8804841a2e572779645f7a3845f52147"
          ],
          "data": "0xffffffffffffffffffffffffffffffffffffffffffffffffffffffffffffffff",
          "blockHash": "0x6ca675ce9219b4824a997580fa5381b8a557768ecbcbbf62d1955314978c5861",
          "blockNumber": "0x2cc0324",
          "blockTimestamp": "0x69b9b070",
          "transactionHash": "0xd710e24f32117974f859b9991bb4724c3a0a85943d7e211772d7ed075dcd19fb",
          "transactionIndex": "0x8",
          "logIndex": "0x9",
          "removed": false
        }
      ],
      "logsBloom": "0x00000400000000000000000000000000000000000000000000000000000000000000000000000000000000000000000000000000000000000000000000200000000000000000000000000000000000000000000000800000000000000000000000000000000000000000000000000000000000000000020000000000000000000000000000000000800000000000000000000000000000000000000000000000022000000050000000000000000000000000000000000000000000000000000000000000000000000000000000000000000000000000000008000000000000000010000000000000000000000000000004000000000000000000000000000000",
      "type": "0x0",
      "transactionHash": "0xd710e24f32117974f859b9991bb4724c3a0a85943d7e211772d7ed075dcd19fb",
      "transactionIndex": "0x8",
      "blockHash": "0x6ca675ce9219b4824a997580fa5381b8a557768ecbcbbf62d1955314978c5861",
      "blockNumber": "0x2cc0324",
      "gasUsed": "0xb4a5",
      "effectiveGasPrice": "0x16e360",
      "blobGasUsed": "0x9c40",
      "from": "0xc929959b439b6fc2eb53e7ceb602297ff3147146",
      "to": "0x8ad7d64bde92d7428838ba74a891c6f1e1c73016",
      "contractAddress": null,
      "daFootprintGasScalar": "0x190",
      "l1BaseFeeScalar": "0x7d0",
      "l1BlobBaseFee": "0x1",
      "l1BlobBaseFeeScalar": "0xdbba0",
      "l1Fee": "0x76",
      "l1GasPrice": "0x9",
      "l1GasUsed": "0x640"
    },
    {
      "status": "0x1",
      "cumulativeGasUsed": "0x32e9d",
      "logs": [
        {
          "address": "0xd743227af9b3922bd5d8127662c5610c986cf06e",
          "topics": [
            "0x8c5be1e5ebec7d5bd14f71427d1e84f3dd0314c0f7b2291e5b200ac8c7c3b925",
            "0x000000000000000000000000c929959b439b6fc2eb53e7ceb602297ff3147146",
            "0x0000000000000000000000009370120dfd942c2e964de4d822c36f455bb21d42"
          ],
          "data": "0xffffffffffffffffffffffffffffffffffffffffffffffffffffffffffffffff",
          "blockHash": "0xb40581fc92557e662ac06e0feb03b49be9646e650105102e7563f3a064ec35db",
          "blockNumber": "0x2cc0326",
          "blockTimestamp": "0x69b9b072",
          "transactionHash": "0x59621900464866d6d52fe7386d35ba3c529b7e53dee4740b1fcc3cbe1c555e57",
          "transactionIndex": "0x3",
          "logIndex": "0x1",
          "removed": false
        }
      ],
      "logsBloom": "0x00000000000000000000000000000000000000000000000000000000000000000000000000000000000000040000000000000000000000000000000000200000008000000000000000000000000000000000000000000000000000000000000000000000000000000000000000000000000000000000020000000000000000000000000000000000800000000000000000000000000000002000000000000000020000000000000000000000000000000000000000000000000000080000001000000000000000000010000000000000000000000000000000000000000000000010000000000000000000000000000004000000000000000000000000000000",
      "type": "0x0",
      "transactionHash": "0x59621900464866d6d52fe7386d35ba3c529b7e53dee4740b1fcc3cbe1c555e57",
      "transactionIndex": "0x3",
      "blockHash": "0xb40581fc92557e662ac06e0feb03b49be9646e650105102e7563f3a064ec35db",
      "blockNumber": "0x2cc0326",
      "gasUsed": "0xb4a5",
      "effectiveGasPrice": "0x16e360",
      "blobGasUsed": "0x9c40",
      "from": "0xc929959b439b6fc2eb53e7ceb602297ff3147146",
      "to": "0xd743227af9b3922bd5d8127662c5610c986cf06e",
      "contractAddress": null,
      "daFootprintGasScalar": "0x190",
      "l1BaseFeeScalar": "0x7d0",
      "l1BlobBaseFee": "0x1",
      "l1BlobBaseFeeScalar": "0xdbba0",
      "l1Fee": "0x76",
      "l1GasPrice": "0x9",
      "l1GasUsed": "0x640"
    },
    {
      "status": "0x1",
      "cumulativeGasUsed": "0x32e9d",
      "logs": [
        {
          "address": "0x12fd0f73fb1da732c49a6383da934e665f500743",
          "topics": [
            "0x8c5be1e5ebec7d5bd14f71427d1e84f3dd0314c0f7b2291e5b200ac8c7c3b925",
            "0x000000000000000000000000c929959b439b6fc2eb53e7ceb602297ff3147146",
            "0x0000000000000000000000009370120dfd942c2e964de4d822c36f455bb21d42"
          ],
          "data": "0xffffffffffffffffffffffffffffffffffffffffffffffffffffffffffffffff",
          "blockHash": "0xdb4a483295cad79eb369488ce09aedb6db05e56fbd06e1e3a7f3085f3fae6f68",
          "blockNumber": "0x2cc0329",
          "blockTimestamp": "0x69b9b075",
          "transactionHash": "0x04a59536651733eda9aeccd35860fdc91bdde7c887cd0260d2d60b20aadc21b0",
          "transactionIndex": "0x3",
          "logIndex": "0x1",
          "removed": false
        }
      ],
      "logsBloom": "0x00000000000000000000000000000000000000000000000000000000000000000000000000000004000000040000000000000000000000000000000000200000000000000000000000000000000000000000000000000000000000000000000000000000000000000000000000000000000000000000020000000000000000000000000000000000800000000000000000000000000000002000000000000000020000000000000000000000000000000000000000000000000000000000000000000000000000000010000000000000100000000002000000000000000000000010000000000000000000000000000004000000000000000000000000000000",
      "type": "0x0",
      "transactionHash": "0x04a59536651733eda9aeccd35860fdc91bdde7c887cd0260d2d60b20aadc21b0",
      "transactionIndex": "0x3",
      "blockHash": "0xdb4a483295cad79eb369488ce09aedb6db05e56fbd06e1e3a7f3085f3fae6f68",
      "blockNumber": "0x2cc0329",
      "gasUsed": "0xb4a5",
      "effectiveGasPrice": "0x16e360",
      "blobGasUsed": "0x9c40",
      "from": "0xc929959b439b6fc2eb53e7ceb602297ff3147146",
      "to": "0x12fd0f73fb1da732c49a6383da934e665f500743",
      "contractAddress": null,
      "daFootprintGasScalar": "0x190",
      "l1BaseFeeScalar": "0x7d0",
      "l1BlobBaseFee": "0x1",
      "l1BlobBaseFeeScalar": "0xdbba0",
      "l1Fee": "0x76",
      "l1GasPrice": "0x9",
      "l1GasUsed": "0x640"
    },
    {
      "status": "0x1",
      "cumulativeGasUsed": "0x77f1b",
      "logs": [
        {
          "address": "0x2da8207527095d4986ea12436965bf7895a17c16",
          "topics": [
            "0x8c5be1e5ebec7d5bd14f71427d1e84f3dd0314c0f7b2291e5b200ac8c7c3b925",
            "0x000000000000000000000000c929959b439b6fc2eb53e7ceb602297ff3147146",
            "0x0000000000000000000000009370120dfd942c2e964de4d822c36f455bb21d42"
          ],
          "data": "0xffffffffffffffffffffffffffffffffffffffffffffffffffffffffffffffff",
          "blockHash": "0x623020c672b9ee126d801190628d58433b4324f56125d4e04331c63381c52c1d",
          "blockNumber": "0x2cc032b",
          "blockTimestamp": "0x69b9b077",
          "transactionHash": "0xbdfebed355e1a6bbb66f029ddb58770d94938726c6669c14a6b6726e4e736317",
          "transactionIndex": "0x6",
          "logIndex": "0x4",
          "removed": false
        }
      ],
      "logsBloom": "0x00000000008000000000000000000000000000000000000000000000000000000000000000000000000000040000000000000000000000000000000000200000000000000000000000000000000000000000000000000000000000000000000000000000000000000000000000000000000000000000020000000000000000000000000000000000800000000000000000000000000000002000000008000000020000000000000000000000000000000000000000000000000000000000000000000000000000000010000000000000002000000000000000000000000000000010000000000000000000000000000004000000000000000000000000000000",
      "type": "0x0",
      "transactionHash": "0xbdfebed355e1a6bbb66f029ddb58770d94938726c6669c14a6b6726e4e736317",
      "transactionIndex": "0x6",
      "blockHash": "0x623020c672b9ee126d801190628d58433b4324f56125d4e04331c63381c52c1d",
      "blockNumber": "0x2cc032b",
      "gasUsed": "0xb4a5",
      "effectiveGasPrice": "0x16e360",
      "blobGasUsed": "0x9c40",
      "from": "0xc929959b439b6fc2eb53e7ceb602297ff3147146",
      "to": "0x2da8207527095d4986ea12436965bf7895a17c16",
      "contractAddress": null,
      "daFootprintGasScalar": "0x190",
      "l1BaseFeeScalar": "0x7d0",
      "l1BlobBaseFee": "0x1",
      "l1BlobBaseFeeScalar": "0xdbba0",
      "l1Fee": "0x76",
      "l1GasPrice": "0x9",
      "l1GasUsed": "0x640"
    },
    {
      "status": "0x1",
      "cumulativeGasUsed": "0xa4be6",
      "logs": [
        {
          "address": "0x8ad7d64bde92d7428838ba74a891c6f1e1c73016",
          "topics": [
            "0x8c5be1e5ebec7d5bd14f71427d1e84f3dd0314c0f7b2291e5b200ac8c7c3b925",
            "0x000000000000000000000000c929959b439b6fc2eb53e7ceb602297ff3147146",
            "0x0000000000000000000000009370120dfd942c2e964de4d822c36f455bb21d42"
          ],
          "data": "0xffffffffffffffffffffffffffffffffffffffffffffffffffffffffffffffff",
          "blockHash": "0x184d0e12baa090b71f0f4209245fa59909f9b4fb3a4f468e7cc3744d11e53d9e",
          "blockNumber": "0x2cc032c",
          "blockTimestamp": "0x69b9b078",
          "transactionHash": "0x9afb75d601410debcbb5c3b63c18e8693d58ac423bbf927b6fd00af41b03c906",
          "transactionIndex": "0x7",
          "logIndex": "0xa",
          "removed": false
        }
      ],
      "logsBloom": "0x00000000000000000000000000000000000000000000000000000000000000000000000000000000000000040000000000000000000000000000000000200000000000000000000000000000000000000000000000800000000000000000000000000000000000000000000000000000000000000000020000000000000000000000000000000000800000000000000000000000000000002000000000000000020000000050000000000000000000000000000000000000000000000000000000000000000000000010000000000000000000000000000000000000000000000010000000000000000000000000000004000000000000000000000000000000",
      "type": "0x0",
      "transactionHash": "0x9afb75d601410debcbb5c3b63c18e8693d58ac423bbf927b6fd00af41b03c906",
      "transactionIndex": "0x7",
      "blockHash": "0x184d0e12baa090b71f0f4209245fa59909f9b4fb3a4f468e7cc3744d11e53d9e",
      "blockNumber": "0x2cc032c",
      "gasUsed": "0xb4a5",
      "effectiveGasPrice": "0x16e360",
      "blobGasUsed": "0x9c40",
      "from": "0xc929959b439b6fc2eb53e7ceb602297ff3147146",
      "to": "0x8ad7d64bde92d7428838ba74a891c6f1e1c73016",
      "contractAddress": null,
      "daFootprintGasScalar": "0x190",
      "l1BaseFeeScalar": "0x7d0",
      "l1BlobBaseFee": "0x1",
      "l1BlobBaseFeeScalar": "0xdbba0",
      "l1Fee": "0x76",
      "l1GasPrice": "0x9",
      "l1GasUsed": "0x640"
    },
    {
      "status": "0x1",
      "cumulativeGasUsed": "0x90636",
      "logs": [
        {
          "address": "0x00b036b58a818b1bc34d502d3fe730db729e62ac",
          "topics": [
            "0xdd466e674ea557f56295e2d0218a125ea4b4f0f6f3307b95f85e6110838d6438",
            "0xa23e2c757e7b91a2b280143ef59d7f963298a5aee25b7e2d2a8bb2d816364c6e",
            "0x0000000000000000000000002da8207527095d4986ea12436965bf7895a17c16",
            "0x000000000000000000000000d743227af9b3922bd5d8127662c5610c986cf06e"
          ],
          "data": "0x0000000000000000000000000000000000000000000000000000000000000bb8000000000000000000000000000000000000000000000000000000000000003c0000000000000000000000001da4fbb614154420a4d11bbbf3afec5385ee40c000000000000000000000000000000000000001047970ae70492a618a5fed0000000000000000000000000000000000000000000000000000000000000001b297",
          "blockHash": "0xca04192ddbd2be4497083a6d3c94aa95ddf4d0b1faaa57ae32b172d71fb82b7b",
          "blockNumber": "0x2cc032d",
          "blockTimestamp": "0x69b9b079",
          "transactionHash": "0x15440a4b58c558e0d004146cdbd0e97bee02205cf386961477e296b25195d95e",
          "transactionIndex": "0x7",
          "logIndex": "0x5",
          "removed": false
        }
      ],
      "logsBloom": "0x00000000000000000000000000000000000000000000000000000000000000000000000040000000000000000000000000000100000000000000000000000200000000000000000000000000000000000000000000000000000000000000000000000000000000000000000000004000000000000000000000000000000000000000000000000008000080000008000000000001000000000080000000200000000000000000000000000000000000004000000000000000000000000200000000000000000000000000000000000000000000000000000000000000000000000000040000000000000000000000000000000000000002000000000000000010",
      "type": "0x0",
      "transactionHash": "0x15440a4b58c558e0d004146cdbd0e97bee02205cf386961477e296b25195d95e",
      "transactionIndex": "0x7",
      "blockHash": "0xca04192ddbd2be4497083a6d3c94aa95ddf4d0b1faaa57ae32b172d71fb82b7b",
      "blockNumber": "0x2cc032d",
      "gasUsed": "0xcbb2",
      "effectiveGasPrice": "0x16e360",
      "blobGasUsed": "0xe100",
      "from": "0xc929959b439b6fc2eb53e7ceb602297ff3147146",
      "to": "0x00b036b58a818b1bc34d502d3fe730db729e62ac",
      "contractAddress": null,
      "daFootprintGasScalar": "0x190",
      "l1BaseFeeScalar": "0x7d0",
      "l1BlobBaseFee": "0x1",
      "l1BlobBaseFeeScalar": "0xdbba0",
      "l1Fee": "0xac",
      "l1GasPrice": "0x9",
      "l1GasUsed": "0x90c"
    },
    {
      "status": "0x1",
      "cumulativeGasUsed": "0x6be19",
      "logs": [
        {
          "address": "0x00b036b58a818b1bc34d502d3fe730db729e62ac",
          "topics": [
            "0xf208f4912782fd25c7f114ca3723a2d5dd6f3bcc3ac8db5af63baa85f711d5ec",
            "0xa23e2c757e7b91a2b280143ef59d7f963298a5aee25b7e2d2a8bb2d816364c6e",
            "0x000000000000000000000000b3b0d14c8804841a2e572779645f7a3845f52147"
          ],
          "data": "0xfffffffffffffffffffffffffffffffffffffffffffffffffffffffffff2764c00000000000000000000000000000000000000000000000000000000000d89b4000000000000000000000000000000000000000000000000354747051996f3860000000000000000000000000000000000000000000000000000000000000000",
          "blockHash": "0xe8753c81dd16cd0f822cba80113c62127d4b8271aa8f2a0176147c1f779949b2",
          "blockNumber": "0x2cc0330",
          "blockTimestamp": "0x69b9b07c",
          "transactionHash": "0xe42cd7089782e8718fe4e38d9eb2b7de24dfcdcf831e89f89d6e7818a76ca927",
          "transactionIndex": "0x3",
          "logIndex": "0x1",
          "removed": false
        },
        {
          "address": "0x2da8207527095d4986ea12436965bf7895a17c16",
          "topics": [
            "0xddf252ad1be2c89b69c2b068fc378daa952ba7f163c4a11628f55a4df523b3ef",
            "0x000000000000000000000000c929959b439b6fc2eb53e7ceb602297ff3147146",
            "0x00000000000000000000000000b036b58a818b1bc34d502d3fe730db729e62ac"
          ],
          "data": "0x00000000000000000000000000000000000000000000000000345cfc15420e39",
          "blockHash": "0xe8753c81dd16cd0f822cba80113c62127d4b8271aa8f2a0176147c1f779949b2",
          "blockNumber": "0x2cc0330",
          "blockTimestamp": "0x69b9b07c",
          "transactionHash": "0xe42cd7089782e8718fe4e38d9eb2b7de24dfcdcf831e89f89d6e7818a76ca927",
          "transactionIndex": "0x3",
          "logIndex": "0x2",
          "removed": false
        },
        {
          "address": "0xd743227af9b3922bd5d8127662c5610c986cf06e",
          "topics": [
            "0xddf252ad1be2c89b69c2b068fc378daa952ba7f163c4a11628f55a4df523b3ef",
            "0x000000000000000000000000c929959b439b6fc2eb53e7ceb602297ff3147146",
            "0x00000000000000000000000000b036b58a818b1bc34d502d3fe730db729e62ac"
          ],
          "data": "0x00000000000000000000000000000000000000000000003635aa453c49518e1c",
          "blockHash": "0xe8753c81dd16cd0f822cba80113c62127d4b8271aa8f2a0176147c1f779949b2",
          "blockNumber": "0x2cc0330",
          "blockTimestamp": "0x69b9b07c",
          "transactionHash": "0xe42cd7089782e8718fe4e38d9eb2b7de24dfcdcf831e89f89d6e7818a76ca927",
          "transactionIndex": "0x3",
          "logIndex": "0x3",
          "removed": false
        }
      ],
      "logsBloom": "0x00000400008000000000000000000000000000000000000000000000000000000000000000000000000000000000000000000100001000000000000000000000008000000000000000000008000000000000000000000000000000000000000000000000000000000000000000004000000000000000020000000010000000000000000001000000800080000008000000000000000000000000000008000000002004000000000000000000000000000000000000000020000000080200001000000002000000000000000000000000002000000000000008000000000000000000000000000000000000000000000004000000000002000000000000000010",
      "type": "0x0",
      "transactionHash": "0xe42cd7089782e8718fe4e38d9eb2b7de24dfcdcf831e89f89d6e7818a76ca927",
      "transactionIndex": "0x3",
      "blockHash": "0xe8753c81dd16cd0f822cba80113c62127d4b8271aa8f2a0176147c1f779949b2",
      "blockNumber": "0x2cc0330",
      "gasUsed": "0x44421",
      "effectiveGasPrice": "0x16e360",
      "blobGasUsed": "0xf870",
      "from": "0xc929959b439b6fc2eb53e7ceb602297ff3147146",
      "to": "0xb3b0d14c8804841a2e572779645f7a3845f52147",
      "contractAddress": null,
      "daFootprintGasScalar": "0x190",
      "l1BaseFeeScalar": "0x7d0",
      "l1BlobBaseFee": "0x1",
      "l1BlobBaseFeeScalar": "0xdbba0",
      "l1Fee": "0xbd",
      "l1GasPrice": "0x9",
      "l1GasUsed": "0x9fd"
    },
    {
      "status": "0x1",
      "cumulativeGasUsed": "0x34565",
      "logs": [
        {
          "address": "0x00b036b58a818b1bc34d502d3fe730db729e62ac",
          "topics": [
            "0xdd466e674ea557f56295e2d0218a125ea4b4f0f6f3307b95f85e6110838d6438",
            "0xbd94e2dbf8036796899da2ae20f9c6fae6c467660cd94e30ab4e8dfd60d7cbb6",
            "0x00000000000000000000000012fd0f73fb1da732c49a6383da934e665f500743",
            "0x0000000000000000000000002da8207527095d4986ea12436965bf7895a17c16"
          ],
          "data": "0x0000000000000000000000000000000000000000000000000000000000000bb8000000000000000000000000000000000000000000000000000000000000003c0000000000000000000000001da4fbb614154420a4d11bbbf3afec5385ee40c0000000000000000000000000000000000000000000fb99aaa2c538b000000000fffffffffffffffffffffffffffffffffffffffffffffffffffffffffffe4d68",
          "blockHash": "0x195ef75441c97c48f1c57ee59141f68ede046652bd187e909416e87dfc78b2e9",
          "blockNumber": "0x2cc0333",
          "blockTimestamp": "0x69b9b07f",
          "transactionHash": "0x51af408e06784cf8cf8d8e1b4182524acf22de3fa20b7ac334b47952f59438fc",
          "transactionIndex": "0x3",
          "logIndex": "0x1",
          "removed": false
        }
      ],
      "logsBloom": "0x00000000000000000000000000000000000000000000000000000000000000000000000040000000000000000000000000040000000000000000000000000000000000000000000000000000000002000000000000000000000000000000000000000000000000000000001000000000000000000000000000000000000000000000000000000008000000000008000000000001000000000000000000200000000000000000000000000000000000004000010000000100000000000000000000000000000000000000000000000000000000000000000000000000000000000000040000000000000000000000000000000000020002000000000000000010",
      "type": "0x0",
      "transactionHash": "0x51af408e06784cf8cf8d8e1b4182524acf22de3fa20b7ac334b47952f59438fc",
      "transactionIndex": "0x3",
      "blockHash": "0x195ef75441c97c48f1c57ee59141f68ede046652bd187e909416e87dfc78b2e9",
      "blockNumber": "0x2cc0333",
      "gasUsed": "0xcb6d",
      "effectiveGasPrice": "0x16e360",
      "blobGasUsed": "0xdc50",
      "from": "0xc929959b439b6fc2eb53e7ceb602297ff3147146",
      "to": "0x00b036b58a818b1bc34d502d3fe730db729e62ac",
      "contractAddress": null,
      "daFootprintGasScalar": "0x190",
      "l1BaseFeeScalar": "0x7d0",
      "l1BlobBaseFee": "0x1",
      "l1BlobBaseFeeScalar": "0xdbba0",
      "l1Fee": "0xa8",
      "l1GasPrice": "0x9",
      "l1GasUsed": "0x8d7"
    },
    {
      "status": "0x1",
      "cumulativeGasUsed": "0xacbe3",
      "logs": [
        {
          "address": "0x00b036b58a818b1bc34d502d3fe730db729e62ac",
          "topics": [
            "0xf208f4912782fd25c7f114ca3723a2d5dd6f3bcc3ac8db5af63baa85f711d5ec",
            "0xbd94e2dbf8036796899da2ae20f9c6fae6c467660cd94e30ab4e8dfd60d7cbb6",
            "0x000000000000000000000000b3b0d14c8804841a2e572779645f7a3845f52147"
          ],
          "data": "0xfffffffffffffffffffffffffffffffffffffffffffffffffffffffffff2764c00000000000000000000000000000000000000000000000000000000000d89b4000000000000000000000000000000000000000000000000354747051996f3860000000000000000000000000000000000000000000000000000000000000000",
          "blockHash": "0xe3cdc9e6c5f3b937da7e1945b3d7af200edfc574550a6df8431717c0f6c49107",
          "blockNumber": "0x2cc0335",
          "blockTimestamp": "0x69b9b081",
          "transactionHash": "0xc4135a5d1c002fba8bd64c7f98664bfa638fcbc16d41912a77dea15f3de50cc7",
          "transactionIndex": "0x6",
          "logIndex": "0x4",
          "removed": false
        },
        {
          "address": "0x12fd0f73fb1da732c49a6383da934e665f500743",
          "topics": [
            "0xddf252ad1be2c89b69c2b068fc378daa952ba7f163c4a11628f55a4df523b3ef",
            "0x000000000000000000000000c929959b439b6fc2eb53e7ceb602297ff3147146",
            "0x00000000000000000000000000b036b58a818b1bc34d502d3fe730db729e62ac"
          ],
          "data": "0x00000000000000000000000000000000000000000000003635c9adc5de9fff7f",
          "blockHash": "0xe3cdc9e6c5f3b937da7e1945b3d7af200edfc574550a6df8431717c0f6c49107",
          "blockNumber": "0x2cc0335",
          "blockTimestamp": "0x69b9b081",
          "transactionHash": "0xc4135a5d1c002fba8bd64c7f98664bfa638fcbc16d41912a77dea15f3de50cc7",
          "transactionIndex": "0x6",
          "logIndex": "0x5",
          "removed": false
        },
        {
          "address": "0x2da8207527095d4986ea12436965bf7895a17c16",
          "topics": [
            "0xddf252ad1be2c89b69c2b068fc378daa952ba7f163c4a11628f55a4df523b3ef",
            "0x000000000000000000000000c929959b439b6fc2eb53e7ceb602297ff3147146",
            "0x00000000000000000000000000b036b58a818b1bc34d502d3fe730db729e62ac"
          ],
          "data": "0x00000000000000000000000000000000000000000000000000345cddbea77346",
          "blockHash": "0xe3cdc9e6c5f3b937da7e1945b3d7af200edfc574550a6df8431717c0f6c49107",
          "blockNumber": "0x2cc0335",
          "blockTimestamp": "0x69b9b081",
          "transactionHash": "0xc4135a5d1c002fba8bd64c7f98664bfa638fcbc16d41912a77dea15f3de50cc7",
          "transactionIndex": "0x6",
          "logIndex": "0x6",
          "removed": false
        }
      ],
      "logsBloom": "0x00000400008000000000000000000000000000000000000000000000000000000000000000000004000000000000000000040000001000000000000000000000000000000000000000000008000002000000000000000000000000000000000000000000000000000000000000004000000000000000020000000010000000000000000001000000800000000008000000000000000000000000000008000000002004000000000000000000000000000000000000000120000000000000000000000002000000000000000000000000102000000002000008000000000000000000000000000000000000000000000004000000000002000000000000000010",
      "type": "0x0",
      "transactionHash": "0xc4135a5d1c002fba8bd64c7f98664bfa638fcbc16d41912a77dea15f3de50cc7",
      "transactionIndex": "0x6",
      "blockHash": "0xe3cdc9e6c5f3b937da7e1945b3d7af200edfc574550a6df8431717c0f6c49107",
      "blockNumber": "0x2cc0335",
      "gasUsed": "0x40155",
      "effectiveGasPrice": "0x16e360",
      "blobGasUsed": "0xf870",
      "from": "0xc929959b439b6fc2eb53e7ceb602297ff3147146",
      "to": "0xb3b0d14c8804841a2e572779645f7a3845f52147",
      "contractAddress": null,
      "daFootprintGasScalar": "0x190",
      "l1BaseFeeScalar": "0x7d0",
      "l1BlobBaseFee": "0x1",
      "l1BlobBaseFeeScalar": "0xdbba0",
      "l1Fee": "0xbd",
      "l1GasPrice": "0x9",
      "l1GasUsed": "0x9fd"
    },
    {
      "status": "0x1",
      "cumulativeGasUsed": "0x904be",
      "logs": [
        {
          "address": "0x00b036b58a818b1bc34d502d3fe730db729e62ac",
          "topics": [
            "0xdd466e674ea557f56295e2d0218a125ea4b4f0f6f3307b95f85e6110838d6438",
            "0xe874593ec1e7b152b67db935ed969631388c3758937732f050eaad41abff82ce",
            "0x00000000000000000000000012fd0f73fb1da732c49a6383da934e665f500743",
            "0x000000000000000000000000d743227af9b3922bd5d8127662c5610c986cf06e"
          ],
          "data": "0x00000000000000000000000000000000000000000000000000000000000001f4000000000000000000000000000000000000000000000000000000000000000a0000000000000000000000001da4fbb614154420a4d11bbbf3afec5385ee40c000000000000000000000000000000000000000010000000000000000000000000000000000000000000000000000000000000000000000000000000000000000",
          "blockHash": "0xe146fe57f1cbfe153c7820a4b50a9964bfcfa31d12af0b07561ab3e9e4c852a0",
          "blockNumber": "0x2cc0336",
          "blockTimestamp": "0x69b9b082",
          "transactionHash": "0x2a274f9140760ea132eceb7b3a2532b987de1fbee7589e8f2af5329df9d72669",
          "transactionIndex": "0x7",
          "logIndex": "0x5",
          "removed": false
        }
      ],
      "logsBloom": "0x00000000000000000000000000000000000000000000000000000000000000000000000000000000000000000000000000000000000000000000000000000200000000000000000000000000000000000000000000000000000000000000000000000000000000000000201000004000000000000000000000000000000000000000000000000008000000000008000000000001000000000080000000200000000000000000000200000000000000000000010000000000000000000000000000000000000000000000000000000000000000000000000000000000000000000000000000002000000000000000000000000000020002000000000000000010",
      "type": "0x0",
      "transactionHash": "0x2a274f9140760ea132eceb7b3a2532b987de1fbee7589e8f2af5329df9d72669",
      "transactionIndex": "0x7",
      "blockHash": "0xe146fe57f1cbfe153c7820a4b50a9964bfcfa31d12af0b07561ab3e9e4c852a0",
      "blockNumber": "0x2cc0336",
      "gasUsed": "0xca16",
      "effectiveGasPrice": "0x16e360",
      "blobGasUsed": "0xd7a0",
      "from": "0xc929959b439b6fc2eb53e7ceb602297ff3147146",
      "to": "0x00b036b58a818b1bc34d502d3fe730db729e62ac",
      "contractAddress": null,
      "daFootprintGasScalar": "0x190",
      "l1BaseFeeScalar": "0x7d0",
      "l1BlobBaseFee": "0x1",
      "l1BlobBaseFeeScalar": "0xdbba0",
      "l1Fee": "0xa4",
      "l1GasPrice": "0x9",
      "l1GasUsed": "0x8a1"
    },
    {
      "status": "0x1",
      "cumulativeGasUsed": "0x14986b",
      "logs": [
        {
          "address": "0x00b036b58a818b1bc34d502d3fe730db729e62ac",
          "topics": [
            "0xf208f4912782fd25c7f114ca3723a2d5dd6f3bcc3ac8db5af63baa85f711d5ec",
            "0xe874593ec1e7b152b67db935ed969631388c3758937732f050eaad41abff82ce",
            "0x000000000000000000000000b3b0d14c8804841a2e572779645f7a3845f52147"
          ],
          "data": "0xfffffffffffffffffffffffffffffffffffffffffffffffffffffffffff2761a00000000000000000000000000000000000000000000000000000000000d89e600000000000000000000000000000000000000000000003635c9adc5dea000000000000000000000000000000000000000000000000000000000000000000000",
          "blockHash": "0xa3162649f77ded0eeff5993323b138823053b3cda0ae15325c233b4fb5f8f209",
          "blockNumber": "0x2cc0337",
          "blockTimestamp": "0x69b9b083",
          "transactionHash": "0xd10e33f9ffca6ecfc874e962da96c54c8ee582b45494ac36e2eaee8d49a6ef16",
          "transactionIndex": "0x8",
          "logIndex": "0xe",
          "removed": false
        },
        {
          "address": "0x12fd0f73fb1da732c49a6383da934e665f500743",
          "topics": [
            "0xddf252ad1be2c89b69c2b068fc378daa952ba7f163c4a11628f55a4df523b3ef",
            "0x000000000000000000000000c929959b439b6fc2eb53e7ceb602297ff3147146",
            "0x00000000000000000000000000b036b58a818b1bc34d502d3fe730db729e62ac"
          ],
          "data": "0x00000000000000000000000000000000000000000000003635c9adc5de9fffca",
          "blockHash": "0xa3162649f77ded0eeff5993323b138823053b3cda0ae15325c233b4fb5f8f209",
          "blockNumber": "0x2cc0337",
          "blockTimestamp": "0x69b9b083",
          "transactionHash": "0xd10e33f9ffca6ecfc874e962da96c54c8ee582b45494ac36e2eaee8d49a6ef16",
          "transactionIndex": "0x8",
          "logIndex": "0xf",
          "removed": false
        },
        {
          "address": "0xd743227af9b3922bd5d8127662c5610c986cf06e",
          "topics": [
            "0xddf252ad1be2c89b69c2b068fc378daa952ba7f163c4a11628f55a4df523b3ef",
            "0x000000000000000000000000c929959b439b6fc2eb53e7ceb602297ff3147146",
            "0x00000000000000000000000000b036b58a818b1bc34d502d3fe730db729e62ac"
          ],
          "data": "0x00000000000000000000000000000000000000000000003635c9adc5de9fffca",
          "blockHash": "0xa3162649f77ded0eeff5993323b138823053b3cda0ae15325c233b4fb5f8f209",
          "blockNumber": "0x2cc0337",
          "blockTimestamp": "0x69b9b083",
          "transactionHash": "0xd10e33f9ffca6ecfc874e962da96c54c8ee582b45494ac36e2eaee8d49a6ef16",
          "transactionIndex": "0x8",
          "logIndex": "0x10",
          "removed": false
        }
      ],
      "logsBloom": "0x00000400000000000000000000000000000000000000000000000000000000000000000000000004000000000000000000000000001000000000000000000000008000000000000000000008000000000000000000000000000000000000000000000000000000000000200000004000000000000000020000000010000000000000000001000000800000000008000000000000000000000000000000000000002004000000000200000000000000000000000000000020000000080000001000000002000000000000000000000000100000000002000008000000000000000000000000002000000000000000000004000000000002000000000000000010",
      "type": "0x0",
      "transactionHash": "0xd10e33f9ffca6ecfc874e962da96c54c8ee582b45494ac36e2eaee8d49a6ef16",
      "transactionIndex": "0x8",
      "blockHash": "0xa3162649f77ded0eeff5993323b138823053b3cda0ae15325c233b4fb5f8f209",
      "blockNumber": "0x2cc0337",
      "gasUsed": "0x3bebd",
      "effectiveGasPrice": "0x16e360",
      "blobGasUsed": "0xf870",
      "from": "0xc929959b439b6fc2eb53e7ceb602297ff3147146",
      "to": "0xb3b0d14c8804841a2e572779645f7a3845f52147",
      "contractAddress": null,
      "daFootprintGasScalar": "0x190",
      "l1BaseFeeScalar": "0x7d0",
      "l1BlobBaseFee": "0x1",
      "l1BlobBaseFeeScalar": "0xdbba0",
      "l1Fee": "0xbc",
      "l1GasPrice": "0x9",
      "l1GasUsed": "0x9f0"
    },
    {
      "status": "0x1",
      "cumulativeGasUsed": "0x345aa",
      "logs": [
        {
          "address": "0x00b036b58a818b1bc34d502d3fe730db729e62ac",
          "topics": [
            "0xdd466e674ea557f56295e2d0218a125ea4b4f0f6f3307b95f85e6110838d6438",
            "0x023adc1630e442631b118162e495e2b6452b6c3cd2ac9abe06ace23af381150e",
            "0x0000000000000000000000008ad7d64bde92d7428838ba74a891c6f1e1c73016",
            "0x000000000000000000000000d743227af9b3922bd5d8127662c5610c986cf06e"
          ],
          "data": "0x0000000000000000000000000000000000000000000000000000000000000bb8000000000000000000000000000000000000000000000000000000000000003c0000000000000000000000001da4fbb614154420a4d11bbbf3afec5385ee40c0000000000000000000000000000000000000002cb8ab04fbe3a3636e107e0f0000000000000000000000000000000000000000000000000000000000000128ec",
          "blockHash": "0x3497f6da0b414852b9ca73e6585955c5bcbbbb860849655c82efc8cd940d6707",
          "blockNumber": "0x2cc0339",
          "blockTimestamp": "0x69b9b085",
          "transactionHash": "0x4c22cd7b4283e2ffa63c2b0dbe15c037e80ddee58305f52451b14749d582dadd",
          "transactionIndex": "0x3",
          "logIndex": "0x1",
          "removed": false
        }
      ],
      "logsBloom": "0x00010000000000000000000000000000000000000000000000000000000000000000000000000000000000000000000000000000000000000000000000000200000000000000000000000000000000000000000000000000000000000000000000000000000000000000000000004000000000000000000000000000000001000000000000000008000000000008000000000001000000000082000000200000000000000000000000000000040000000000000000000000000000000000000000000000000000000000000000000000000000000000400000000000000000000000000000000000000000000000000000000000000002080000000000000010",
      "type": "0x0",
      "transactionHash": "0x4c22cd7b4283e2ffa63c2b0dbe15c037e80ddee58305f52451b14749d582dadd",
      "transactionIndex": "0x3",
      "blockHash": "0x3497f6da0b414852b9ca73e6585955c5bcbbbb860849655c82efc8cd940d6707",
      "blockNumber": "0x2cc0339",
      "gasUsed": "0xcbb2",
      "effectiveGasPrice": "0x16e360",
      "blobGasUsed": "0xdf70",
      "from": "0xc929959b439b6fc2eb53e7ceb602297ff3147146",
      "to": "0x00b036b58a818b1bc34d502d3fe730db729e62ac",
      "contractAddress": null,
      "daFootprintGasScalar": "0x190",
      "l1BaseFeeScalar": "0x7d0",
      "l1BlobBaseFee": "0x1",
      "l1BlobBaseFeeScalar": "0xdbba0",
      "l1Fee": "0xab",
      "l1GasPrice": "0x9",
      "l1GasUsed": "0x8ff"
    },
    {
      "status": "0x1",
      "cumulativeGasUsed": "0xd0687",
      "logs": [
        {
          "address": "0x00b036b58a818b1bc34d502d3fe730db729e62ac",
          "topics": [
            "0xf208f4912782fd25c7f114ca3723a2d5dd6f3bcc3ac8db5af63baa85f711d5ec",
            "0x023adc1630e442631b118162e495e2b6452b6c3cd2ac9abe06ace23af381150e",
            "0x000000000000000000000000b3b0d14c8804841a2e572779645f7a3845f52147"
          ],
          "data": "0xfffffffffffffffffffffffffffffffffffffffffffffffffffffffffff2764c00000000000000000000000000000000000000000000000000000000000d89b4000000000000000000000000000000000000000000000000354747051996f3860000000000000000000000000000000000000000000000000000000000000000",
          "blockHash": "0x26f195482892b6bf131ea5cca0066ab7ad67c395ba05a4b52aea4dce08792d16",
          "blockNumber": "0x2cc033b",
          "blockTimestamp": "0x69b9b087",
          "transactionHash": "0x4c463379bbd962851305b82af87b7069cb620f3e1790189cf98a498a2c285387",
          "transactionIndex": "0x7",
          "logIndex": "0x8",
          "removed": false
        },
        {
          "address": "0x8ad7d64bde92d7428838ba74a891c6f1e1c73016",
          "topics": [
            "0xddf252ad1be2c89b69c2b068fc378daa952ba7f163c4a11628f55a4df523b3ef",
            "0x000000000000000000000000c929959b439b6fc2eb53e7ceb602297ff3147146",
            "0x00000000000000000000000000b036b58a818b1bc34d502d3fe730db729e62ac"
          ],
          "data": "0x0000000000000000000000000000000000000000000000000130fbc7a0014b71",
          "blockHash": "0x26f195482892b6bf131ea5cca0066ab7ad67c395ba05a4b52aea4dce08792d16",
          "blockNumber": "0x2cc033b",
          "blockTimestamp": "0x69b9b087",
          "transactionHash": "0x4c463379bbd962851305b82af87b7069cb620f3e1790189cf98a498a2c285387",
          "transactionIndex": "0x7",
          "logIndex": "0x9",
          "removed": false
        },
        {
          "address": "0xd743227af9b3922bd5d8127662c5610c986cf06e",
          "topics": [
            "0xddf252ad1be2c89b69c2b068fc378daa952ba7f163c4a11628f55a4df523b3ef",
            "0x000000000000000000000000c929959b439b6fc2eb53e7ceb602297ff3147146",
            "0x00000000000000000000000000b036b58a818b1bc34d502d3fe730db729e62ac"
          ],
          "data": "0x0000000000000000000000000000000000000000000000094eaf07920a1d5d59",
          "blockHash": "0x26f195482892b6bf131ea5cca0066ab7ad67c395ba05a4b52aea4dce08792d16",
          "blockNumber": "0x2cc033b",
          "blockTimestamp": "0x69b9b087",
          "transactionHash": "0x4c463379bbd962851305b82af87b7069cb620f3e1790189cf98a498a2c285387",
          "transactionIndex": "0x7",
          "logIndex": "0xa",
          "removed": false
        }
      ],
      "logsBloom": "0x00000400000000000000000000000000000000000000000000000000000000000000000000000000000000000000000000000000001000000000000000000000008000000000000000000008000000000000000000800000000000000000000000000000000000000000000000004000000000000000020000000010000001000000000001000000800000000008000000000000000000000000000000000000002004000050000000000000040000000000000000000020000000080000001000000002000000000000000000000000000000000000000008000000000000000000000000000000000000000000000004000000000002080000000000000010",
      "type": "0x0",
      "transactionHash": "0x4c463379bbd962851305b82af87b7069cb620f3e1790189cf98a498a2c285387",
      "transactionIndex": "0x7",
      "blockHash": "0x26f195482892b6bf131ea5cca0066ab7ad67c395ba05a4b52aea4dce08792d16",
      "blockNumber": "0x2cc033b",
      "gasUsed": "0x40155",
      "effectiveGasPrice": "0x16e360",
      "blobGasUsed": "0xf870",
      "from": "0xc929959b439b6fc2eb53e7ceb602297ff3147146",
      "to": "0xb3b0d14c8804841a2e572779645f7a3845f52147",
      "contractAddress": null,
      "daFootprintGasScalar": "0x190",
      "l1BaseFeeScalar": "0x7d0",
      "l1BlobBaseFee": "0x1",
      "l1BlobBaseFeeScalar": "0xdbba0",
      "l1Fee": "0xbd",
      "l1GasPrice": "0x9",
      "l1GasUsed": "0x9fd"
    }
  ],
  "libraries": [],
  "pending": [],
  "returns": {},
  "timestamp": 1773777031168,
  "chain": 1301,
  "commit": "a61f345"
}